{
  "contractName": "Remittance",
  "abi": [
    {
      "constant": true,
      "inputs": [
        {
          "name": "shopAddress",
          "type": "address"
        }
      ],
      "name": "isExchangeShop",
      "outputs": [
        {
          "name": "isIndeed",
          "type": "bool"
        }
      ],
      "payable": false,
      "stateMutability": "view",
      "type": "function"
    },
    {
      "constant": true,
      "inputs": [
        {
          "name": "",
          "type": "address"
        }
      ],
      "name": "challengeStructs",
      "outputs": [
        {
          "name": "challengeFactor1",
          "type": "bytes32"
        },
        {
          "name": "challengeFactor2",
          "type": "bytes32"
        },
        {
          "name": "exists",
          "type": "bool"
        }
      ],
      "payable": false,
      "stateMutability": "view",
      "type": "function"
    },
    {
      "constant": false,
      "inputs": [],
      "name": "kill",
      "outputs": [],
      "payable": false,
      "stateMutability": "nonpayable",
      "type": "function"
    },
    {
      "constant": false,
      "inputs": [],
      "name": "pauseContract",
      "outputs": [
        {
          "name": "success",
          "type": "bool"
        }
      ],
      "payable": false,
      "stateMutability": "nonpayable",
      "type": "function"
    },
    {
      "constant": false,
      "inputs": [],
      "name": "startContract",
      "outputs": [
        {
          "name": "success",
          "type": "bool"
        }
      ],
      "payable": false,
      "stateMutability": "nonpayable",
      "type": "function"
    },
    {
      "constant": false,
      "inputs": [
        {
          "name": "recipient",
          "type": "address"
        }
      ],
      "name": "killAndTransfer",
      "outputs": [],
      "payable": false,
      "stateMutability": "nonpayable",
      "type": "function"
    },
    {
      "constant": false,
      "inputs": [
        {
          "name": "challengeFactor1",
          "type": "bytes32"
        },
        {
          "name": "challengeFactor2",
          "type": "bytes32"
        },
        {
          "name": "requestAmount",
          "type": "uint256"
        }
      ],
      "name": "paymentRequest",
      "outputs": [
        {
          "name": "success",
          "type": "bool"
        }
      ],
      "payable": false,
      "stateMutability": "nonpayable",
      "type": "function"
    },
    {
      "constant": true,
      "inputs": [],
      "name": "getOwner",
      "outputs": [
        {
          "name": "theOwner",
          "type": "address"
        }
      ],
      "payable": false,
      "stateMutability": "view",
      "type": "function"
    },
    {
      "constant": false,
      "inputs": [
        {
          "name": "exchangeShop",
          "type": "address"
        },
        {
          "name": "challengeFactor1",
          "type": "bytes32"
        },
        {
          "name": "challengeFactor2",
          "type": "bytes32"
        }
      ],
      "name": "setRequestorChallengeFactors",
      "outputs": [
        {
          "name": "isSet",
          "type": "bool"
        }
      ],
      "payable": false,
      "stateMutability": "nonpayable",
      "type": "function"
    },
    {
      "constant": false,
      "inputs": [
        {
          "name": "newOwner",
          "type": "address"
        }
      ],
      "name": "changeOwner",
      "outputs": [
        {
          "name": "transferSuccess",
          "type": "bool"
        }
      ],
      "payable": false,
      "stateMutability": "nonpayable",
      "type": "function"
    },
    {
      "constant": true,
      "inputs": [],
      "name": "isPaused",
      "outputs": [
        {
          "name": "isIndeed",
          "type": "bool"
        }
      ],
      "payable": false,
      "stateMutability": "view",
      "type": "function"
    },
    {
      "inputs": [
        {
          "name": "numBlocksUntilTimeout",
          "type": "uint256"
        }
      ],
      "payable": false,
      "stateMutability": "nonpayable",
      "type": "constructor"
    },
    {
      "anonymous": false,
      "inputs": [
        {
          "indexed": false,
          "name": "sender",
          "type": "address"
        },
        {
          "indexed": false,
          "name": "currentBlockNumber",
          "type": "uint256"
        },
        {
          "indexed": false,
          "name": "numBlocksUntilTimeout",
          "type": "uint256"
        }
      ],
      "name": "LogInstantiateContract",
      "type": "event"
    },
    {
      "anonymous": false,
      "inputs": [
        {
          "indexed": false,
          "name": "sender",
          "type": "address"
        },
        {
          "indexed": false,
          "name": "challengeFactor1",
          "type": "bytes32"
        },
        {
          "indexed": false,
          "name": "challengeFactor2",
          "type": "bytes32"
        },
        {
          "indexed": false,
          "name": "requestAmount",
          "type": "uint256"
        }
      ],
      "name": "LogPaymentRequest",
      "type": "event"
    },
    {
      "anonymous": false,
      "inputs": [
        {
          "indexed": false,
          "name": "sender",
          "type": "address"
        },
        {
          "indexed": false,
          "name": "recipient",
          "type": "address"
        },
        {
          "indexed": false,
          "name": "balance",
          "type": "uint256"
        }
      ],
      "name": "LogKill",
      "type": "event"
    },
    {
      "anonymous": false,
      "inputs": [
        {
          "indexed": false,
          "name": "sender",
          "type": "address"
        }
      ],
      "name": "LogContractPause",
      "type": "event"
    },
    {
      "anonymous": false,
      "inputs": [
        {
          "indexed": false,
          "name": "sender",
          "type": "address"
        }
      ],
      "name": "LogContractResume",
      "type": "event"
    },
    {
      "anonymous": false,
      "inputs": [
        {
          "indexed": false,
          "name": "oldOwner",
          "type": "address"
        },
        {
          "indexed": false,
          "name": "newOwner",
          "type": "address"
        }
      ],
      "name": "LogNewOwner",
      "type": "event"
    }
  ],
  "bytecode": "0x6060604052341561000f57600080fd5b604051602080610f9883398101604052808051906020019091905050336000806101000a81548173ffffffffffffffffffffffffffffffffffffffff021916908373ffffffffffffffffffffffffffffffffffffffff16021790555060008111151561007a57600080fd5b61009a814361011964010000000002610e08179091906401000000009004565b6002819055507f0b64f092717146fb6cdb079a33447e2d34c4b044c484eb3ce1cf38029854b0d9334383604051808473ffffffffffffffffffffffffffffffffffffffff1673ffffffffffffffffffffffffffffffffffffffff168152602001838152602001828152602001935050505060405180910390a150610137565b600080828401905083811015151561012d57fe5b8091505092915050565b610e52806101466000396000f3006060604052600436106100af576000357c0100000000000000000000000000000000000000000000000000000000900463ffffffff1680632167a5a0146100b457806339d17eff1461010557806341c0e1b514610174578063439766ce146101895780635fb02f4d146101b65780636368e928146101e357806388535e181461021c578063893d20e81461027157806395d8bc05146102c6578063a6f9dae114610331578063b187bd2614610382575b600080fd5b34156100bf57600080fd5b6100eb600480803573ffffffffffffffffffffffffffffffffffffffff169060200190919050506103af565b604051808215151515815260200191505060405180910390f35b341561011057600080fd5b61013c600480803573ffffffffffffffffffffffffffffffffffffffff16906020019091905050610408565b604051808460001916600019168152602001836000191660001916815260200182151515158152602001935050505060405180910390f35b341561017f57600080fd5b61018761043f565b005b341561019457600080fd5b61019c610570565b604051808215151515815260200191505060405180910390f35b34156101c157600080fd5b6101c9610652565b604051808215151515815260200191505060405180910390f35b34156101ee57600080fd5b61021a600480803573ffffffffffffffffffffffffffffffffffffffff16906020019091905050610733565b005b341561022757600080fd5b61025760048080356000191690602001909190803560001916906020019091908035906020019091905050610882565b604051808215151515815260200191505060405180910390f35b341561027c57600080fd5b610284610a9d565b604051808273ffffffffffffffffffffffffffffffffffffffff1673ffffffffffffffffffffffffffffffffffffffff16815260200191505060405180910390f35b34156102d157600080fd5b610317600480803573ffffffffffffffffffffffffffffffffffffffff169060200190919080356000191690602001909190803560001916906020019091905050610ac6565b604051808215151515815260200191505060405180910390f35b341561033c57600080fd5b610368600480803573ffffffffffffffffffffffffffffffffffffffff16906020019091905050610c33565b604051808215151515815260200191505060405180910390f35b341561038d57600080fd5b610395610df2565b604051808215151515815260200191505060405180910390f35b6000600160008373ffffffffffffffffffffffffffffffffffffffff1673ffffffffffffffffffffffffffffffffffffffff16815260200190815260200160002060020160009054906101000a900460ff169050919050565b60016020528060005260406000206000915090508060000154908060010154908060020160009054906101000a900460ff16905083565b6000809054906101000a900473ffffffffffffffffffffffffffffffffffffffff1673ffffffffffffffffffffffffffffffffffffffff163373ffffffffffffffffffffffffffffffffffffffff1614151561049a57600080fd5b7f8be15dba7f503063bb0bc2a47e9af814cfc3c11b0cac0025223c99be306c6e1633333073ffffffffffffffffffffffffffffffffffffffff1631604051808473ffffffffffffffffffffffffffffffffffffffff1673ffffffffffffffffffffffffffffffffffffffff1681526020018373ffffffffffffffffffffffffffffffffffffffff1673ffffffffffffffffffffffffffffffffffffffff168152602001828152602001935050505060405180910390a1610558610a9d565b73ffffffffffffffffffffffffffffffffffffffff16ff5b60008060009054906101000a900473ffffffffffffffffffffffffffffffffffffffff1673ffffffffffffffffffffffffffffffffffffffff163373ffffffffffffffffffffffffffffffffffffffff161415156105cd57600080fd5b6001600060146101000a81548160ff0219169083151502179055507f9022f48034574f88d5dde439a5da7ebc25082f77761e9d1db4915cea52ade9dc33604051808273ffffffffffffffffffffffffffffffffffffffff1673ffffffffffffffffffffffffffffffffffffffff16815260200191505060405180910390a16001905090565b60008060009054906101000a900473ffffffffffffffffffffffffffffffffffffffff1673ffffffffffffffffffffffffffffffffffffffff163373ffffffffffffffffffffffffffffffffffffffff161415156106af57600080fd5b60008060146101000a81548160ff0219169083151502179055507fa8ddc33bcc81d4475dfdcb2c883e97be008d608cc0c8a48aa5a8d1076b99654433604051808273ffffffffffffffffffffffffffffffffffffffff1673ffffffffffffffffffffffffffffffffffffffff16815260200191505060405180910390a16001905090565b6000809054906101000a900473ffffffffffffffffffffffffffffffffffffffff1673ffffffffffffffffffffffffffffffffffffffff163373ffffffffffffffffffffffffffffffffffffffff1614151561078e57600080fd5b60008173ffffffffffffffffffffffffffffffffffffffff161115156107b357600080fd5b7f8be15dba7f503063bb0bc2a47e9af814cfc3c11b0cac0025223c99be306c6e1633823073ffffffffffffffffffffffffffffffffffffffff1631604051808473ffffffffffffffffffffffffffffffffffffffff1673ffffffffffffffffffffffffffffffffffffffff1681526020018373ffffffffffffffffffffffffffffffffffffffff1673ffffffffffffffffffffffffffffffffffffffff168152602001828152602001935050505060405180910390a18073ffffffffffffffffffffffffffffffffffffffff16ff5b600061088d336103af565b151561089857600080fd5b6000821115156108a757600080fd5b6108af610a9d565b73ffffffffffffffffffffffffffffffffffffffff1631821015156108d357600080fd5b600160003373ffffffffffffffffffffffffffffffffffffffff1673ffffffffffffffffffffffffffffffffffffffff16815260200190815260200160002060000154600160003373ffffffffffffffffffffffffffffffffffffffff1673ffffffffffffffffffffffffffffffffffffffff1681526020019081526020016000206001015460405180836000191660001916815260200182600019166000191681526020019250505060405180910390206000191684846040518083600019166000191681526020018260001916600019168152602001925050506040518091039020600019161415156109c757600080fd5b7f1fea1af5d0f8dc386005efd221e0e174f2ea347488f02923962b24c123843d7d33858585604051808573ffffffffffffffffffffffffffffffffffffffff1673ffffffffffffffffffffffffffffffffffffffff1681526020018460001916600019168152602001836000191660001916815260200182815260200194505050505060405180910390a13373ffffffffffffffffffffffffffffffffffffffff166108fc839081150290604051600060405180830381858888f193505050501515610a9257600080fd5b600190509392505050565b60008060009054906101000a900473ffffffffffffffffffffffffffffffffffffffff16905090565b60008060009054906101000a900473ffffffffffffffffffffffffffffffffffffffff1673ffffffffffffffffffffffffffffffffffffffff163373ffffffffffffffffffffffffffffffffffffffff16141515610b2357600080fd5b610b2c846103af565b151515610b3857600080fd5b82600160008673ffffffffffffffffffffffffffffffffffffffff1673ffffffffffffffffffffffffffffffffffffffff168152602001908152602001600020600001816000191690555081600160008673ffffffffffffffffffffffffffffffffffffffff1673ffffffffffffffffffffffffffffffffffffffff168152602001908152602001600020600101816000191690555060018060008673ffffffffffffffffffffffffffffffffffffffff1673ffffffffffffffffffffffffffffffffffffffff16815260200190815260200160002060020160006101000a81548160ff021916908315150217905550600190509392505050565b60008060009054906101000a900473ffffffffffffffffffffffffffffffffffffffff1673ffffffffffffffffffffffffffffffffffffffff163373ffffffffffffffffffffffffffffffffffffffff16141515610c9057600080fd5b60008273ffffffffffffffffffffffffffffffffffffffff1614151515610cb657600080fd5b3373ffffffffffffffffffffffffffffffffffffffff168273ffffffffffffffffffffffffffffffffffffffff1614151515610cf157600080fd5b7f1f8d7d25344642d919d55999e4664aa452a5f424bc0936ceb9c2b300db7dcbd96000809054906101000a900473ffffffffffffffffffffffffffffffffffffffff1683604051808373ffffffffffffffffffffffffffffffffffffffff1673ffffffffffffffffffffffffffffffffffffffff1681526020018273ffffffffffffffffffffffffffffffffffffffff1673ffffffffffffffffffffffffffffffffffffffff1681526020019250505060405180910390a1816000806101000a81548173ffffffffffffffffffffffffffffffffffffffff021916908373ffffffffffffffffffffffffffffffffffffffff16021790555060019050919050565b60008060149054906101000a900460ff16905090565b6000808284019050838110151515610e1c57fe5b80915050929150505600a165627a7a7230582055c2bf6efa52fa313f75bb19e5eda7da1c54e8f8cbe2bd9895b00b92e3591f670029",
  "source": "pragma solidity ^0.4.18;\n\nimport '../contractLibrary/SafeMath.sol';\nimport '../contractLibrary/contractModifiers/Killable.sol';\n\ncontract Remittance is Killable {\n\n  using SafeMath for uint256;\n  \n  struct challengeStruct {\n      bytes32 challengeFactor1;\n      bytes32 challengeFactor2;\n      bool exists;\n  }\n\n  mapping(address => challengeStruct) public challengeStructs;\n\n  uint private challengeMaxTimeout;\n\n  event LogInstantiateContract(address sender, uint currentBlockNumber, uint numBlocksUntilTimeout);\n  event LogPaymentRequest(address sender, bytes32 challengeFactor1, bytes32 challengeFactor2, uint requestAmount);\n\n  function Remittance(uint numBlocksUntilTimeout)\n    public\n  {\n      // TODO: still need to figure out where and how to add the timeout\n      require(numBlocksUntilTimeout > 0);\n      challengeMaxTimeout = block.number.add(numBlocksUntilTimeout);\n      LogInstantiateContract(msg.sender, block.number, numBlocksUntilTimeout);\n  }\n  \n  /**\n   * paymentRequestor - address of the exchange shop requesting funds\n   * challengeFactor1 - pre-shared keccak256 hash with exchange shop\n   * challengeFactor2 - pre-shared keccak256 hash with funds recipient\n   */\n  \n  function setRequestorChallengeFactors(address exchangeShop, bytes32 challengeFactor1, bytes32 challengeFactor2)\n    onlyOwner\n    public\n    returns(bool isSet)\n  {\n      require(!isExchangeShop(exchangeShop));\n      challengeStructs[exchangeShop].challengeFactor1 = challengeFactor1;\n      challengeStructs[exchangeShop].challengeFactor2 = challengeFactor2;\n      challengeStructs[exchangeShop].exists = true;\n      return true;\n  }\n  \n  function paymentRequest(bytes32 challengeFactor1, bytes32 challengeFactor2, uint requestAmount)\n    public\n    returns(bool success)\n  {\n      require(isExchangeShop(msg.sender));\n      require(requestAmount > 0);\n      require(requestAmount < getOwner().balance);\n      require(keccak256(challengeFactor1, challengeFactor2) == keccak256(challengeStructs[msg.sender].challengeFactor1, challengeStructs[msg.sender].challengeFactor2));\n      LogPaymentRequest(msg.sender, challengeFactor1, challengeFactor2, requestAmount);\n      msg.sender.transfer(requestAmount);\n      return true;\n  }\n  \n  function isExchangeShop(address shopAddress) \n    public \n    constant \n    returns(bool isIndeed)\n  {\n    return challengeStructs[shopAddress].exists;\n  }\n  \n}",
  "sourcePath": "/Users/whittlem/B9lab-ETH-17-Projects/Module_4-Remittance/contracts/Remittance.sol",
  "compiler": {
    "name": "solc",
    "version": "0.4.18+commit.9cf6e910.Emscripten.clang"
  },
  "schemaVersion": "1.0.1",
  "updatedAt": "2017-11-26T11:34:31.064Z"
}