{
  "contractName": "Remittance",
  "abi": [
    {
      "constant": true,
      "inputs": [
        {
          "name": "shop",
          "type": "address"
        },
        {
          "name": "recipient",
          "type": "address"
        }
      ],
      "name": "getChallengeStruct",
      "outputs": [
        {
          "components": [
            {
              "name": "approvedAmount",
              "type": "uint256"
            },
            {
              "name": "challengeFactor1",
              "type": "bytes32"
            },
            {
              "name": "challengeFactor2",
              "type": "bytes32"
            },
            {
              "name": "lastValidBlock",
              "type": "uint256"
            },
            {
              "name": "isPaid",
              "type": "bool"
            }
          ],
          "name": "challengeStruct",
          "type": "tuple"
        }
      ],
      "payable": false,
      "stateMutability": "view",
      "type": "function"
    },
    {
      "constant": false,
      "inputs": [],
      "name": "kill",
      "outputs": [],
      "payable": false,
      "stateMutability": "nonpayable",
      "type": "function"
    },
    {
      "constant": false,
      "inputs": [],
      "name": "pauseContract",
      "outputs": [
        {
          "name": "success",
          "type": "bool"
        }
      ],
      "payable": false,
      "stateMutability": "nonpayable",
      "type": "function"
    },
    {
      "constant": true,
      "inputs": [],
      "name": "challengeMaxTimeout",
      "outputs": [
        {
          "name": "",
          "type": "uint256"
        }
      ],
      "payable": false,
      "stateMutability": "view",
      "type": "function"
    },
    {
      "constant": false,
      "inputs": [],
      "name": "startContract",
      "outputs": [
        {
          "name": "success",
          "type": "bool"
        }
      ],
      "payable": false,
      "stateMutability": "nonpayable",
      "type": "function"
    },
    {
      "constant": false,
      "inputs": [
        {
          "name": "recipient",
          "type": "address"
        }
      ],
      "name": "killAndTransfer",
      "outputs": [],
      "payable": false,
      "stateMutability": "nonpayable",
      "type": "function"
    },
    {
      "constant": true,
      "inputs": [],
      "name": "getOwner",
      "outputs": [
        {
          "name": "theOwner",
          "type": "address"
        }
      ],
      "payable": false,
      "stateMutability": "view",
      "type": "function"
    },
    {
      "constant": false,
      "inputs": [
        {
          "name": "newOwner",
          "type": "address"
        }
      ],
      "name": "changeOwner",
      "outputs": [
        {
          "name": "transferSuccess",
          "type": "bool"
        }
      ],
      "payable": false,
      "stateMutability": "nonpayable",
      "type": "function"
    },
    {
      "constant": true,
      "inputs": [],
      "name": "isPaused",
      "outputs": [
        {
          "name": "isIndeed",
          "type": "bool"
        }
      ],
      "payable": false,
      "stateMutability": "view",
      "type": "function"
    },
    {
      "constant": false,
      "inputs": [
        {
          "name": "approvedAmount",
          "type": "uint256"
        },
        {
          "name": "shop",
          "type": "address"
        },
        {
          "name": "password1",
          "type": "bytes32"
        },
        {
          "name": "recipient",
          "type": "address"
        },
        {
          "name": "password2",
          "type": "bytes32"
        }
      ],
      "name": "createRemittance",
      "outputs": [
        {
          "name": "success",
          "type": "bool"
        }
      ],
      "payable": false,
      "stateMutability": "nonpayable",
      "type": "function"
    },
    {
      "constant": false,
      "inputs": [],
      "name": "depositFunds",
      "outputs": [
        {
          "name": "success",
          "type": "bool"
        }
      ],
      "payable": true,
      "stateMutability": "payable",
      "type": "function"
    },
    {
      "constant": false,
      "inputs": [
        {
          "name": "recipient",
          "type": "address"
        },
        {
          "name": "shopPasswordHash",
          "type": "bytes32"
        },
        {
          "name": "recipientPasswordHash",
          "type": "bytes32"
        },
        {
          "name": "requestAmount",
          "type": "uint256"
        }
      ],
      "name": "sendRemittance",
      "outputs": [
        {
          "name": "success",
          "type": "bool"
        }
      ],
      "payable": false,
      "stateMutability": "nonpayable",
      "type": "function"
    },
    {
      "inputs": [
        {
          "name": "numBlocksUntilTimeout",
          "type": "uint256"
        }
      ],
      "payable": false,
      "stateMutability": "nonpayable",
      "type": "constructor"
    },
    {
      "anonymous": false,
      "inputs": [
        {
          "indexed": false,
          "name": "sender",
          "type": "address"
        },
        {
          "indexed": false,
          "name": "approvedAmount",
          "type": "uint256"
        },
        {
          "indexed": false,
          "name": "shop",
          "type": "address"
        },
        {
          "indexed": false,
          "name": "recipient",
          "type": "address"
        },
        {
          "indexed": false,
          "name": "currentBlock",
          "type": "uint256"
        },
        {
          "indexed": false,
          "name": "lastValidBlock",
          "type": "uint256"
        }
      ],
      "name": "LogCreateRemittance",
      "type": "event"
    },
    {
      "anonymous": false,
      "inputs": [
        {
          "indexed": false,
          "name": "sender",
          "type": "address"
        },
        {
          "indexed": false,
          "name": "recipient",
          "type": "address"
        },
        {
          "indexed": false,
          "name": "requestAmount",
          "type": "uint256"
        }
      ],
      "name": "LogPaymentRequest",
      "type": "event"
    },
    {
      "anonymous": false,
      "inputs": [
        {
          "indexed": false,
          "name": "sender",
          "type": "address"
        },
        {
          "indexed": false,
          "name": "recipient",
          "type": "address"
        },
        {
          "indexed": false,
          "name": "balance",
          "type": "uint256"
        }
      ],
      "name": "LogKill",
      "type": "event"
    },
    {
      "anonymous": false,
      "inputs": [
        {
          "indexed": false,
          "name": "sender",
          "type": "address"
        }
      ],
      "name": "LogContractPause",
      "type": "event"
    },
    {
      "anonymous": false,
      "inputs": [
        {
          "indexed": false,
          "name": "sender",
          "type": "address"
        }
      ],
      "name": "LogContractResume",
      "type": "event"
    },
    {
      "anonymous": false,
      "inputs": [
        {
          "indexed": false,
          "name": "oldOwner",
          "type": "address"
        },
        {
          "indexed": false,
          "name": "newOwner",
          "type": "address"
        }
      ],
      "name": "LogNewOwner",
      "type": "event"
    }
  ],
  "bytecode": "0x6060604052341561000f57600080fd5b60405160208061118483398101604052808051906020019091905050336000806101000a81548173ffffffffffffffffffffffffffffffffffffffff021916908373ffffffffffffffffffffffffffffffffffffffff16021790555060008111151561007a57600080fd5b80600281905550506110f3806100916000396000f3006060604052600436106100b9576000357c0100000000000000000000000000000000000000000000000000000000900463ffffffff168062a419ee146100be57806341c0e1b51461012a578063439766ce1461013f5780634d5217091461016c5780635fb02f4d146101955780636368e928146101c2578063893d20e8146101fb578063a6f9dae114610250578063b187bd26146102a1578063b22adc0c146102ce578063e2c41dbc14610361578063edc6d7e814610383575b600080fd5b34156100c957600080fd5b610114600480803573ffffffffffffffffffffffffffffffffffffffff1690602001909190803573ffffffffffffffffffffffffffffffffffffffff169060200190919050506103f7565b6040518082815260200191505060405180910390f35b341561013557600080fd5b61013d6104e2565b005b341561014a57600080fd5b610152610613565b604051808215151515815260200191505060405180910390f35b341561017757600080fd5b61017f6106f5565b6040518082815260200191505060405180910390f35b34156101a057600080fd5b6101a86106fb565b604051808215151515815260200191505060405180910390f35b34156101cd57600080fd5b6101f9600480803573ffffffffffffffffffffffffffffffffffffffff169060200190919050506107dc565b005b341561020657600080fd5b61020e61092b565b604051808273ffffffffffffffffffffffffffffffffffffffff1673ffffffffffffffffffffffffffffffffffffffff16815260200191505060405180910390f35b341561025b57600080fd5b610287600480803573ffffffffffffffffffffffffffffffffffffffff16906020019091905050610954565b604051808215151515815260200191505060405180910390f35b34156102ac57600080fd5b6102b4610b13565b604051808215151515815260200191505060405180910390f35b34156102d957600080fd5b610347600480803590602001909190803573ffffffffffffffffffffffffffffffffffffffff169060200190919080356000191690602001909190803573ffffffffffffffffffffffffffffffffffffffff1690602001909190803560001916906020019091905050610b29565b604051808215151515815260200191505060405180910390f35b610369610dfd565b604051808215151515815260200191505060405180910390f35b341561038e57600080fd5b6103dd600480803573ffffffffffffffffffffffffffffffffffffffff169060200190919080356000191690602001909190803560001916906020019091908035906020019091905050610e70565b604051808215151515815260200191505060405180910390f35b6103ff61108f565b600160008473ffffffffffffffffffffffffffffffffffffffff1673ffffffffffffffffffffffffffffffffffffffff16815260200190815260200160002060008373ffffffffffffffffffffffffffffffffffffffff1673ffffffffffffffffffffffffffffffffffffffff16815260200190815260200160002060a0604051908101604052908160008201548152602001600182015460001916600019168152602001600282015460001916600019168152602001600382015481526020016004820160009054906101000a900460ff161515151581525050905092915050565b6000809054906101000a900473ffffffffffffffffffffffffffffffffffffffff1673ffffffffffffffffffffffffffffffffffffffff163373ffffffffffffffffffffffffffffffffffffffff1614151561053d57600080fd5b7f8be15dba7f503063bb0bc2a47e9af814cfc3c11b0cac0025223c99be306c6e1633333073ffffffffffffffffffffffffffffffffffffffff1631604051808473ffffffffffffffffffffffffffffffffffffffff1673ffffffffffffffffffffffffffffffffffffffff1681526020018373ffffffffffffffffffffffffffffffffffffffff1673ffffffffffffffffffffffffffffffffffffffff168152602001828152602001935050505060405180910390a16105fb61092b565b73ffffffffffffffffffffffffffffffffffffffff16ff5b60008060009054906101000a900473ffffffffffffffffffffffffffffffffffffffff1673ffffffffffffffffffffffffffffffffffffffff163373ffffffffffffffffffffffffffffffffffffffff1614151561067057600080fd5b6001600060146101000a81548160ff0219169083151502179055507f9022f48034574f88d5dde439a5da7ebc25082f77761e9d1db4915cea52ade9dc33604051808273ffffffffffffffffffffffffffffffffffffffff1673ffffffffffffffffffffffffffffffffffffffff16815260200191505060405180910390a16001905090565b60025481565b60008060009054906101000a900473ffffffffffffffffffffffffffffffffffffffff1673ffffffffffffffffffffffffffffffffffffffff163373ffffffffffffffffffffffffffffffffffffffff1614151561075857600080fd5b60008060146101000a81548160ff0219169083151502179055507fa8ddc33bcc81d4475dfdcb2c883e97be008d608cc0c8a48aa5a8d1076b99654433604051808273ffffffffffffffffffffffffffffffffffffffff1673ffffffffffffffffffffffffffffffffffffffff16815260200191505060405180910390a16001905090565b6000809054906101000a900473ffffffffffffffffffffffffffffffffffffffff1673ffffffffffffffffffffffffffffffffffffffff163373ffffffffffffffffffffffffffffffffffffffff1614151561083757600080fd5b60008173ffffffffffffffffffffffffffffffffffffffff1611151561085c57600080fd5b7f8be15dba7f503063bb0bc2a47e9af814cfc3c11b0cac0025223c99be306c6e1633823073ffffffffffffffffffffffffffffffffffffffff1631604051808473ffffffffffffffffffffffffffffffffffffffff1673ffffffffffffffffffffffffffffffffffffffff1681526020018373ffffffffffffffffffffffffffffffffffffffff1673ffffffffffffffffffffffffffffffffffffffff168152602001828152602001935050505060405180910390a18073ffffffffffffffffffffffffffffffffffffffff16ff5b60008060009054906101000a900473ffffffffffffffffffffffffffffffffffffffff16905090565b60008060009054906101000a900473ffffffffffffffffffffffffffffffffffffffff1673ffffffffffffffffffffffffffffffffffffffff163373ffffffffffffffffffffffffffffffffffffffff161415156109b157600080fd5b60008273ffffffffffffffffffffffffffffffffffffffff16141515156109d757600080fd5b3373ffffffffffffffffffffffffffffffffffffffff168273ffffffffffffffffffffffffffffffffffffffff1614151515610a1257600080fd5b7f1f8d7d25344642d919d55999e4664aa452a5f424bc0936ceb9c2b300db7dcbd96000809054906101000a900473ffffffffffffffffffffffffffffffffffffffff1683604051808373ffffffffffffffffffffffffffffffffffffffff1673ffffffffffffffffffffffffffffffffffffffff1681526020018273ffffffffffffffffffffffffffffffffffffffff1673ffffffffffffffffffffffffffffffffffffffff1681526020019250505060405180910390a1816000806101000a81548173ffffffffffffffffffffffffffffffffffffffff021916908373ffffffffffffffffffffffffffffffffffffffff16021790555060019050919050565b60008060149054906101000a900460ff16905090565b6000806000809054906101000a900473ffffffffffffffffffffffffffffffffffffffff1673ffffffffffffffffffffffffffffffffffffffff163373ffffffffffffffffffffffffffffffffffffffff16141515610b8757600080fd5b600087111515610b9657600080fd5b60008673ffffffffffffffffffffffffffffffffffffffff1614151515610bbc57600080fd5b6000600102856000191614151515610bd357600080fd5b60008473ffffffffffffffffffffffffffffffffffffffff1614151515610bf957600080fd5b6000600102836000191614151515610c1057600080fd5b600160008773ffffffffffffffffffffffffffffffffffffffff1673ffffffffffffffffffffffffffffffffffffffff16815260200190815260200160002060008573ffffffffffffffffffffffffffffffffffffffff1673ffffffffffffffffffffffffffffffffffffffff1681526020019081526020016000209050868160000181905550846040518082600019166000191681526020019150506040518091039020816001018160001916905550826040518082600019166000191681526020019150506040518091039020816002018160001916905550610d006002544361107190919063ffffffff16565b81600301819055507fc98c24f785b4b628ba7abab7abfe2979a02cbe0f9a83d3984d7b6b93254f756d33888887438660030154604051808773ffffffffffffffffffffffffffffffffffffffff1673ffffffffffffffffffffffffffffffffffffffff1681526020018681526020018573ffffffffffffffffffffffffffffffffffffffff1673ffffffffffffffffffffffffffffffffffffffff1681526020018473ffffffffffffffffffffffffffffffffffffffff1673ffffffffffffffffffffffffffffffffffffffff168152602001838152602001828152602001965050505050505060405180910390a1600191505095945050505050565b60008060009054906101000a900473ffffffffffffffffffffffffffffffffffffffff1673ffffffffffffffffffffffffffffffffffffffff163373ffffffffffffffffffffffffffffffffffffffff16141515610e5a57600080fd5b600034111515610e6957600080fd5b6001905090565b600080600160003373ffffffffffffffffffffffffffffffffffffffff1673ffffffffffffffffffffffffffffffffffffffff16815260200190815260200160002060008773ffffffffffffffffffffffffffffffffffffffff1673ffffffffffffffffffffffffffffffffffffffff16815260200190815260200160002090508060040160009054906101000a900460ff16151515610f0f57600080fd5b8060010154600019168560001916141515610f2957600080fd5b8060020154600019168460001916141515610f4357600080fd5b806000015483141515610f5557600080fd5b80600301544311151515610f6857600080fd5b60018160040160006101000a81548160ff0219169083151502179055507f6c1aa1731d43a74dbe467510ae0efefbce4839fc11c4059be6df4f1bd8f043fb338785604051808473ffffffffffffffffffffffffffffffffffffffff1673ffffffffffffffffffffffffffffffffffffffff1681526020018373ffffffffffffffffffffffffffffffffffffffff1673ffffffffffffffffffffffffffffffffffffffff168152602001828152602001935050505060405180910390a13373ffffffffffffffffffffffffffffffffffffffff166108fc849081150290604051600060405180830381858888f19350505050151561106457600080fd5b6001915050949350505050565b600080828401905083811015151561108557fe5b8091505092915050565b60a0604051908101604052806000815260200160008019168152602001600080191681526020016000815260200160001515815250905600a165627a7a72305820d8bac816ddce28c9531b79a149c2a934c54c235bd6dafca0d5fcb227b587c6c30029",
  "source": "pragma solidity ^0.4.18;\n\nimport '../contractLibrary/contracts/SafeMath.sol';\nimport '../contractLibrary/contracts/contractModifiers/Killable.sol';\n\ncontract Remittance is Killable {\n\n    using SafeMath for uint256;\n  \n    struct ChallengeStruct {\n        uint    approvedAmount;\n        bytes32 challengeFactor1;\n        bytes32 challengeFactor2;\n        uint    lastValidBlock;\n        bool    isPaid;\n    }\n\n    // shop address -> recipient address -> struct\n    mapping(address => mapping(address => ChallengeStruct)) private challengeStructs;\n\n    uint public challengeMaxTimeout;\n\n    event LogCreateRemittance(address sender, uint approvedAmount, address shop, address recipient, uint currentBlock, uint lastValidBlock);\n    event LogPaymentRequest(address sender, address recipient, uint requestAmount);\n\n    function Remittance(uint numBlocksUntilTimeout)\n        public\n    {\n        require(numBlocksUntilTimeout > 0);\n        challengeMaxTimeout = numBlocksUntilTimeout;\n    }\n    \n    function depositFunds() \n        public\n        onlyOwner\n        payable\n        returns(bool success)\n    {\n        require(msg.value > 0);\n        return true;\n    }\n  \n    function createRemittance(uint approvedAmount, address shop, bytes32 password1, address recipient, bytes32 password2)\n        public\n        onlyOwner\n        returns(bool success)\n    {\n        require(approvedAmount > 0);\n        require(shop != 0);\n        require(password1 != 0);\n        require(recipient != 0);\n        require(password2 != 0);\n        ChallengeStruct storage challenge = challengeStructs[shop][recipient];\n        challenge.approvedAmount = approvedAmount;\n        challenge.challengeFactor1 = keccak256(password1);\n        challenge.challengeFactor2 = keccak256(password2);\n        challenge.lastValidBlock = block.number.add(challengeMaxTimeout);\n        LogCreateRemittance(msg.sender, approvedAmount, shop, recipient, block.number, challenge.lastValidBlock);\n        return true;\n    }\n    \n    function sendRemittance(address recipient, bytes32 shopPasswordHash, bytes32 recipientPasswordHash, uint requestAmount)\n        public\n        returns(bool success)\n    {\n        ChallengeStruct storage challenge = challengeStructs[msg.sender][recipient];\n        require(!challenge.isPaid);\n        require(shopPasswordHash == challenge.challengeFactor1);\n        require(recipientPasswordHash == challenge.challengeFactor2);\n        require(requestAmount == challenge.approvedAmount);\n        require(block.number <= challenge.lastValidBlock);\n        challenge.isPaid = true;\n        LogPaymentRequest(msg.sender, recipient, requestAmount);\n        msg.sender.transfer(requestAmount);\n        return true;   \n    }\n    \n    /** Getters */\n    \n    function getChallengeStruct(address shop, address recipient)\n        public\n        view\n        returns(ChallengeStruct challengeStruct)\n    {\n        return challengeStructs[shop][recipient];\n    }\n  \n}\n",
  "sourcePath": "/Users/whittlem/B9lab-ETH-17-Projects/Module_4-Remittance/contracts/Remittance.sol",
  "compiler": {
    "name": "solc",
    "version": "0.4.18+commit.9cf6e910.Emscripten.clang"
  },
  "schemaVersion": "1.0.1",
  "updatedAt": "2017-12-02T21:30:23.565Z"
}