{
  "contractName": "Remittance",
  "abi": [
    {
      "constant": false,
      "inputs": [
        {
          "name": "recipient",
          "type": "address"
        },
        {
          "name": "unlockHash",
          "type": "bytes32"
        }
      ],
      "name": "requestWithdraw",
      "outputs": [
        {
          "name": "success",
          "type": "bool"
        }
      ],
      "payable": false,
      "stateMutability": "nonpayable",
      "type": "function"
    },
    {
      "constant": false,
      "inputs": [],
      "name": "kill",
      "outputs": [],
      "payable": false,
      "stateMutability": "nonpayable",
      "type": "function"
    },
    {
      "constant": false,
      "inputs": [],
      "name": "pauseContract",
      "outputs": [
        {
          "name": "success",
          "type": "bool"
        }
      ],
      "payable": false,
      "stateMutability": "nonpayable",
      "type": "function"
    },
    {
      "constant": false,
      "inputs": [],
      "name": "startContract",
      "outputs": [
        {
          "name": "success",
          "type": "bool"
        }
      ],
      "payable": false,
      "stateMutability": "nonpayable",
      "type": "function"
    },
    {
      "constant": false,
      "inputs": [
        {
          "name": "recipient",
          "type": "address"
        }
      ],
      "name": "killAndTransfer",
      "outputs": [],
      "payable": false,
      "stateMutability": "nonpayable",
      "type": "function"
    },
    {
      "constant": false,
      "inputs": [
        {
          "name": "approvedAmount",
          "type": "uint256"
        },
        {
          "name": "shop",
          "type": "address"
        },
        {
          "name": "shopPassword",
          "type": "bytes32"
        },
        {
          "name": "recipient",
          "type": "address"
        },
        {
          "name": "recipientPassword",
          "type": "bytes32"
        }
      ],
      "name": "sendRemittance",
      "outputs": [
        {
          "name": "success",
          "type": "bool"
        }
      ],
      "payable": false,
      "stateMutability": "nonpayable",
      "type": "function"
    },
    {
      "constant": true,
      "inputs": [
        {
          "name": "unlockHash",
          "type": "bytes32"
        }
      ],
      "name": "getChallengeStruct",
      "outputs": [
        {
          "components": [
            {
              "name": "approvedAmount",
              "type": "uint256"
            },
            {
              "name": "lastValidBlock",
              "type": "uint256"
            },
            {
              "name": "isPaid",
              "type": "bool"
            }
          ],
          "name": "challengeStruct",
          "type": "tuple"
        }
      ],
      "payable": false,
      "stateMutability": "view",
      "type": "function"
    },
    {
      "constant": true,
      "inputs": [],
      "name": "getOwner",
      "outputs": [
        {
          "name": "theOwner",
          "type": "address"
        }
      ],
      "payable": false,
      "stateMutability": "view",
      "type": "function"
    },
    {
      "constant": true,
      "inputs": [
        {
          "name": "recipientAddress",
          "type": "address"
        },
        {
          "name": "shopPassword",
          "type": "bytes32"
        },
        {
          "name": "recipientPassword",
          "type": "bytes32"
        }
      ],
      "name": "createHash",
      "outputs": [
        {
          "name": "hash",
          "type": "bytes32"
        }
      ],
      "payable": false,
      "stateMutability": "pure",
      "type": "function"
    },
    {
      "constant": false,
      "inputs": [
        {
          "name": "newOwner",
          "type": "address"
        }
      ],
      "name": "changeOwner",
      "outputs": [
        {
          "name": "transferSuccess",
          "type": "bool"
        }
      ],
      "payable": false,
      "stateMutability": "nonpayable",
      "type": "function"
    },
    {
      "constant": true,
      "inputs": [],
      "name": "isPaused",
      "outputs": [
        {
          "name": "isIndeed",
          "type": "bool"
        }
      ],
      "payable": false,
      "stateMutability": "view",
      "type": "function"
    },
    {
      "constant": false,
      "inputs": [],
      "name": "depositFunds",
      "outputs": [
        {
          "name": "success",
          "type": "bool"
        }
      ],
      "payable": true,
      "stateMutability": "payable",
      "type": "function"
    },
    {
      "constant": true,
      "inputs": [],
      "name": "numBlocksUntilTimeout",
      "outputs": [
        {
          "name": "",
          "type": "uint256"
        }
      ],
      "payable": false,
      "stateMutability": "view",
      "type": "function"
    },
    {
      "inputs": [
        {
          "name": "_numBlocksUntilTimeout",
          "type": "uint256"
        }
      ],
      "payable": false,
      "stateMutability": "nonpayable",
      "type": "constructor"
    },
    {
      "anonymous": false,
      "inputs": [
        {
          "indexed": true,
          "name": "sender",
          "type": "address"
        },
        {
          "indexed": true,
          "name": "deposit",
          "type": "uint256"
        },
        {
          "indexed": true,
          "name": "balance",
          "type": "uint256"
        }
      ],
      "name": "LogDeposit",
      "type": "event"
    },
    {
      "anonymous": false,
      "inputs": [
        {
          "indexed": false,
          "name": "sender",
          "type": "address"
        },
        {
          "indexed": true,
          "name": "approvedAmount",
          "type": "uint256"
        },
        {
          "indexed": true,
          "name": "shop",
          "type": "address"
        },
        {
          "indexed": true,
          "name": "recipient",
          "type": "address"
        },
        {
          "indexed": false,
          "name": "currentBlock",
          "type": "uint256"
        },
        {
          "indexed": false,
          "name": "lastValidBlock",
          "type": "uint256"
        }
      ],
      "name": "LogSendRemittance",
      "type": "event"
    },
    {
      "anonymous": false,
      "inputs": [
        {
          "indexed": true,
          "name": "sender",
          "type": "address"
        },
        {
          "indexed": true,
          "name": "recipient",
          "type": "address"
        },
        {
          "indexed": true,
          "name": "requestAmount",
          "type": "uint256"
        }
      ],
      "name": "LogWithdrawRequest",
      "type": "event"
    },
    {
      "anonymous": false,
      "inputs": [
        {
          "indexed": false,
          "name": "sender",
          "type": "address"
        },
        {
          "indexed": false,
          "name": "recipient",
          "type": "address"
        },
        {
          "indexed": false,
          "name": "balance",
          "type": "uint256"
        }
      ],
      "name": "LogKill",
      "type": "event"
    },
    {
      "anonymous": false,
      "inputs": [
        {
          "indexed": false,
          "name": "sender",
          "type": "address"
        }
      ],
      "name": "LogContractPause",
      "type": "event"
    },
    {
      "anonymous": false,
      "inputs": [
        {
          "indexed": false,
          "name": "sender",
          "type": "address"
        }
      ],
      "name": "LogContractResume",
      "type": "event"
    },
    {
      "anonymous": false,
      "inputs": [
        {
          "indexed": false,
          "name": "oldOwner",
          "type": "address"
        },
        {
          "indexed": false,
          "name": "newOwner",
          "type": "address"
        }
      ],
      "name": "LogNewOwner",
      "type": "event"
    }
  ],
  "bytecode": "0x6060604052341561000f57600080fd5b60405160208061114c83398101604052808051906020019091905050336000806101000a81548173ffffffffffffffffffffffffffffffffffffffff021916908373ffffffffffffffffffffffffffffffffffffffff16021790555060008111151561007a57600080fd5b80600181905550506110bb806100916000396000f3006060604052600436106100c5576000357c0100000000000000000000000000000000000000000000000000000000900463ffffffff1680632b9342d6146100ca57806341c0e1b514610128578063439766ce1461013d5780635fb02f4d1461016a5780636368e92814610197578063688040cf146101d057806380f731ec14610263578063893d20e81461029e5780638ba7e7f2146102f3578063a6f9dae114610362578063b187bd26146103b3578063e2c41dbc146103e0578063ebe2428e14610402575b600080fd5b34156100d557600080fd5b61010e600480803573ffffffffffffffffffffffffffffffffffffffff169060200190919080356000191690602001909190505061042b565b604051808215151515815260200191505060405180910390f35b341561013357600080fd5b61013b610621565b005b341561014857600080fd5b610150610752565b604051808215151515815260200191505060405180910390f35b341561017557600080fd5b61017d610834565b604051808215151515815260200191505060405180910390f35b34156101a257600080fd5b6101ce600480803573ffffffffffffffffffffffffffffffffffffffff16906020019091905050610915565b005b34156101db57600080fd5b610249600480803590602001909190803573ffffffffffffffffffffffffffffffffffffffff169060200190919080356000191690602001909190803573ffffffffffffffffffffffffffffffffffffffff1690602001909190803560001916906020019091905050610a64565b604051808215151515815260200191505060405180910390f35b341561026e57600080fd5b610288600480803560001916906020019091905050610cf8565b6040518082815260200191505060405180910390f35b34156102a957600080fd5b6102b1610d5d565b604051808273ffffffffffffffffffffffffffffffffffffffff1673ffffffffffffffffffffffffffffffffffffffff16815260200191505060405180910390f35b34156102fe57600080fd5b610344600480803573ffffffffffffffffffffffffffffffffffffffff169060200190919080356000191690602001909190803560001916906020019091905050610d86565b60405180826000191660001916815260200191505060405180910390f35b341561036d57600080fd5b610399600480803573ffffffffffffffffffffffffffffffffffffffff16906020019091905050610e02565b604051808215151515815260200191505060405180910390f35b34156103be57600080fd5b6103c6610fc1565b604051808215151515815260200191505060405180910390f35b6103e8610fd7565b604051808215151515815260200191505060405180910390f35b341561040d57600080fd5b610415611047565b6040518082815260200191505060405180910390f35b600061043561106b565b60008473ffffffffffffffffffffffffffffffffffffffff161415151561045b57600080fd5b600060010283600019161415151561047257600080fd5b6002600084600019166000191681526020019081526020016000206060604051908101604052908160008201548152602001600182015481526020016002820160009054906101000a900460ff161515151581525050905080604001511515156104d857fe5b806020015143111515156104e857fe5b3073ffffffffffffffffffffffffffffffffffffffff163181600001511115151561050f57fe5b600181604001901515908115158152505080600260008560001916600019168152602001908152602001600020600082015181600001556020820151816001015560408201518160020160006101000a81548160ff02191690831515021790555090505080600001518473ffffffffffffffffffffffffffffffffffffffff163373ffffffffffffffffffffffffffffffffffffffff167f179712cf3ecdca1ff1498eb2cb0f113ae103972a75b2a3c008335f78e3ecc7a060405160405180910390a43373ffffffffffffffffffffffffffffffffffffffff166108fc82600001519081150290604051600060405180830381858888f19350505050151561061657600080fd5b600191505092915050565b6000809054906101000a900473ffffffffffffffffffffffffffffffffffffffff1673ffffffffffffffffffffffffffffffffffffffff163373ffffffffffffffffffffffffffffffffffffffff1614151561067c57600080fd5b7f8be15dba7f503063bb0bc2a47e9af814cfc3c11b0cac0025223c99be306c6e1633333073ffffffffffffffffffffffffffffffffffffffff1631604051808473ffffffffffffffffffffffffffffffffffffffff1673ffffffffffffffffffffffffffffffffffffffff1681526020018373ffffffffffffffffffffffffffffffffffffffff1673ffffffffffffffffffffffffffffffffffffffff168152602001828152602001935050505060405180910390a161073a610d5d565b73ffffffffffffffffffffffffffffffffffffffff16ff5b60008060009054906101000a900473ffffffffffffffffffffffffffffffffffffffff1673ffffffffffffffffffffffffffffffffffffffff163373ffffffffffffffffffffffffffffffffffffffff161415156107af57600080fd5b6001600060146101000a81548160ff0219169083151502179055507f9022f48034574f88d5dde439a5da7ebc25082f77761e9d1db4915cea52ade9dc33604051808273ffffffffffffffffffffffffffffffffffffffff1673ffffffffffffffffffffffffffffffffffffffff16815260200191505060405180910390a16001905090565b60008060009054906101000a900473ffffffffffffffffffffffffffffffffffffffff1673ffffffffffffffffffffffffffffffffffffffff163373ffffffffffffffffffffffffffffffffffffffff1614151561089157600080fd5b60008060146101000a81548160ff0219169083151502179055507fa8ddc33bcc81d4475dfdcb2c883e97be008d608cc0c8a48aa5a8d1076b99654433604051808273ffffffffffffffffffffffffffffffffffffffff1673ffffffffffffffffffffffffffffffffffffffff16815260200191505060405180910390a16001905090565b6000809054906101000a900473ffffffffffffffffffffffffffffffffffffffff1673ffffffffffffffffffffffffffffffffffffffff163373ffffffffffffffffffffffffffffffffffffffff1614151561097057600080fd5b60008173ffffffffffffffffffffffffffffffffffffffff1611151561099557600080fd5b7f8be15dba7f503063bb0bc2a47e9af814cfc3c11b0cac0025223c99be306c6e1633823073ffffffffffffffffffffffffffffffffffffffff1631604051808473ffffffffffffffffffffffffffffffffffffffff1673ffffffffffffffffffffffffffffffffffffffff1681526020018373ffffffffffffffffffffffffffffffffffffffff1673ffffffffffffffffffffffffffffffffffffffff168152602001828152602001935050505060405180910390a18073ffffffffffffffffffffffffffffffffffffffff16ff5b600080610a6f61106b565b6000809054906101000a900473ffffffffffffffffffffffffffffffffffffffff1673ffffffffffffffffffffffffffffffffffffffff163373ffffffffffffffffffffffffffffffffffffffff16141515610aca57600080fd5b600088111515610ad957600080fd5b60008773ffffffffffffffffffffffffffffffffffffffff1614151515610aff57600080fd5b6000600102866000191614151515610b1657600080fd5b60008573ffffffffffffffffffffffffffffffffffffffff1614151515610b3c57600080fd5b6000600102846000191614151515610b5357600080fd5b610b5e858786610d86565b91506002600083600019166000191681526020019081526020016000206060604051908101604052908160008201548152602001600182015481526020016002820160009054906101000a900460ff161515151581525050905060008160200151141515610bc857fe5b87816000018181525050610be76001544361104d90919063ffffffff16565b81602001818152505080600260008460001916600019168152602001908152602001600020600082015181600001556020820151816001015560408201518160020160006101000a81548160ff0219169083151502179055509050508473ffffffffffffffffffffffffffffffffffffffff168773ffffffffffffffffffffffffffffffffffffffff16897fe9667687a56555bef58fe530ea6bfaec35f95d278bc20397a0156e896f9adfd933438660200151604051808473ffffffffffffffffffffffffffffffffffffffff1673ffffffffffffffffffffffffffffffffffffffff168152602001838152602001828152602001935050505060405180910390a460019250505095945050505050565b610d0061106b565b6002600083600019166000191681526020019081526020016000206060604051908101604052908160008201548152602001600182015481526020016002820160009054906101000a900460ff1615151515815250509050919050565b60008060009054906101000a900473ffffffffffffffffffffffffffffffffffffffff16905090565b6000838383604051808473ffffffffffffffffffffffffffffffffffffffff1673ffffffffffffffffffffffffffffffffffffffff166c01000000000000000000000000028152601401836000191660001916815260200182600019166000191681526020019350505050604051809103902090509392505050565b60008060009054906101000a900473ffffffffffffffffffffffffffffffffffffffff1673ffffffffffffffffffffffffffffffffffffffff163373ffffffffffffffffffffffffffffffffffffffff16141515610e5f57600080fd5b60008273ffffffffffffffffffffffffffffffffffffffff1614151515610e8557600080fd5b3373ffffffffffffffffffffffffffffffffffffffff168273ffffffffffffffffffffffffffffffffffffffff1614151515610ec057600080fd5b7f1f8d7d25344642d919d55999e4664aa452a5f424bc0936ceb9c2b300db7dcbd96000809054906101000a900473ffffffffffffffffffffffffffffffffffffffff1683604051808373ffffffffffffffffffffffffffffffffffffffff1673ffffffffffffffffffffffffffffffffffffffff1681526020018273ffffffffffffffffffffffffffffffffffffffff1673ffffffffffffffffffffffffffffffffffffffff1681526020019250505060405180910390a1816000806101000a81548173ffffffffffffffffffffffffffffffffffffffff021916908373ffffffffffffffffffffffffffffffffffffffff16021790555060019050919050565b60008060149054906101000a900460ff16905090565b60008034111515610fe457fe5b3073ffffffffffffffffffffffffffffffffffffffff1631343373ffffffffffffffffffffffffffffffffffffffff167f9dbb0e7dda3e09710ce75b801addc87cf9d9c6c581641b3275fca409ad086c6260405160405180910390a46001905090565b60015481565b600080828401905083811015151561106157fe5b8091505092915050565b606060405190810160405280600081526020016000815260200160001515815250905600a165627a7a72305820fa9d47430ba765132f9e67081abf6835f68e65e7575dc1dec67929b2c473f2800029",
  "source": "pragma solidity ^0.4.18;\n\nimport '../contractLibrary/contracts/SafeMath.sol';\nimport '../contractLibrary/contracts/contractModifiers/Killable.sol';\n\ncontract Remittance is Killable {\n\n    using SafeMath for uint256;\n\n    struct ChallengeStruct {\n        uint    approvedAmount;\n        uint    lastValidBlock;\n        bool    isPaid;\n    }\n\n    uint public numBlocksUntilTimeout;\n\n    mapping(bytes32 => ChallengeStruct) private challengeStructs;\n  \n    event LogDeposit(address indexed sender, uint indexed deposit, uint indexed balance);\n    event LogSendRemittance(address sender, uint indexed approvedAmount, address indexed shop, address indexed recipient, uint currentBlock, uint lastValidBlock);\n    event LogWithdrawRequest(address indexed sender, address indexed recipient, uint indexed requestAmount);\n    \n    function Remittance(uint _numBlocksUntilTimeout)\n        public\n    {\n        require(_numBlocksUntilTimeout > 0);\n        numBlocksUntilTimeout = _numBlocksUntilTimeout;\n    }\n\n    function depositFunds() \n        public\n        payable\n        returns(bool success)\n    {\n        assert(msg.value > 0);\n        LogDeposit(msg.sender, msg.value, this.balance);\n        return true;\n    }\n\n    function sendRemittance(uint approvedAmount, address shop, bytes32 shopPassword, address recipient, bytes32 recipientPassword)\n        public\n        onlyOwner\n        returns(bool success)\n    {\n        require(approvedAmount > 0);\n        require(shop != 0x0);\n        require(shopPassword != 0);\n        require(recipient != 0x0);\n        require(recipientPassword != 0);\n\n        bytes32 structHash = createHash(recipient, shopPassword, recipientPassword);\n\n        ChallengeStruct memory challenge = challengeStructs[structHash];\n        assert(challenge.lastValidBlock == 0); // allow password hash combination once\n        challenge.approvedAmount = approvedAmount;\n        challenge.lastValidBlock = block.number.add(numBlocksUntilTimeout);\n        challengeStructs[structHash] = challenge;\n\n        LogSendRemittance(msg.sender, approvedAmount, shop, recipient, block.number, challenge.lastValidBlock);\n        return true;\n    }\n\n    function requestWithdraw(address recipient, bytes32 unlockHash)\n        public\n        returns(bool success)\n    {\n        require(recipient != 0x0);\n        require(unlockHash != 0);\n\n        ChallengeStruct memory challenge = challengeStructs[unlockHash];\n        assert(!challenge.isPaid);\n        assert(block.number <= challenge.lastValidBlock);\n        assert(challenge.approvedAmount <= this.balance);\n        challenge.isPaid = true;\n        challengeStructs[unlockHash] = challenge;\n        LogWithdrawRequest(msg.sender, recipient, challenge.approvedAmount);\n        msg.sender.transfer(challenge.approvedAmount);\n        return true;   \n    }\n\n    /** Pure */\n\n    function createHash(address recipientAddress, bytes32 shopPassword, bytes32 recipientPassword)\n        public\n        pure\n        returns(bytes32 hash)\n    {    \n        return keccak256(recipientAddress, shopPassword, recipientPassword);\n    } \n\n    /** Getters */\n    \n    function getChallengeStruct(bytes32 unlockHash)\n        public\n        view\n        returns(ChallengeStruct challengeStruct)\n    {\n        return challengeStructs[unlockHash];\n    }\n  \n}",
  "sourcePath": "/Users/whittlem/B9lab-ETH-17-Projects/Module_4-Remittance/contracts/Remittance.sol",
  "compiler": {
    "name": "solc",
    "version": "0.4.18+commit.9cf6e910.Emscripten.clang"
  },
  "schemaVersion": "1.0.1",
  "updatedAt": "2017-12-26T13:15:25.690Z"
}