{
  "contractName": "Remittance",
  "abi": [
    {
      "constant": false,
      "inputs": [
        {
          "name": "recipientAddress",
          "type": "address"
        },
        {
          "name": "shopPassword",
          "type": "bytes32"
        },
        {
          "name": "recipientPassword",
          "type": "bytes32"
        }
      ],
      "name": "requestWithdraw",
      "outputs": [
        {
          "name": "success",
          "type": "bool"
        }
      ],
      "payable": false,
      "stateMutability": "nonpayable",
      "type": "function"
    },
    {
      "constant": false,
      "inputs": [],
      "name": "kill",
      "outputs": [],
      "payable": false,
      "stateMutability": "nonpayable",
      "type": "function"
    },
    {
      "constant": false,
      "inputs": [],
      "name": "pauseContract",
      "outputs": [
        {
          "name": "success",
          "type": "bool"
        }
      ],
      "payable": false,
      "stateMutability": "nonpayable",
      "type": "function"
    },
    {
      "constant": false,
      "inputs": [],
      "name": "startContract",
      "outputs": [
        {
          "name": "success",
          "type": "bool"
        }
      ],
      "payable": false,
      "stateMutability": "nonpayable",
      "type": "function"
    },
    {
      "constant": false,
      "inputs": [
        {
          "name": "recipient",
          "type": "address"
        }
      ],
      "name": "killAndTransfer",
      "outputs": [],
      "payable": false,
      "stateMutability": "nonpayable",
      "type": "function"
    },
    {
      "constant": true,
      "inputs": [
        {
          "name": "unlockHash",
          "type": "bytes32"
        }
      ],
      "name": "getChallengeStruct",
      "outputs": [
        {
          "components": [
            {
              "name": "approvedAmount",
              "type": "uint256"
            },
            {
              "name": "lastValidBlock",
              "type": "uint256"
            },
            {
              "name": "isPaid",
              "type": "bool"
            }
          ],
          "name": "challengeStruct",
          "type": "tuple"
        }
      ],
      "payable": false,
      "stateMutability": "view",
      "type": "function"
    },
    {
      "constant": true,
      "inputs": [],
      "name": "getOwner",
      "outputs": [
        {
          "name": "theOwner",
          "type": "address"
        }
      ],
      "payable": false,
      "stateMutability": "view",
      "type": "function"
    },
    {
      "constant": true,
      "inputs": [
        {
          "name": "recipientAddress",
          "type": "address"
        },
        {
          "name": "shopPassword",
          "type": "bytes32"
        },
        {
          "name": "recipientPassword",
          "type": "bytes32"
        }
      ],
      "name": "createHash",
      "outputs": [
        {
          "name": "hash",
          "type": "bytes32"
        }
      ],
      "payable": false,
      "stateMutability": "pure",
      "type": "function"
    },
    {
      "constant": false,
      "inputs": [
        {
          "name": "newOwner",
          "type": "address"
        }
      ],
      "name": "changeOwner",
      "outputs": [
        {
          "name": "transferSuccess",
          "type": "bool"
        }
      ],
      "payable": false,
      "stateMutability": "nonpayable",
      "type": "function"
    },
    {
      "constant": true,
      "inputs": [],
      "name": "isPaused",
      "outputs": [
        {
          "name": "isIndeed",
          "type": "bool"
        }
      ],
      "payable": false,
      "stateMutability": "view",
      "type": "function"
    },
    {
      "constant": false,
      "inputs": [
        {
          "name": "approvedAmount",
          "type": "uint256"
        },
        {
          "name": "shop",
          "type": "address"
        },
        {
          "name": "recipient",
          "type": "address"
        },
        {
          "name": "suppliedHash",
          "type": "bytes32"
        }
      ],
      "name": "sendRemittance",
      "outputs": [
        {
          "name": "success",
          "type": "bool"
        }
      ],
      "payable": true,
      "stateMutability": "payable",
      "type": "function"
    },
    {
      "constant": true,
      "inputs": [],
      "name": "numBlocksUntilTimeout",
      "outputs": [
        {
          "name": "",
          "type": "uint256"
        }
      ],
      "payable": false,
      "stateMutability": "view",
      "type": "function"
    },
    {
      "inputs": [
        {
          "name": "_numBlocksUntilTimeout",
          "type": "uint256"
        }
      ],
      "payable": false,
      "stateMutability": "nonpayable",
      "type": "constructor"
    },
    {
      "anonymous": false,
      "inputs": [
        {
          "indexed": true,
          "name": "sender",
          "type": "address"
        },
        {
          "indexed": true,
          "name": "deposit",
          "type": "uint256"
        },
        {
          "indexed": true,
          "name": "balance",
          "type": "uint256"
        }
      ],
      "name": "LogDeposit",
      "type": "event"
    },
    {
      "anonymous": false,
      "inputs": [
        {
          "indexed": false,
          "name": "sender",
          "type": "address"
        },
        {
          "indexed": true,
          "name": "approvedAmount",
          "type": "uint256"
        },
        {
          "indexed": true,
          "name": "shop",
          "type": "address"
        },
        {
          "indexed": true,
          "name": "recipient",
          "type": "address"
        },
        {
          "indexed": false,
          "name": "currentBlock",
          "type": "uint256"
        },
        {
          "indexed": false,
          "name": "lastValidBlock",
          "type": "uint256"
        }
      ],
      "name": "LogSendRemittance",
      "type": "event"
    },
    {
      "anonymous": false,
      "inputs": [
        {
          "indexed": true,
          "name": "requestor",
          "type": "address"
        },
        {
          "indexed": true,
          "name": "requestAmount",
          "type": "uint256"
        }
      ],
      "name": "LogWithdrawRequest",
      "type": "event"
    },
    {
      "anonymous": false,
      "inputs": [
        {
          "indexed": false,
          "name": "sender",
          "type": "address"
        },
        {
          "indexed": false,
          "name": "recipient",
          "type": "address"
        },
        {
          "indexed": false,
          "name": "balance",
          "type": "uint256"
        }
      ],
      "name": "LogKill",
      "type": "event"
    },
    {
      "anonymous": false,
      "inputs": [
        {
          "indexed": false,
          "name": "sender",
          "type": "address"
        }
      ],
      "name": "LogContractPause",
      "type": "event"
    },
    {
      "anonymous": false,
      "inputs": [
        {
          "indexed": false,
          "name": "sender",
          "type": "address"
        }
      ],
      "name": "LogContractResume",
      "type": "event"
    },
    {
      "anonymous": false,
      "inputs": [
        {
          "indexed": false,
          "name": "oldOwner",
          "type": "address"
        },
        {
          "indexed": false,
          "name": "newOwner",
          "type": "address"
        }
      ],
      "name": "LogNewOwner",
      "type": "event"
    }
  ],
  "bytecode": "0x6060604052341561000f57600080fd5b604051602080610fee83398101604052808051906020019091905050336000806101000a81548173ffffffffffffffffffffffffffffffffffffffff021916908373ffffffffffffffffffffffffffffffffffffffff16021790555060008111151561007a57600080fd5b8060018190555050610f5d806100916000396000f3006060604052600436106100ba576000357c0100000000000000000000000000000000000000000000000000000000900463ffffffff16806307d83914146100bf57806341c0e1b51461012a578063439766ce1461013f5780635fb02f4d1461016c5780636368e9281461019957806380f731ec146101d2578063893d20e81461020d5780638ba7e7f214610262578063a6f9dae1146102d1578063b187bd2614610322578063b5ca3e0d1461034f578063ebe2428e146103ca575b600080fd5b34156100ca57600080fd5b610110600480803573ffffffffffffffffffffffffffffffffffffffff1690602001909190803560001916906020019091908035600019169060200190919050506103f3565b604051808215151515815260200191505060405180910390f35b341561013557600080fd5b61013d610583565b005b341561014a57600080fd5b6101526106b4565b604051808215151515815260200191505060405180910390f35b341561017757600080fd5b61017f610796565b604051808215151515815260200191505060405180910390f35b34156101a457600080fd5b6101d0600480803573ffffffffffffffffffffffffffffffffffffffff16906020019091905050610877565b005b34156101dd57600080fd5b6101f76004808035600019169060200190919050506109c6565b6040518082815260200191505060405180910390f35b341561021857600080fd5b610220610a2b565b604051808273ffffffffffffffffffffffffffffffffffffffff1673ffffffffffffffffffffffffffffffffffffffff16815260200191505060405180910390f35b341561026d57600080fd5b6102b3600480803573ffffffffffffffffffffffffffffffffffffffff169060200190919080356000191690602001909190803560001916906020019091905050610a54565b60405180826000191660001916815260200191505060405180910390f35b34156102dc57600080fd5b610308600480803573ffffffffffffffffffffffffffffffffffffffff16906020019091905050610ad0565b604051808215151515815260200191505060405180910390f35b341561032d57600080fd5b610335610c8f565b604051808215151515815260200191505060405180910390f35b6103b0600480803590602001909190803573ffffffffffffffffffffffffffffffffffffffff1690602001909190803573ffffffffffffffffffffffffffffffffffffffff1690602001909190803560001916906020019091905050610ca5565b604051808215151515815260200191505060405180910390f35b34156103d557600080fd5b6103dd610ee9565b6040518082815260200191505060405180910390f35b6000806000808673ffffffffffffffffffffffffffffffffffffffff161415151561041d57600080fd5b600060010285600019161415151561043457600080fd5b600060010284600019161415151561044b57600080fd5b610456868686610a54565b915060026000836000191660001916815260200190815260200160002090508060020160009054906101000a900460ff1615151561049357600080fd5b806001015443111515156104a657600080fd5b3073ffffffffffffffffffffffffffffffffffffffff16318160000154111515156104cd57fe5b60018160020160006101000a81548160ff02191690831515021790555080600001543373ffffffffffffffffffffffffffffffffffffffff167f83d771f00324f133d246b62b1d9528ae178d6cd83d2c3f1d0ae19b1c3c9f86af60405160405180910390a33373ffffffffffffffffffffffffffffffffffffffff166108fc82600001549081150290604051600060405180830381858888f19350505050151561057657600080fd5b6001925050509392505050565b6000809054906101000a900473ffffffffffffffffffffffffffffffffffffffff1673ffffffffffffffffffffffffffffffffffffffff163373ffffffffffffffffffffffffffffffffffffffff161415156105de57600080fd5b7f8be15dba7f503063bb0bc2a47e9af814cfc3c11b0cac0025223c99be306c6e1633333073ffffffffffffffffffffffffffffffffffffffff1631604051808473ffffffffffffffffffffffffffffffffffffffff1673ffffffffffffffffffffffffffffffffffffffff1681526020018373ffffffffffffffffffffffffffffffffffffffff1673ffffffffffffffffffffffffffffffffffffffff168152602001828152602001935050505060405180910390a161069c610a2b565b73ffffffffffffffffffffffffffffffffffffffff16ff5b60008060009054906101000a900473ffffffffffffffffffffffffffffffffffffffff1673ffffffffffffffffffffffffffffffffffffffff163373ffffffffffffffffffffffffffffffffffffffff1614151561071157600080fd5b6001600060146101000a81548160ff0219169083151502179055507f9022f48034574f88d5dde439a5da7ebc25082f77761e9d1db4915cea52ade9dc33604051808273ffffffffffffffffffffffffffffffffffffffff1673ffffffffffffffffffffffffffffffffffffffff16815260200191505060405180910390a16001905090565b60008060009054906101000a900473ffffffffffffffffffffffffffffffffffffffff1673ffffffffffffffffffffffffffffffffffffffff163373ffffffffffffffffffffffffffffffffffffffff161415156107f357600080fd5b60008060146101000a81548160ff0219169083151502179055507fa8ddc33bcc81d4475dfdcb2c883e97be008d608cc0c8a48aa5a8d1076b99654433604051808273ffffffffffffffffffffffffffffffffffffffff1673ffffffffffffffffffffffffffffffffffffffff16815260200191505060405180910390a16001905090565b6000809054906101000a900473ffffffffffffffffffffffffffffffffffffffff1673ffffffffffffffffffffffffffffffffffffffff163373ffffffffffffffffffffffffffffffffffffffff161415156108d257600080fd5b60008173ffffffffffffffffffffffffffffffffffffffff161115156108f757600080fd5b7f8be15dba7f503063bb0bc2a47e9af814cfc3c11b0cac0025223c99be306c6e1633823073ffffffffffffffffffffffffffffffffffffffff1631604051808473ffffffffffffffffffffffffffffffffffffffff1673ffffffffffffffffffffffffffffffffffffffff1681526020018373ffffffffffffffffffffffffffffffffffffffff1673ffffffffffffffffffffffffffffffffffffffff168152602001828152602001935050505060405180910390a18073ffffffffffffffffffffffffffffffffffffffff16ff5b6109ce610f0d565b6002600083600019166000191681526020019081526020016000206060604051908101604052908160008201548152602001600182015481526020016002820160009054906101000a900460ff1615151515815250509050919050565b60008060009054906101000a900473ffffffffffffffffffffffffffffffffffffffff16905090565b6000838383604051808473ffffffffffffffffffffffffffffffffffffffff1673ffffffffffffffffffffffffffffffffffffffff166c01000000000000000000000000028152601401836000191660001916815260200182600019166000191681526020019350505050604051809103902090509392505050565b60008060009054906101000a900473ffffffffffffffffffffffffffffffffffffffff1673ffffffffffffffffffffffffffffffffffffffff163373ffffffffffffffffffffffffffffffffffffffff16141515610b2d57600080fd5b60008273ffffffffffffffffffffffffffffffffffffffff1614151515610b5357600080fd5b3373ffffffffffffffffffffffffffffffffffffffff168273ffffffffffffffffffffffffffffffffffffffff1614151515610b8e57600080fd5b7f1f8d7d25344642d919d55999e4664aa452a5f424bc0936ceb9c2b300db7dcbd96000809054906101000a900473ffffffffffffffffffffffffffffffffffffffff1683604051808373ffffffffffffffffffffffffffffffffffffffff1673ffffffffffffffffffffffffffffffffffffffff1681526020018273ffffffffffffffffffffffffffffffffffffffff1673ffffffffffffffffffffffffffffffffffffffff1681526020019250505060405180910390a1816000806101000a81548173ffffffffffffffffffffffffffffffffffffffff021916908373ffffffffffffffffffffffffffffffffffffffff16021790555060019050919050565b60008060149054906101000a900460ff16905090565b6000806000809054906101000a900473ffffffffffffffffffffffffffffffffffffffff1673ffffffffffffffffffffffffffffffffffffffff163373ffffffffffffffffffffffffffffffffffffffff16141515610d0357600080fd5b600034111515610d1257600080fd5b600086111515610d2157600080fd5b60008573ffffffffffffffffffffffffffffffffffffffff1614151515610d4757600080fd5b60008473ffffffffffffffffffffffffffffffffffffffff1614151515610d6d57600080fd5b6000600102836000191614151515610d8457600080fd5b3073ffffffffffffffffffffffffffffffffffffffff1631343373ffffffffffffffffffffffffffffffffffffffff167f9dbb0e7dda3e09710ce75b801addc87cf9d9c6c581641b3275fca409ad086c6260405160405180910390a4600260008460001916600019168152602001908152602001600020905060008160010154141515610e1057600080fd5b858160000181905550610e2e60015443610eef90919063ffffffff16565b81600101819055508373ffffffffffffffffffffffffffffffffffffffff168573ffffffffffffffffffffffffffffffffffffffff16877fe9667687a56555bef58fe530ea6bfaec35f95d278bc20397a0156e896f9adfd933438660010154604051808473ffffffffffffffffffffffffffffffffffffffff1673ffffffffffffffffffffffffffffffffffffffff168152602001838152602001828152602001935050505060405180910390a46001915050949350505050565b60015481565b6000808284019050838110151515610f0357fe5b8091505092915050565b606060405190810160405280600081526020016000815260200160001515815250905600a165627a7a7230582072a6e3c69cbeb5430a19fd09faf4d2af7d6804a159716c9057bec6598df471da0029",
  "source": "pragma solidity ^0.4.18;\n\nimport '../contractLibrary/contracts/SafeMath.sol';\nimport '../contractLibrary/contracts/contractModifiers/Killable.sol';\n\ncontract Remittance is Killable {\n\n    using SafeMath for uint256;\n\n    struct ChallengeStruct {\n        uint    approvedAmount;\n        uint    lastValidBlock;\n        bool    isPaid;\n    }\n\n    uint public numBlocksUntilTimeout;\n\n    mapping(bytes32 => ChallengeStruct) private challengeStructs;\n  \n    event LogDeposit(address indexed sender, uint indexed deposit, uint indexed balance);\n    event LogSendRemittance(address sender, uint indexed approvedAmount, address indexed shop, address indexed recipient, uint currentBlock, uint lastValidBlock);\n    event LogWithdrawRequest(address indexed requestor, uint indexed requestAmount);\n    \n    function Remittance(uint _numBlocksUntilTimeout)\n        public\n    {\n        require(_numBlocksUntilTimeout > 0);\n        numBlocksUntilTimeout = _numBlocksUntilTimeout;\n    }\n\n    function sendRemittance(uint approvedAmount, address shop, address recipient, bytes32 suppliedHash)\n        public\n        onlyOwner\n        payable\n        returns(bool success)\n    {\n        require(msg.value > 0);\n        // gas-punish: if(msg.value == 0) { assembly { invalid } }\n        require(approvedAmount > 0);\n        require(shop != 0x0);\n        require(recipient != 0x0);\n        require(suppliedHash != 0x0);\n        \n        LogDeposit(msg.sender, msg.value, this.balance);\n\n        ChallengeStruct storage challenge = challengeStructs[suppliedHash];\n        require(challenge.lastValidBlock == 0); // allow password hash combination once\n        challenge.approvedAmount = approvedAmount;\n        challenge.lastValidBlock = block.number.add(numBlocksUntilTimeout);\n\n        LogSendRemittance(msg.sender, approvedAmount, shop, recipient, block.number, challenge.lastValidBlock);\n        return true;\n    }\n\n    function requestWithdraw(address recipientAddress, bytes32 shopPassword, bytes32 recipientPassword)\n        public\n        returns(bool success)\n    {\n        require(recipientAddress != 0x0);\n        require(shopPassword != 0);\n        require(recipientPassword != 0);\n\n        bytes32 unlockHash = createHash(recipientAddress, shopPassword, recipientPassword);\n        ChallengeStruct storage challenge = challengeStructs[unlockHash];\n        require(!challenge.isPaid);\n        require(block.number <= challenge.lastValidBlock);\n        assert(challenge.approvedAmount <= this.balance);\n        challenge.isPaid = true;\n        LogWithdrawRequest(msg.sender, challenge.approvedAmount);\n        msg.sender.transfer(challenge.approvedAmount);\n        return true;   \n    }\n\n    /** Pure */\n\n    function createHash(address recipientAddress, bytes32 shopPassword, bytes32 recipientPassword)\n        public\n        pure\n        returns(bytes32 hash)\n    {    \n        return keccak256(recipientAddress, shopPassword, recipientPassword);\n    } \n\n    /** Getters */\n    \n    function getChallengeStruct(bytes32 unlockHash)\n        public\n        view\n        returns(ChallengeStruct challengeStruct)\n    {\n        return challengeStructs[unlockHash];\n    }\n  \n}",
  "sourcePath": "/Users/whittlem/B9lab-ETH-17-Projects/Module_4-Remittance/contracts/Remittance.sol",
  "compiler": {
    "name": "solc",
    "version": "0.4.18+commit.9cf6e910.Emscripten.clang"
  },
  "schemaVersion": "1.0.1",
  "updatedAt": "2018-01-07T18:43:56.171Z"
}