{
  "contractName": "Remittance",
  "abi": [
    {
      "constant": false,
      "inputs": [
        {
          "name": "unlockHash",
          "type": "bytes32"
        }
      ],
      "name": "requestWithdraw",
      "outputs": [
        {
          "name": "success",
          "type": "bool"
        }
      ],
      "payable": false,
      "stateMutability": "nonpayable",
      "type": "function"
    },
    {
      "constant": false,
      "inputs": [],
      "name": "kill",
      "outputs": [],
      "payable": false,
      "stateMutability": "nonpayable",
      "type": "function"
    },
    {
      "constant": false,
      "inputs": [],
      "name": "pauseContract",
      "outputs": [
        {
          "name": "success",
          "type": "bool"
        }
      ],
      "payable": false,
      "stateMutability": "nonpayable",
      "type": "function"
    },
    {
      "constant": false,
      "inputs": [],
      "name": "startContract",
      "outputs": [
        {
          "name": "success",
          "type": "bool"
        }
      ],
      "payable": false,
      "stateMutability": "nonpayable",
      "type": "function"
    },
    {
      "constant": false,
      "inputs": [
        {
          "name": "recipient",
          "type": "address"
        }
      ],
      "name": "killAndTransfer",
      "outputs": [],
      "payable": false,
      "stateMutability": "nonpayable",
      "type": "function"
    },
    {
      "constant": true,
      "inputs": [
        {
          "name": "unlockHash",
          "type": "bytes32"
        }
      ],
      "name": "getChallengeStruct",
      "outputs": [
        {
          "components": [
            {
              "name": "approvedAmount",
              "type": "uint256"
            },
            {
              "name": "lastValidBlock",
              "type": "uint256"
            },
            {
              "name": "isPaid",
              "type": "bool"
            }
          ],
          "name": "challengeStruct",
          "type": "tuple"
        }
      ],
      "payable": false,
      "stateMutability": "view",
      "type": "function"
    },
    {
      "constant": true,
      "inputs": [],
      "name": "getOwner",
      "outputs": [
        {
          "name": "theOwner",
          "type": "address"
        }
      ],
      "payable": false,
      "stateMutability": "view",
      "type": "function"
    },
    {
      "constant": true,
      "inputs": [
        {
          "name": "recipientAddress",
          "type": "address"
        },
        {
          "name": "shopPassword",
          "type": "bytes32"
        },
        {
          "name": "recipientPassword",
          "type": "bytes32"
        }
      ],
      "name": "createHash",
      "outputs": [
        {
          "name": "hash",
          "type": "bytes32"
        }
      ],
      "payable": false,
      "stateMutability": "pure",
      "type": "function"
    },
    {
      "constant": false,
      "inputs": [
        {
          "name": "newOwner",
          "type": "address"
        }
      ],
      "name": "changeOwner",
      "outputs": [
        {
          "name": "transferSuccess",
          "type": "bool"
        }
      ],
      "payable": false,
      "stateMutability": "nonpayable",
      "type": "function"
    },
    {
      "constant": true,
      "inputs": [],
      "name": "isPaused",
      "outputs": [
        {
          "name": "isIndeed",
          "type": "bool"
        }
      ],
      "payable": false,
      "stateMutability": "view",
      "type": "function"
    },
    {
      "constant": false,
      "inputs": [
        {
          "name": "approvedAmount",
          "type": "uint256"
        },
        {
          "name": "shop",
          "type": "address"
        },
        {
          "name": "recipient",
          "type": "address"
        },
        {
          "name": "suppliedHash",
          "type": "bytes32"
        }
      ],
      "name": "sendRemittance",
      "outputs": [
        {
          "name": "success",
          "type": "bool"
        }
      ],
      "payable": true,
      "stateMutability": "payable",
      "type": "function"
    },
    {
      "constant": true,
      "inputs": [],
      "name": "numBlocksUntilTimeout",
      "outputs": [
        {
          "name": "",
          "type": "uint256"
        }
      ],
      "payable": false,
      "stateMutability": "view",
      "type": "function"
    },
    {
      "inputs": [
        {
          "name": "_numBlocksUntilTimeout",
          "type": "uint256"
        }
      ],
      "payable": false,
      "stateMutability": "nonpayable",
      "type": "constructor"
    },
    {
      "anonymous": false,
      "inputs": [
        {
          "indexed": true,
          "name": "sender",
          "type": "address"
        },
        {
          "indexed": true,
          "name": "deposit",
          "type": "uint256"
        },
        {
          "indexed": true,
          "name": "balance",
          "type": "uint256"
        }
      ],
      "name": "LogDeposit",
      "type": "event"
    },
    {
      "anonymous": false,
      "inputs": [
        {
          "indexed": false,
          "name": "sender",
          "type": "address"
        },
        {
          "indexed": true,
          "name": "approvedAmount",
          "type": "uint256"
        },
        {
          "indexed": true,
          "name": "shop",
          "type": "address"
        },
        {
          "indexed": true,
          "name": "recipient",
          "type": "address"
        },
        {
          "indexed": false,
          "name": "currentBlock",
          "type": "uint256"
        },
        {
          "indexed": false,
          "name": "lastValidBlock",
          "type": "uint256"
        }
      ],
      "name": "LogSendRemittance",
      "type": "event"
    },
    {
      "anonymous": false,
      "inputs": [
        {
          "indexed": true,
          "name": "requestor",
          "type": "address"
        },
        {
          "indexed": true,
          "name": "requestAmount",
          "type": "uint256"
        }
      ],
      "name": "LogWithdrawRequest",
      "type": "event"
    },
    {
      "anonymous": false,
      "inputs": [
        {
          "indexed": false,
          "name": "sender",
          "type": "address"
        },
        {
          "indexed": false,
          "name": "recipient",
          "type": "address"
        },
        {
          "indexed": false,
          "name": "balance",
          "type": "uint256"
        }
      ],
      "name": "LogKill",
      "type": "event"
    },
    {
      "anonymous": false,
      "inputs": [
        {
          "indexed": false,
          "name": "sender",
          "type": "address"
        }
      ],
      "name": "LogContractPause",
      "type": "event"
    },
    {
      "anonymous": false,
      "inputs": [
        {
          "indexed": false,
          "name": "sender",
          "type": "address"
        }
      ],
      "name": "LogContractResume",
      "type": "event"
    },
    {
      "anonymous": false,
      "inputs": [
        {
          "indexed": false,
          "name": "oldOwner",
          "type": "address"
        },
        {
          "indexed": false,
          "name": "newOwner",
          "type": "address"
        }
      ],
      "name": "LogNewOwner",
      "type": "event"
    }
  ],
  "bytecode": "0x6060604052341561000f57600080fd5b604051602080610f7483398101604052808051906020019091905050336000806101000a81548173ffffffffffffffffffffffffffffffffffffffff021916908373ffffffffffffffffffffffffffffffffffffffff16021790555060008111151561007a57600080fd5b8060018190555050610ee3806100916000396000f3006060604052600436106100ba576000357c0100000000000000000000000000000000000000000000000000000000900463ffffffff1680631fad8338146100bf57806341c0e1b5146100fe578063439766ce146101135780635fb02f4d146101405780636368e9281461016d57806380f731ec146101a6578063893d20e8146101e15780638ba7e7f214610236578063a6f9dae1146102a5578063b187bd26146102f6578063b5ca3e0d14610323578063ebe2428e1461039e575b600080fd5b34156100ca57600080fd5b6100e46004808035600019169060200190919050506103c7565b604051808215151515815260200191505060405180910390f35b341561010957600080fd5b610111610509565b005b341561011e57600080fd5b61012661063a565b604051808215151515815260200191505060405180910390f35b341561014b57600080fd5b61015361071c565b604051808215151515815260200191505060405180910390f35b341561017857600080fd5b6101a4600480803573ffffffffffffffffffffffffffffffffffffffff169060200190919050506107fd565b005b34156101b157600080fd5b6101cb60048080356000191690602001909190505061094c565b6040518082815260200191505060405180910390f35b34156101ec57600080fd5b6101f46109b1565b604051808273ffffffffffffffffffffffffffffffffffffffff1673ffffffffffffffffffffffffffffffffffffffff16815260200191505060405180910390f35b341561024157600080fd5b610287600480803573ffffffffffffffffffffffffffffffffffffffff1690602001909190803560001916906020019091908035600019169060200190919050506109da565b60405180826000191660001916815260200191505060405180910390f35b34156102b057600080fd5b6102dc600480803573ffffffffffffffffffffffffffffffffffffffff16906020019091905050610a56565b604051808215151515815260200191505060405180910390f35b341561030157600080fd5b610309610c15565b604051808215151515815260200191505060405180910390f35b610384600480803590602001909190803573ffffffffffffffffffffffffffffffffffffffff1690602001909190803573ffffffffffffffffffffffffffffffffffffffff1690602001909190803560001916906020019091905050610c2b565b604051808215151515815260200191505060405180910390f35b34156103a957600080fd5b6103b1610e6f565b6040518082815260200191505060405180910390f35b60008060006001028360001916141515156103e157600080fd5b60026000846000191660001916815260200190815260200160002090508060020160009054906101000a900460ff1615151561041c57600080fd5b8060010154431115151561042f57600080fd5b3073ffffffffffffffffffffffffffffffffffffffff163181600001541115151561045657fe5b60018160020160006101000a81548160ff02191690831515021790555080600001543373ffffffffffffffffffffffffffffffffffffffff167f83d771f00324f133d246b62b1d9528ae178d6cd83d2c3f1d0ae19b1c3c9f86af60405160405180910390a33373ffffffffffffffffffffffffffffffffffffffff166108fc82600001549081150290604051600060405180830381858888f1935050505015156104ff57600080fd5b6001915050919050565b6000809054906101000a900473ffffffffffffffffffffffffffffffffffffffff1673ffffffffffffffffffffffffffffffffffffffff163373ffffffffffffffffffffffffffffffffffffffff1614151561056457600080fd5b7f8be15dba7f503063bb0bc2a47e9af814cfc3c11b0cac0025223c99be306c6e1633333073ffffffffffffffffffffffffffffffffffffffff1631604051808473ffffffffffffffffffffffffffffffffffffffff1673ffffffffffffffffffffffffffffffffffffffff1681526020018373ffffffffffffffffffffffffffffffffffffffff1673ffffffffffffffffffffffffffffffffffffffff168152602001828152602001935050505060405180910390a16106226109b1565b73ffffffffffffffffffffffffffffffffffffffff16ff5b60008060009054906101000a900473ffffffffffffffffffffffffffffffffffffffff1673ffffffffffffffffffffffffffffffffffffffff163373ffffffffffffffffffffffffffffffffffffffff1614151561069757600080fd5b6001600060146101000a81548160ff0219169083151502179055507f9022f48034574f88d5dde439a5da7ebc25082f77761e9d1db4915cea52ade9dc33604051808273ffffffffffffffffffffffffffffffffffffffff1673ffffffffffffffffffffffffffffffffffffffff16815260200191505060405180910390a16001905090565b60008060009054906101000a900473ffffffffffffffffffffffffffffffffffffffff1673ffffffffffffffffffffffffffffffffffffffff163373ffffffffffffffffffffffffffffffffffffffff1614151561077957600080fd5b60008060146101000a81548160ff0219169083151502179055507fa8ddc33bcc81d4475dfdcb2c883e97be008d608cc0c8a48aa5a8d1076b99654433604051808273ffffffffffffffffffffffffffffffffffffffff1673ffffffffffffffffffffffffffffffffffffffff16815260200191505060405180910390a16001905090565b6000809054906101000a900473ffffffffffffffffffffffffffffffffffffffff1673ffffffffffffffffffffffffffffffffffffffff163373ffffffffffffffffffffffffffffffffffffffff1614151561085857600080fd5b60008173ffffffffffffffffffffffffffffffffffffffff1611151561087d57600080fd5b7f8be15dba7f503063bb0bc2a47e9af814cfc3c11b0cac0025223c99be306c6e1633823073ffffffffffffffffffffffffffffffffffffffff1631604051808473ffffffffffffffffffffffffffffffffffffffff1673ffffffffffffffffffffffffffffffffffffffff1681526020018373ffffffffffffffffffffffffffffffffffffffff1673ffffffffffffffffffffffffffffffffffffffff168152602001828152602001935050505060405180910390a18073ffffffffffffffffffffffffffffffffffffffff16ff5b610954610e93565b6002600083600019166000191681526020019081526020016000206060604051908101604052908160008201548152602001600182015481526020016002820160009054906101000a900460ff1615151515815250509050919050565b60008060009054906101000a900473ffffffffffffffffffffffffffffffffffffffff16905090565b6000838383604051808473ffffffffffffffffffffffffffffffffffffffff1673ffffffffffffffffffffffffffffffffffffffff166c01000000000000000000000000028152601401836000191660001916815260200182600019166000191681526020019350505050604051809103902090509392505050565b60008060009054906101000a900473ffffffffffffffffffffffffffffffffffffffff1673ffffffffffffffffffffffffffffffffffffffff163373ffffffffffffffffffffffffffffffffffffffff16141515610ab357600080fd5b60008273ffffffffffffffffffffffffffffffffffffffff1614151515610ad957600080fd5b3373ffffffffffffffffffffffffffffffffffffffff168273ffffffffffffffffffffffffffffffffffffffff1614151515610b1457600080fd5b7f1f8d7d25344642d919d55999e4664aa452a5f424bc0936ceb9c2b300db7dcbd96000809054906101000a900473ffffffffffffffffffffffffffffffffffffffff1683604051808373ffffffffffffffffffffffffffffffffffffffff1673ffffffffffffffffffffffffffffffffffffffff1681526020018273ffffffffffffffffffffffffffffffffffffffff1673ffffffffffffffffffffffffffffffffffffffff1681526020019250505060405180910390a1816000806101000a81548173ffffffffffffffffffffffffffffffffffffffff021916908373ffffffffffffffffffffffffffffffffffffffff16021790555060019050919050565b60008060149054906101000a900460ff16905090565b6000806000809054906101000a900473ffffffffffffffffffffffffffffffffffffffff1673ffffffffffffffffffffffffffffffffffffffff163373ffffffffffffffffffffffffffffffffffffffff16141515610c8957600080fd5b600034111515610c9857600080fd5b600086111515610ca757600080fd5b60008573ffffffffffffffffffffffffffffffffffffffff1614151515610ccd57600080fd5b60008473ffffffffffffffffffffffffffffffffffffffff1614151515610cf357600080fd5b6000600102836000191614151515610d0a57600080fd5b3073ffffffffffffffffffffffffffffffffffffffff1631343373ffffffffffffffffffffffffffffffffffffffff167f9dbb0e7dda3e09710ce75b801addc87cf9d9c6c581641b3275fca409ad086c6260405160405180910390a4600260008460001916600019168152602001908152602001600020905060008160010154141515610d9657600080fd5b858160000181905550610db460015443610e7590919063ffffffff16565b81600101819055508373ffffffffffffffffffffffffffffffffffffffff168573ffffffffffffffffffffffffffffffffffffffff16877fe9667687a56555bef58fe530ea6bfaec35f95d278bc20397a0156e896f9adfd933438660010154604051808473ffffffffffffffffffffffffffffffffffffffff1673ffffffffffffffffffffffffffffffffffffffff168152602001838152602001828152602001935050505060405180910390a46001915050949350505050565b60015481565b6000808284019050838110151515610e8957fe5b8091505092915050565b606060405190810160405280600081526020016000815260200160001515815250905600a165627a7a723058206ed33aa5b229780b6d0db3d99a926b747703e2ea8263de676012120d1393e5390029",
  "source": "pragma solidity ^0.4.18;\n\nimport '../contractLibrary/contracts/SafeMath.sol';\nimport '../contractLibrary/contracts/contractModifiers/Killable.sol';\n\ncontract Remittance is Killable {\n\n    using SafeMath for uint256;\n\n    struct ChallengeStruct {\n        uint    approvedAmount;\n        uint    lastValidBlock;\n        bool    isPaid;\n    }\n\n    uint public numBlocksUntilTimeout;\n\n    mapping(bytes32 => ChallengeStruct) private challengeStructs;\n  \n    event LogDeposit(address indexed sender, uint indexed deposit, uint indexed balance);\n    event LogSendRemittance(address sender, uint indexed approvedAmount, address indexed shop, address indexed recipient, uint currentBlock, uint lastValidBlock);\n    event LogWithdrawRequest(address indexed requestor, uint indexed requestAmount);\n    \n    function Remittance(uint _numBlocksUntilTimeout)\n        public\n    {\n        require(_numBlocksUntilTimeout > 0);\n        numBlocksUntilTimeout = _numBlocksUntilTimeout;\n    }\n\n    function sendRemittance(uint approvedAmount, address shop, address recipient, bytes32 suppliedHash)\n        public\n        onlyOwner\n        payable\n        returns(bool success)\n    {\n        require(msg.value > 0);\n        // gas-punish: if(msg.value == 0) { assembly { invalid } }\n        require(approvedAmount > 0);\n        require(shop != 0x0);\n        require(recipient != 0x0);\n        require(suppliedHash != 0x0);\n        \n        LogDeposit(msg.sender, msg.value, this.balance);\n\n        ChallengeStruct storage challenge = challengeStructs[suppliedHash];\n        require(challenge.lastValidBlock == 0); // allow password hash combination once\n        challenge.approvedAmount = approvedAmount;\n        challenge.lastValidBlock = block.number.add(numBlocksUntilTimeout);\n\n        LogSendRemittance(msg.sender, approvedAmount, shop, recipient, block.number, challenge.lastValidBlock);\n        return true;\n    }\n\n    function requestWithdraw(bytes32 unlockHash)\n        public\n        returns(bool success)\n    {\n        require(unlockHash != 0x0);\n\n        ChallengeStruct storage challenge = challengeStructs[unlockHash];\n        require(!challenge.isPaid);\n        require(block.number <= challenge.lastValidBlock);\n        assert(challenge.approvedAmount <= this.balance);\n        challenge.isPaid = true;\n        LogWithdrawRequest(msg.sender, challenge.approvedAmount);\n        msg.sender.transfer(challenge.approvedAmount);\n        return true;   \n    }\n\n    /** Pure */\n\n    function createHash(address recipientAddress, bytes32 shopPassword, bytes32 recipientPassword)\n        public\n        pure\n        returns(bytes32 hash)\n    {    \n        return keccak256(recipientAddress, shopPassword, recipientPassword);\n    } \n\n    /** Getters */\n    \n    function getChallengeStruct(bytes32 unlockHash)\n        public\n        view\n        returns(ChallengeStruct challengeStruct)\n    {\n        return challengeStructs[unlockHash];\n    }\n  \n}",
  "sourcePath": "/Users/whittlem/B9lab-ETH-17-Projects/Module_4-Remittance/contracts/Remittance.sol",
  "compiler": {
    "name": "solc",
    "version": "0.4.18+commit.9cf6e910.Emscripten.clang"
  },
  "schemaVersion": "1.0.1",
  "updatedAt": "2018-01-05T14:50:08.487Z"
}