{
  "contractName": "Splitter",
  "abi": [
    {
      "constant": false,
      "inputs": [],
      "name": "killContract",
      "outputs": [
        {
          "name": "success",
          "type": "bool"
        }
      ],
      "payable": false,
      "stateMutability": "nonpayable",
      "type": "function"
    },
    {
      "constant": true,
      "inputs": [],
      "name": "personBob",
      "outputs": [
        {
          "name": "",
          "type": "address"
        }
      ],
      "payable": false,
      "stateMutability": "view",
      "type": "function"
    },
    {
      "constant": false,
      "inputs": [
        {
          "name": "addressBob",
          "type": "address"
        },
        {
          "name": "addressCarol",
          "type": "address"
        }
      ],
      "name": "registerBobAndAlice",
      "outputs": [
        {
          "name": "success",
          "type": "bool"
        }
      ],
      "payable": false,
      "stateMutability": "nonpayable",
      "type": "function"
    },
    {
      "constant": true,
      "inputs": [],
      "name": "ownerAlice",
      "outputs": [
        {
          "name": "",
          "type": "address"
        }
      ],
      "payable": false,
      "stateMutability": "view",
      "type": "function"
    },
    {
      "constant": true,
      "inputs": [],
      "name": "getBalanceCarol",
      "outputs": [
        {
          "name": "balance",
          "type": "uint256"
        }
      ],
      "payable": false,
      "stateMutability": "view",
      "type": "function"
    },
    {
      "constant": true,
      "inputs": [],
      "name": "personCarol",
      "outputs": [
        {
          "name": "",
          "type": "address"
        }
      ],
      "payable": false,
      "stateMutability": "view",
      "type": "function"
    },
    {
      "constant": false,
      "inputs": [],
      "name": "deposit",
      "outputs": [
        {
          "name": "success",
          "type": "bool"
        }
      ],
      "payable": true,
      "stateMutability": "payable",
      "type": "function"
    },
    {
      "constant": true,
      "inputs": [],
      "name": "getBalanceBob",
      "outputs": [
        {
          "name": "balance",
          "type": "uint256"
        }
      ],
      "payable": false,
      "stateMutability": "view",
      "type": "function"
    },
    {
      "constant": true,
      "inputs": [],
      "name": "contractActive",
      "outputs": [
        {
          "name": "",
          "type": "bool"
        }
      ],
      "payable": false,
      "stateMutability": "view",
      "type": "function"
    },
    {
      "inputs": [
        {
          "name": "addressBob",
          "type": "address"
        },
        {
          "name": "addressCarol",
          "type": "address"
        }
      ],
      "payable": false,
      "stateMutability": "nonpayable",
      "type": "function",
      "constant": false,
      "name": "getBalanceAlice",
      "outputs": [
        {
          "name": "balance",
          "type": "uint256"
        }
      ]
    },
    {
      "anonymous": false,
      "inputs": [
        {
          "indexed": false,
          "name": "addressBob",
          "type": "address"
        },
        {
          "indexed": false,
          "name": "addressCarol",
          "type": "address"
        },
        {
          "indexed": false,
          "name": "Carol",
          "type": "address"
        }
      ],
      "name": "LogRegistration",
      "type": "constructor",
      "payable": false,
      "stateMutability": "nonpayable"
    },
    {
      "anonymous": false,
      "inputs": [
        {
          "indexed": false,
          "name": "Alice",
          "type": "address"
        },
        {
          "indexed": false,
          "name": "Bob",
          "type": "address"
        },
        {
          "indexed": false,
          "name": "Carol",
          "type": "address"
        }
      ],
      "name": "LogRegistration",
      "type": "event"
    },
    {
      "anonymous": false,
      "inputs": [
        {
          "indexed": false,
          "name": "depositFromAlice",
          "type": "uint256"
        },
        {
          "indexed": false,
          "name": "shareToBob",
          "type": "uint256"
        },
        {
          "indexed": false,
          "name": "shareToCarol",
          "type": "uint256"
        }
      ],
      "name": "LogDeposit",
      "type": "event"
    },
    {
      "anonymous": false,
      "inputs": [
        {
          "indexed": false,
          "name": "ownerAlice",
          "type": "address"
        }
      ],
      "name": "LogKillSwitch",
      "type": "event"
    }
  ],
  "bytecode": "0x6060604052341561000f57600080fd5b604051604080610dd18339810160405280805190602001909190805190602001909190505060016000806101000a81548160ff0219169083151502179055505050610d728061005f6000396000f3006060604052600436106100a4576000357c0100000000000000000000000000000000000000000000000000000000900463ffffffff1680631c02708d146100a957806344c83139146100d657806362d5c3bb1461012b578063b6465e5d1461019b578063cc666496146101f0578063ccf02d6e14610219578063d0e30db01461026e578063d734426c14610290578063e289fcb6146102b9578063fb79debe146102e6575b600080fd5b34156100b457600080fd5b6100bc61030f565b604051808215151515815260200191505060405180910390f35b34156100e157600080fd5b6100e96105dc565b604051808273ffffffffffffffffffffffffffffffffffffffff1673ffffffffffffffffffffffffffffffffffffffff16815260200191505060405180910390f35b341561013657600080fd5b610181600480803573ffffffffffffffffffffffffffffffffffffffff1690602001909190803573ffffffffffffffffffffffffffffffffffffffff16906020019091905050610602565b604051808215151515815260200191505060405180910390f35b34156101a657600080fd5b6101ae61084d565b604051808273ffffffffffffffffffffffffffffffffffffffff1673ffffffffffffffffffffffffffffffffffffffff16815260200191505060405180910390f35b34156101fb57600080fd5b610203610873565b6040518082815260200191505060405180910390f35b341561022457600080fd5b61022c610982565b604051808273ffffffffffffffffffffffffffffffffffffffff1673ffffffffffffffffffffffffffffffffffffffff16815260200191505060405180910390f35b6102766109a8565b604051808215151515815260200191505060405180910390f35b341561029b57600080fd5b6102a3610b6e565b6040518082815260200191505060405180910390f35b34156102c457600080fd5b6102cc610c7d565b604051808215151515815260200191505060405180910390f35b34156102f157600080fd5b6102f9610c8f565b6040518082815260200191505060405180910390f35b60003373ffffffffffffffffffffffffffffffffffffffff16600060019054906101000a900473ffffffffffffffffffffffffffffffffffffffff1673ffffffffffffffffffffffffffffffffffffffff1614151561036d57600080fd5b6000809054906101000a900460ff16151561038757600080fd5b60008060006101000a81548160ff0219169083151502179055507fe59f6b4aa67bef3fbbca449d595c9d3040acaa3d6b6bff461eb79a1d4ca9b71933604051808273ffffffffffffffffffffffffffffffffffffffff1673ffffffffffffffffffffffffffffffffffffffff16815260200191505060405180910390a1600060019054906101000a900473ffffffffffffffffffffffffffffffffffffffff1673ffffffffffffffffffffffffffffffffffffffff166108fc600060019054906101000a900473ffffffffffffffffffffffffffffffffffffffff1673ffffffffffffffffffffffffffffffffffffffff16319081150290604051600060405180830381858888f19350505050151561049f57600080fd5b600160009054906101000a900473ffffffffffffffffffffffffffffffffffffffff1673ffffffffffffffffffffffffffffffffffffffff166108fc600160009054906101000a900473ffffffffffffffffffffffffffffffffffffffff1673ffffffffffffffffffffffffffffffffffffffff16319081150290604051600060405180830381858888f19350505050151561053a57600080fd5b600260009054906101000a900473ffffffffffffffffffffffffffffffffffffffff1673ffffffffffffffffffffffffffffffffffffffff166108fc600260009054906101000a900473ffffffffffffffffffffffffffffffffffffffff1673ffffffffffffffffffffffffffffffffffffffff16319081150290604051600060405180830381858888f1935050505015156105d557600080fd5b6001905090565b600160009054906101000a900473ffffffffffffffffffffffffffffffffffffffff1681565b60007fbf2838abc9c382fb1ebe7c6c085800054b50c6b634989a38ca619e318f6cc943338484604051808473ffffffffffffffffffffffffffffffffffffffff1673ffffffffffffffffffffffffffffffffffffffff1681526020018373ffffffffffffffffffffffffffffffffffffffff1673ffffffffffffffffffffffffffffffffffffffff1681526020018273ffffffffffffffffffffffffffffffffffffffff1673ffffffffffffffffffffffffffffffffffffffff168152602001935050505060405180910390a18273ffffffffffffffffffffffffffffffffffffffff163373ffffffffffffffffffffffffffffffffffffffff161415151561070a57600080fd5b8173ffffffffffffffffffffffffffffffffffffffff163373ffffffffffffffffffffffffffffffffffffffff161415151561074557600080fd5b8173ffffffffffffffffffffffffffffffffffffffff168373ffffffffffffffffffffffffffffffffffffffff161415151561078057600080fd5b33600060016101000a81548173ffffffffffffffffffffffffffffffffffffffff021916908373ffffffffffffffffffffffffffffffffffffffff16021790555082600160006101000a81548173ffffffffffffffffffffffffffffffffffffffff021916908373ffffffffffffffffffffffffffffffffffffffff16021790555081600260006101000a81548173ffffffffffffffffffffffffffffffffffffffff021916908373ffffffffffffffffffffffffffffffffffffffff1602179055506001905092915050565b600060019054906101000a900473ffffffffffffffffffffffffffffffffffffffff1681565b60008060009054906101000a900460ff16151561088f57600080fd5b3373ffffffffffffffffffffffffffffffffffffffff16600260009054906101000a900473ffffffffffffffffffffffffffffffffffffffff1673ffffffffffffffffffffffffffffffffffffffff16148061093857503373ffffffffffffffffffffffffffffffffffffffff16600060019054906101000a900473ffffffffffffffffffffffffffffffffffffffff1673ffffffffffffffffffffffffffffffffffffffff16145b151561094357600080fd5b600260009054906101000a900473ffffffffffffffffffffffffffffffffffffffff1673ffffffffffffffffffffffffffffffffffffffff1631905090565b600260009054906101000a900473ffffffffffffffffffffffffffffffffffffffff1681565b6000806000809054906101000a900460ff1615156109c557600080fd5b600060019054906101000a900473ffffffffffffffffffffffffffffffffffffffff1673ffffffffffffffffffffffffffffffffffffffff163373ffffffffffffffffffffffffffffffffffffffff16141515610a2157600080fd5b60003414151515610a3157600080fd5b6000600234811515610a3f57fe5b06141515610a4c57600080fd5b600234811515610a5857fe5b0490507fd5f41a4c53ae8d3f972ea59f65a253e16b5fca34ab8e51869011143e11f2ef2034828360405180848152602001838152602001828152602001935050505060405180910390a1600160009054906101000a900473ffffffffffffffffffffffffffffffffffffffff1673ffffffffffffffffffffffffffffffffffffffff166108fc829081150290604051600060405180830381858888f193505050501515610b0457600080fd5b600260009054906101000a900473ffffffffffffffffffffffffffffffffffffffff1673ffffffffffffffffffffffffffffffffffffffff166108fc829081150290604051600060405180830381858888f193505050501515610b6657600080fd5b600191505090565b60008060009054906101000a900460ff161515610b8a57600080fd5b3373ffffffffffffffffffffffffffffffffffffffff16600160009054906101000a900473ffffffffffffffffffffffffffffffffffffffff1673ffffffffffffffffffffffffffffffffffffffff161480610c3357503373ffffffffffffffffffffffffffffffffffffffff16600060019054906101000a900473ffffffffffffffffffffffffffffffffffffffff1673ffffffffffffffffffffffffffffffffffffffff16145b1515610c3e57600080fd5b600160009054906101000a900473ffffffffffffffffffffffffffffffffffffffff1673ffffffffffffffffffffffffffffffffffffffff1631905090565b6000809054906101000a900460ff1681565b60008060009054906101000a900460ff161515610cab57600080fd5b600060019054906101000a900473ffffffffffffffffffffffffffffffffffffffff1673ffffffffffffffffffffffffffffffffffffffff163373ffffffffffffffffffffffffffffffffffffffff16141515610d0757600080fd5b600060019054906101000a900473ffffffffffffffffffffffffffffffffffffffff1673ffffffffffffffffffffffffffffffffffffffff16319050905600a165627a7a72305820d24db7084c1d1affb51ef871e10ee3f8ad38a1df329f7533026ad19cbfbd69290029",
  "source": "pragma solidity ^0.4.18;\n\ncontract Splitter {\n    \n    bool    public contractActive;\n    address public ownerAlice;\n    address public personBob;\n    address public personCarol;\n    \n    event LogRegistration(address Alice, address Bob, address Carol);\n    event LogDeposit(uint depositFromAlice, uint shareToBob, uint shareToCarol);\n    event LogKillSwitch(address ownerAlice);\n    \n    function Splitter(address addressBob, address addressCarol) \n        public\n    {\n        contractActive = true;\n    }\n\n    function registerBobAndAlice(address addressBob, address addressCarol) \n        public\n        returns(bool success)\n    {\n        LogRegistration(msg.sender, addressBob, addressCarol);\n        \n        // should be three separate users\n        require(msg.sender != addressBob);\n        require(msg.sender != addressCarol);\n        require(addressBob != addressCarol);\n        \n        ownerAlice = msg.sender;\n        personBob = addressBob;\n        personCarol = addressCarol;\n        \n        return true;       \n    }\n    \n    function deposit()\n        public\n        payable\n        returns(bool success)\n    {\n        require(contractActive);\n        require(msg.sender == ownerAlice);\n        require(msg.value != 0);\n        require(msg.value % 2 == 0);\n        \n        uint halfDeposit = msg.value / 2;\n        LogDeposit(msg.value, halfDeposit, halfDeposit);\n        personBob.transfer(halfDeposit);\n        personCarol.transfer(halfDeposit);\n\n        return true;\n    }\n    \n    function getBalanceAlice()\n        public\n        //view\n        returns(uint balance)\n    {\n        require(contractActive);\n        require(msg.sender == ownerAlice);\n        return ownerAlice.balance;\n    }\n\n    function getBalanceBob()\n        public\n        view\n        returns(uint balance)\n    {\n        require(contractActive);\n        require(personBob == msg.sender\n            || ownerAlice == msg.sender);\n        return personBob.balance;\n    }\n    \n    function getBalanceCarol()\n        public\n        view\n        returns(uint balance)\n    {\n        require(contractActive);\n        require(personCarol == msg.sender\n            || ownerAlice == msg.sender);\n        return personCarol.balance;\n    }\n    \n    function killContract()\n        public\n        returns(bool success)\n    {\n        require(ownerAlice == msg.sender);\n        require(contractActive);\n        contractActive = false;\n        LogKillSwitch(msg.sender);\n        ownerAlice.transfer(ownerAlice.balance);\n        personBob.transfer(personBob.balance);\n        personCarol.transfer(personCarol.balance);\n        return true;\n    }\n    \n}",
  "sourcePath": "/home/whittlem/B9lab-ETH-17-Projects/Module_4-Splitter/contracts/Splitter.sol",
  "compiler": {
    "name": "solc",
    "version": "0.4.18+commit.9cf6e910.Emscripten.clang"
  },
  "schemaVersion": "1.0.1",
  "updatedAt": "2017-11-10T16:43:13.800Z"
}