{
  "contractName": "Splitter",
  "abi": [
    {
      "constant": true,
      "inputs": [
        {
          "name": "",
          "type": "address"
        }
      ],
      "name": "balances",
      "outputs": [
        {
          "name": "",
          "type": "uint256"
        }
      ],
      "payable": false,
      "stateMutability": "view",
      "type": "function"
    },
    {
      "constant": false,
      "inputs": [],
      "name": "withdraw",
      "outputs": [
        {
          "name": "success",
          "type": "bool"
        }
      ],
      "payable": false,
      "stateMutability": "nonpayable",
      "type": "function"
    },
    {
      "constant": false,
      "inputs": [],
      "name": "pauseContract",
      "outputs": [],
      "payable": false,
      "stateMutability": "nonpayable",
      "type": "function"
    },
    {
      "constant": false,
      "inputs": [],
      "name": "startContract",
      "outputs": [],
      "payable": false,
      "stateMutability": "nonpayable",
      "type": "function"
    },
    {
      "constant": true,
      "inputs": [],
      "name": "owner",
      "outputs": [
        {
          "name": "",
          "type": "address"
        }
      ],
      "payable": false,
      "stateMutability": "view",
      "type": "function"
    },
    {
      "constant": false,
      "inputs": [
        {
          "name": "recipient",
          "type": "address"
        }
      ],
      "name": "registerRecipient",
      "outputs": [
        {
          "name": "success",
          "type": "bool"
        }
      ],
      "payable": false,
      "stateMutability": "nonpayable",
      "type": "function"
    },
    {
      "constant": true,
      "inputs": [],
      "name": "isPaused",
      "outputs": [
        {
          "name": "",
          "type": "bool"
        }
      ],
      "payable": false,
      "stateMutability": "view",
      "type": "function"
    },
    {
      "constant": false,
      "inputs": [],
      "name": "deposit",
      "outputs": [
        {
          "name": "success",
          "type": "bool"
        }
      ],
      "payable": true,
      "stateMutability": "payable",
      "type": "function"
    },
    {
      "constant": true,
      "inputs": [
        {
          "name": "",
          "type": "uint256"
        }
      ],
      "name": "recipients",
      "outputs": [
        {
          "name": "",
          "type": "address"
        }
      ],
      "payable": false,
      "stateMutability": "view",
      "type": "function"
    },
    {
      "constant": false,
      "inputs": [
        {
          "name": "newOwner",
          "type": "address"
        }
      ],
      "name": "transferOwnership",
      "outputs": [],
      "payable": false,
      "stateMutability": "nonpayable",
      "type": "function"
    },
    {
      "anonymous": false,
      "inputs": [
        {
          "indexed": false,
          "name": "recipient",
          "type": "address"
        }
      ],
      "name": "LogRecipientExists",
      "type": "event"
    },
    {
      "anonymous": false,
      "inputs": [
        {
          "indexed": false,
          "name": "owner",
          "type": "address"
        },
        {
          "indexed": false,
          "name": "recipient",
          "type": "address"
        },
        {
          "indexed": false,
          "name": "balance",
          "type": "uint256"
        }
      ],
      "name": "LogRegistration",
      "type": "event"
    },
    {
      "anonymous": false,
      "inputs": [
        {
          "indexed": false,
          "name": "owner",
          "type": "address"
        },
        {
          "indexed": false,
          "name": "deposit",
          "type": "uint256"
        },
        {
          "indexed": false,
          "name": "recipient",
          "type": "address"
        },
        {
          "indexed": false,
          "name": "share",
          "type": "uint256"
        }
      ],
      "name": "LogDeposit",
      "type": "event"
    }
  ],
  "bytecode": "0x6060604052336000806101000a81548173ffffffffffffffffffffffffffffffffffffffff021916908373ffffffffffffffffffffffffffffffffffffffff160217905550610c46806100536000396000f3006060604052600436106100a4576000357c0100000000000000000000000000000000000000000000000000000000900463ffffffff16806327e235e3146100a95780633ccfd60b146100f6578063439766ce146101235780635fb02f4d146101385780638da5cb5b1461014d578063a8badaa5146101a2578063b187bd26146101f3578063d0e30db014610220578063d1bc76a114610242578063f2fde38b146102a5575b600080fd5b34156100b457600080fd5b6100e0600480803573ffffffffffffffffffffffffffffffffffffffff169060200190919050506102de565b6040518082815260200191505060405180910390f35b341561010157600080fd5b6101096102f6565b604051808215151515815260200191505060405180910390f35b341561012e57600080fd5b610136610419565b005b341561014357600080fd5b61014b610491565b005b341561015857600080fd5b610160610508565b604051808273ffffffffffffffffffffffffffffffffffffffff1673ffffffffffffffffffffffffffffffffffffffff16815260200191505060405180910390f35b34156101ad57600080fd5b6101d9600480803573ffffffffffffffffffffffffffffffffffffffff1690602001909190505061052d565b604051808215151515815260200191505060405180910390f35b34156101fe57600080fd5b61020661083c565b604051808215151515815260200191505060405180910390f35b61022861084f565b604051808215151515815260200191505060405180910390f35b341561024d57600080fd5b6102636004808035906020019091905050610ab1565b604051808273ffffffffffffffffffffffffffffffffffffffff1673ffffffffffffffffffffffffffffffffffffffff16815260200191505060405180910390f35b34156102b057600080fd5b6102dc600480803573ffffffffffffffffffffffffffffffffffffffff16906020019091905050610af0565b005b60026020528060005260406000206000915090505481565b600080600060149054906101000a900460ff1615151561031557600080fd5b600260003373ffffffffffffffffffffffffffffffffffffffff1673ffffffffffffffffffffffffffffffffffffffff16815260200190815260200160002054905060008111151561036657600080fd5b803073ffffffffffffffffffffffffffffffffffffffff16311015151561038c57600080fd5b6000600260003373ffffffffffffffffffffffffffffffffffffffff1673ffffffffffffffffffffffffffffffffffffffff168152602001908152602001600020819055503373ffffffffffffffffffffffffffffffffffffffff166108fc829081150290604051600060405180830381858888f19350505050151561041157600080fd5b600191505090565b6000809054906101000a900473ffffffffffffffffffffffffffffffffffffffff1673ffffffffffffffffffffffffffffffffffffffff163373ffffffffffffffffffffffffffffffffffffffff1614151561047457600080fd5b6001600060146101000a81548160ff021916908315150217905550565b6000809054906101000a900473ffffffffffffffffffffffffffffffffffffffff1673ffffffffffffffffffffffffffffffffffffffff163373ffffffffffffffffffffffffffffffffffffffff161415156104ec57600080fd5b60008060146101000a81548160ff021916908315150217905550565b6000809054906101000a900473ffffffffffffffffffffffffffffffffffffffff1681565b60008060008060009054906101000a900473ffffffffffffffffffffffffffffffffffffffff1673ffffffffffffffffffffffffffffffffffffffff163373ffffffffffffffffffffffffffffffffffffffff1614151561058d57600080fd5b600060149054906101000a900460ff161515156105a957600080fd5b600090505b60018054905081101561069e578373ffffffffffffffffffffffffffffffffffffffff166001828154811015156105e157fe5b906000526020600020900160009054906101000a900473ffffffffffffffffffffffffffffffffffffffff1673ffffffffffffffffffffffffffffffffffffffff161415610691577fb0fa7888e2a570dd821e73a4b6b9ecf01ec648c51347dd48043530ef0eb5468a84604051808273ffffffffffffffffffffffffffffffffffffffff1673ffffffffffffffffffffffffffffffffffffffff16815260200191505060405180910390a1600191505b80806001019150506105ae565b811515156106ab57600080fd5b600180548060010182816106bf9190610bc9565b9160005260206000209001600086909190916101000a81548173ffffffffffffffffffffffffffffffffffffffff021916908373ffffffffffffffffffffffffffffffffffffffff160217905550506000600260008673ffffffffffffffffffffffffffffffffffffffff1673ffffffffffffffffffffffffffffffffffffffff168152602001908152602001600020819055507f11753db982770ae57fe6620595e9843ec42448370157566f2c6e49d4e0614e4d3385600260008873ffffffffffffffffffffffffffffffffffffffff1673ffffffffffffffffffffffffffffffffffffffff16815260200190815260200160002054604051808473ffffffffffffffffffffffffffffffffffffffff1673ffffffffffffffffffffffffffffffffffffffff1681526020018373ffffffffffffffffffffffffffffffffffffffff1673ffffffffffffffffffffffffffffffffffffffff168152602001828152602001935050505060405180910390a1600192505050919050565b600060149054906101000a900460ff1681565b6000806000806000809054906101000a900473ffffffffffffffffffffffffffffffffffffffff1673ffffffffffffffffffffffffffffffffffffffff163373ffffffffffffffffffffffffffffffffffffffff161415156108b057600080fd5b600060149054906101000a900460ff161515156108cc57600080fd5b600034141515156108dc57600080fd5b60006001805490501115156108f057600080fd5b60018054905092506000833481151561090557fe5b0614151561091257600080fd5b823481151561091d57fe5b049150600090505b600180549050811015610aa757816002600060018481548110151561094657fe5b906000526020600020900160009054906101000a900473ffffffffffffffffffffffffffffffffffffffff1673ffffffffffffffffffffffffffffffffffffffff1673ffffffffffffffffffffffffffffffffffffffff168152602001908152602001600020600082825401925050819055507f5ddb057087e437449dc3b78a5a54734e7fbf19832844b2877232d17cbd04b30933346001848154811015156109eb57fe5b906000526020600020900160009054906101000a900473ffffffffffffffffffffffffffffffffffffffff1685604051808573ffffffffffffffffffffffffffffffffffffffff1673ffffffffffffffffffffffffffffffffffffffff1681526020018481526020018373ffffffffffffffffffffffffffffffffffffffff1673ffffffffffffffffffffffffffffffffffffffff16815260200182815260200194505050505060405180910390a18080600101915050610925565b6001935050505090565b600181815481101515610ac057fe5b90600052602060002090016000915054906101000a900473ffffffffffffffffffffffffffffffffffffffff1681565b6000809054906101000a900473ffffffffffffffffffffffffffffffffffffffff1673ffffffffffffffffffffffffffffffffffffffff163373ffffffffffffffffffffffffffffffffffffffff16141515610b4b57600080fd5b3373ffffffffffffffffffffffffffffffffffffffff168173ffffffffffffffffffffffffffffffffffffffff1614151515610b8657600080fd5b806000806101000a81548173ffffffffffffffffffffffffffffffffffffffff021916908373ffffffffffffffffffffffffffffffffffffffff16021790555050565b815481835581811511610bf057818360005260206000209182019101610bef9190610bf5565b5b505050565b610c1791905b80821115610c13576000816000905550600101610bfb565b5090565b905600a165627a7a72305820cfbf9fe7ea8c0786f8fcfe7afeb5741b639fbc3c014a9b9638e49105e384a4650029",
  "source": "pragma solidity ^0.4.18;\n\nimport '../contractLibrary/contractModifiers/Ownable.sol';\nimport '../contractLibrary/contractModifiers/Pausable.sol';\n\ncontract Splitter is Ownable, Pausable {\n\n  address[] public recipients;\n  mapping(address => uint) public balances;\n\n  event LogRecipientExists(address recipient);\n  event LogRegistration(address owner, address recipient, uint balance);\n  event LogDeposit(address owner, uint deposit, address recipient, uint share);\n\n  function registerRecipient(address recipient)\n    public\n    onlyOwner\n    isActive\n    returns(bool success)\n  {\n    bool exists;\n    for(uint i=0; i<recipients.length; i++) {\n      if(recipients[i] == recipient) {\n        LogRecipientExists(recipient);\n        exists = true;\n      }\n    }\n    require(!exists);\n\n    recipients.push(recipient);\n    balances[recipient] = 0;\n    LogRegistration(msg.sender, recipient, balances[recipient]);\n\n    return true;\n  }\n\n  function deposit()\n    public\n    payable\n    onlyOwner\n    isActive\n    returns(bool success)\n  {\n    require(msg.value != 0);\n    require(recipients.length > 0);\n\n    uint recipientCount = recipients.length;\n    require(msg.value % recipientCount == 0);\n    uint depositShare = msg.value / recipientCount;\n\n    for(uint i=0; i<recipients.length; i++) {\n      balances[recipients[i]] += depositShare;\n      LogDeposit(msg.sender, msg.value, recipients[i], depositShare);\n    }\n\n    return true;\n  }\n\n  function withdraw() \n    public\n    isActive\n    returns(bool success)\n  {\n    uint payment = balances[msg.sender];\n\n    require(payment > 0);\n    require(this.balance >= payment);\n\n    balances[msg.sender] = 0;\n\n    if(!msg.sender.send(payment)) {\n      revert();\n    }\n\n    return true;\n  }\n\n}\n",
  "sourcePath": "/home/mwhittl1/B9lab-ETH-17-Projects/Module_4-Splitter/contracts/Splitter.sol",
  "compiler": {
    "name": "solc",
    "version": "0.4.18+commit.9cf6e910.Emscripten.clang"
  },
  "schemaVersion": "1.0.1",
  "updatedAt": "2017-11-16T13:44:03.699Z"
}