{
  "contractName": "Splitter",
  "abi": [
    {
      "constant": false,
      "inputs": [],
      "name": "withdraw",
      "outputs": [
        {
          "name": "success",
          "type": "bool"
        }
      ],
      "payable": false,
      "stateMutability": "nonpayable",
      "type": "function"
    },
    {
      "constant": false,
      "inputs": [],
      "name": "pauseContract",
      "outputs": [],
      "payable": false,
      "stateMutability": "nonpayable",
      "type": "function"
    },
    {
      "constant": false,
      "inputs": [],
      "name": "startContract",
      "outputs": [],
      "payable": false,
      "stateMutability": "nonpayable",
      "type": "function"
    },
    {
      "constant": true,
      "inputs": [],
      "name": "getOwner",
      "outputs": [
        {
          "name": "theOwner",
          "type": "address"
        }
      ],
      "payable": false,
      "stateMutability": "view",
      "type": "function"
    },
    {
      "constant": true,
      "inputs": [
        {
          "name": "recipient",
          "type": "address"
        }
      ],
      "name": "isRecipient",
      "outputs": [
        {
          "name": "isIndeed",
          "type": "bool"
        }
      ],
      "payable": false,
      "stateMutability": "view",
      "type": "function"
    },
    {
      "constant": false,
      "inputs": [
        {
          "name": "recipient",
          "type": "address"
        }
      ],
      "name": "registerRecipient",
      "outputs": [
        {
          "name": "success",
          "type": "bool"
        }
      ],
      "payable": false,
      "stateMutability": "nonpayable",
      "type": "function"
    },
    {
      "constant": true,
      "inputs": [],
      "name": "isPaused",
      "outputs": [
        {
          "name": "isIndeed",
          "type": "bool"
        }
      ],
      "payable": false,
      "stateMutability": "view",
      "type": "function"
    },
    {
      "constant": true,
      "inputs": [],
      "name": "getAddressCount",
      "outputs": [
        {
          "name": "count",
          "type": "uint256"
        }
      ],
      "payable": false,
      "stateMutability": "view",
      "type": "function"
    },
    {
      "constant": false,
      "inputs": [],
      "name": "deposit",
      "outputs": [
        {
          "name": "success",
          "type": "bool"
        }
      ],
      "payable": true,
      "stateMutability": "payable",
      "type": "function"
    },
    {
      "constant": true,
      "inputs": [
        {
          "name": "",
          "type": "address"
        }
      ],
      "name": "recipientStructs",
      "outputs": [
        {
          "name": "balance",
          "type": "uint256"
        },
        {
          "name": "exists",
          "type": "bool"
        }
      ],
      "payable": false,
      "stateMutability": "view",
      "type": "function"
    },
    {
      "constant": false,
      "inputs": [
        {
          "name": "newOwner",
          "type": "address"
        }
      ],
      "name": "transferOwnership",
      "outputs": [],
      "payable": false,
      "stateMutability": "nonpayable",
      "type": "function"
    },
    {
      "anonymous": false,
      "inputs": [
        {
          "indexed": false,
          "name": "sender",
          "type": "address"
        },
        {
          "indexed": false,
          "name": "owner",
          "type": "address"
        },
        {
          "indexed": false,
          "name": "recipient",
          "type": "address"
        },
        {
          "indexed": false,
          "name": "balance",
          "type": "uint256"
        }
      ],
      "name": "LogRegistration",
      "type": "event"
    },
    {
      "anonymous": false,
      "inputs": [
        {
          "indexed": false,
          "name": "sender",
          "type": "address"
        },
        {
          "indexed": false,
          "name": "owner",
          "type": "address"
        },
        {
          "indexed": false,
          "name": "deposit",
          "type": "uint256"
        },
        {
          "indexed": false,
          "name": "recipient",
          "type": "address"
        },
        {
          "indexed": false,
          "name": "share",
          "type": "uint256"
        }
      ],
      "name": "LogDeposit",
      "type": "event"
    },
    {
      "anonymous": false,
      "inputs": [
        {
          "indexed": false,
          "name": "sender",
          "type": "address"
        },
        {
          "indexed": false,
          "name": "amount",
          "type": "uint256"
        }
      ],
      "name": "LogWithdraw",
      "type": "event"
    },
    {
      "anonymous": false,
      "inputs": [
        {
          "indexed": false,
          "name": "sender",
          "type": "address"
        }
      ],
      "name": "LogContractPause",
      "type": "event"
    },
    {
      "anonymous": false,
      "inputs": [
        {
          "indexed": false,
          "name": "sender",
          "type": "address"
        }
      ],
      "name": "LogContractResume",
      "type": "event"
    }
  ],
  "bytecode": "0x6060604052336000806101000a81548173ffffffffffffffffffffffffffffffffffffffff021916908373ffffffffffffffffffffffffffffffffffffffff160217905550610dd1806100536000396000f3006060604052600436106100af576000357c0100000000000000000000000000000000000000000000000000000000900463ffffffff1680633ccfd60b146100b4578063439766ce146100e15780635fb02f4d146100f6578063893d20e81461010b5780638c5143ea14610160578063a8badaa5146101b1578063b187bd2614610202578063cdbb02af1461022f578063d0e30db014610258578063d7845a2c1461027a578063f2fde38b146102d2575b600080fd5b34156100bf57600080fd5b6100c761030b565b604051808215151515815260200191505060405180910390f35b34156100ec57600080fd5b6100f46104b9565b005b341561010157600080fd5b610109610594565b005b341561011657600080fd5b61011e61066e565b604051808273ffffffffffffffffffffffffffffffffffffffff1673ffffffffffffffffffffffffffffffffffffffff16815260200191505060405180910390f35b341561016b57600080fd5b610197600480803573ffffffffffffffffffffffffffffffffffffffff16906020019091905050610697565b604051808215151515815260200191505060405180910390f35b34156101bc57600080fd5b6101e8600480803573ffffffffffffffffffffffffffffffffffffffff169060200190919050506106f0565b604051808215151515815260200191505060405180910390f35b341561020d57600080fd5b610215610961565b604051808215151515815260200191505060405180910390f35b341561023a57600080fd5b610242610977565b6040518082815260200191505060405180910390f35b610260610984565b604051808215151515815260200191505060405180910390f35b341561028557600080fd5b6102b1600480803573ffffffffffffffffffffffffffffffffffffffff16906020019091905050610c24565b60405180838152602001821515151581526020019250505060405180910390f35b34156102dd57600080fd5b610309600480803573ffffffffffffffffffffffffffffffffffffffff16906020019091905050610c55565b005b600080600060149054906101000a900460ff1615151561032a57600080fd5b600260003373ffffffffffffffffffffffffffffffffffffffff1673ffffffffffffffffffffffffffffffffffffffff16815260200190815260200160002060000154905060008111151561037e57600080fd5b6000600260003373ffffffffffffffffffffffffffffffffffffffff1673ffffffffffffffffffffffffffffffffffffffff168152602001908152602001600020600001819055507f4ce7033d118120e254016dccf195288400b28fc8936425acd5f17ce2df3ab7083382604051808373ffffffffffffffffffffffffffffffffffffffff1673ffffffffffffffffffffffffffffffffffffffff1681526020018281526020019250505060405180910390a13373ffffffffffffffffffffffffffffffffffffffff166108fc829081150290604051600060405180830381858888f19350505050151561047157600080fd5b3373ffffffffffffffffffffffffffffffffffffffff166108fc829081150290604051600060405180830381858888f1935050505015156104b157600080fd5b600191505090565b6000809054906101000a900473ffffffffffffffffffffffffffffffffffffffff1673ffffffffffffffffffffffffffffffffffffffff163373ffffffffffffffffffffffffffffffffffffffff1614151561051457600080fd5b6001600060146101000a81548160ff0219169083151502179055507f9022f48034574f88d5dde439a5da7ebc25082f77761e9d1db4915cea52ade9dc33604051808273ffffffffffffffffffffffffffffffffffffffff1673ffffffffffffffffffffffffffffffffffffffff16815260200191505060405180910390a1565b6000809054906101000a900473ffffffffffffffffffffffffffffffffffffffff1673ffffffffffffffffffffffffffffffffffffffff163373ffffffffffffffffffffffffffffffffffffffff161415156105ef57600080fd5b60008060146101000a81548160ff0219169083151502179055507fa8ddc33bcc81d4475dfdcb2c883e97be008d608cc0c8a48aa5a8d1076b99654433604051808273ffffffffffffffffffffffffffffffffffffffff1673ffffffffffffffffffffffffffffffffffffffff16815260200191505060405180910390a1565b60008060009054906101000a900473ffffffffffffffffffffffffffffffffffffffff16905090565b6000600260008373ffffffffffffffffffffffffffffffffffffffff1673ffffffffffffffffffffffffffffffffffffffff16815260200190815260200160002060010160009054906101000a900460ff169050919050565b60008060009054906101000a900473ffffffffffffffffffffffffffffffffffffffff1673ffffffffffffffffffffffffffffffffffffffff163373ffffffffffffffffffffffffffffffffffffffff1614151561074d57600080fd5b600060149054906101000a900460ff1615151561076957600080fd5b61077282610697565b15151561077e57600080fd5b600180548060010182816107929190610d54565b9160005260206000209001600084909190916101000a81548173ffffffffffffffffffffffffffffffffffffffff021916908373ffffffffffffffffffffffffffffffffffffffff160217905550506001600260008473ffffffffffffffffffffffffffffffffffffffff1673ffffffffffffffffffffffffffffffffffffffff16815260200190815260200160002060010160006101000a81548160ff0219169083151502179055507ffffb74a1a6f48fe58ef5c7464e522768d7dbeb87ee194e8318fb4d25a4f245873361086661066e565b84600260008773ffffffffffffffffffffffffffffffffffffffff1673ffffffffffffffffffffffffffffffffffffffff16815260200190815260200160002060000154604051808573ffffffffffffffffffffffffffffffffffffffff1673ffffffffffffffffffffffffffffffffffffffff1681526020018473ffffffffffffffffffffffffffffffffffffffff1673ffffffffffffffffffffffffffffffffffffffff1681526020018373ffffffffffffffffffffffffffffffffffffffff1673ffffffffffffffffffffffffffffffffffffffff16815260200182815260200194505050505060405180910390a160019050919050565b60008060149054906101000a900460ff16905090565b6000600180549050905090565b6000806000806000809054906101000a900473ffffffffffffffffffffffffffffffffffffffff1673ffffffffffffffffffffffffffffffffffffffff163373ffffffffffffffffffffffffffffffffffffffff161415156109e557600080fd5b600060149054906101000a900460ff16151515610a0157600080fd5b60003414151515610a1157600080fd5b6000600180549050111515610a2557600080fd5b600180549050925060008334811515610a3a57fe5b06141515610a4757600080fd5b8234811515610a5257fe5b049150600090505b600180549050811015610c1a578160026000600184815481101515610a7b57fe5b906000526020600020900160009054906101000a900473ffffffffffffffffffffffffffffffffffffffff1673ffffffffffffffffffffffffffffffffffffffff1673ffffffffffffffffffffffffffffffffffffffff168152602001908152602001600020600001600082825401925050819055507fcd43c495eb99fde5eda13716af5ace5a4b18f9bbb4e935c887e759698be1230433610b1b61066e565b34600185815481101515610b2b57fe5b906000526020600020900160009054906101000a900473ffffffffffffffffffffffffffffffffffffffff1686604051808673ffffffffffffffffffffffffffffffffffffffff1673ffffffffffffffffffffffffffffffffffffffff1681526020018573ffffffffffffffffffffffffffffffffffffffff1673ffffffffffffffffffffffffffffffffffffffff1681526020018481526020018373ffffffffffffffffffffffffffffffffffffffff1673ffffffffffffffffffffffffffffffffffffffff1681526020018281526020019550505050505060405180910390a18080600101915050610a5a565b6001935050505090565b60026020528060005260406000206000915090508060000154908060010160009054906101000a900460ff16905082565b6000809054906101000a900473ffffffffffffffffffffffffffffffffffffffff1673ffffffffffffffffffffffffffffffffffffffff163373ffffffffffffffffffffffffffffffffffffffff16141515610cb057600080fd5b60008173ffffffffffffffffffffffffffffffffffffffff1614151515610cd657600080fd5b3373ffffffffffffffffffffffffffffffffffffffff168173ffffffffffffffffffffffffffffffffffffffff1614151515610d1157600080fd5b806000806101000a81548173ffffffffffffffffffffffffffffffffffffffff021916908373ffffffffffffffffffffffffffffffffffffffff16021790555050565b815481835581811511610d7b57818360005260206000209182019101610d7a9190610d80565b5b505050565b610da291905b80821115610d9e576000816000905550600101610d86565b5090565b905600a165627a7a72305820cfd25482ac8f7614034b00ea31e7f375e7e97477733841d2fd5ed176c9596dc80029",
  "source": "pragma solidity ^0.4.18;\n\nimport '../contractLibrary/contractModifiers/Pausable.sol';\n\ncontract Splitter is Pausable {\n\n  struct RecipientStruct {\n    uint balance;\n    bool exists;\n  }  \n\n  address[] private recipients;\n  mapping(address => RecipientStruct) public recipientStructs;\n\n  event LogRegistration(address sender, address owner, address recipient, uint balance);\n  event LogDeposit(address sender, address owner, uint deposit, address recipient, uint share);\n  event LogWithdraw(address sender, uint amount);\n\n  function registerRecipient(address recipient)\n    public\n    onlyOwner\n    isActive\n    returns(bool success)\n  {\n    require(!isRecipient(recipient));\n\n    recipients.push(recipient);\n    recipientStructs[recipient].exists = true;\n    LogRegistration(msg.sender, getOwner(), recipient, recipientStructs[recipient].balance);\n\n    return true;\n  }\n\n  function deposit()\n    public\n    payable\n    onlyOwner\n    isActive\n    returns(bool success)\n  {\n    require(msg.value != 0);\n    require(recipients.length > 0);\n\n    uint recipientCount = recipients.length;\n    require(msg.value % recipientCount == 0);\n    uint depositShare = msg.value / recipientCount;\n\n    /** unavoidable unbounded loop */\n    for(uint i=0; i<recipients.length; i++) {\n      recipientStructs[recipients[i]].balance += depositShare;\n      LogDeposit(msg.sender, getOwner(), msg.value, recipients[i], depositShare);\n    }\n\n    return true;\n  }\n\n  function withdraw() \n    public\n    isActive\n    returns(bool success)\n  {\n    uint payment = recipientStructs[msg.sender].balance;\n    require(payment > 0);\n\n    recipientStructs[msg.sender].balance = 0;\n    LogWithdraw(msg.sender, payment);\n\n    msg.sender.transfer(payment);\n\n    if(!msg.sender.send(payment)) {\n      revert();\n    }\n\n    return true;\n  }\n\n  function isRecipient(address recipient) \n    public \n    constant \n    returns(bool isIndeed)\n  {\n    return recipientStructs[recipient].exists;\n  }\n\n  function getAddressCount() \n    public\n    constant \n    returns(uint count) \n  { \n    return recipients.length; \n  }\n\n}\n",
  "sourcePath": "/home/mwhittl1/B9lab-ETH-17-Projects/Module_4-Splitter/contracts/Splitter.sol",
  "compiler": {
    "name": "solc",
    "version": "0.4.18+commit.9cf6e910.Emscripten.clang"
  },
  "schemaVersion": "1.0.1",
  "updatedAt": "2017-11-20T14:36:26.195Z"
}