{
  "contractName": "RockPaperScissors",
  "abi": [
    {
      "constant": true,
      "inputs": [],
      "name": "playerTwo",
      "outputs": [
        {
          "name": "",
          "type": "address"
        }
      ],
      "payable": false,
      "stateMutability": "view",
      "type": "function"
    },
    {
      "constant": false,
      "inputs": [],
      "name": "register",
      "outputs": [
        {
          "name": "success",
          "type": "bool"
        }
      ],
      "payable": true,
      "stateMutability": "payable",
      "type": "function"
    },
    {
      "constant": false,
      "inputs": [],
      "name": "withdraw",
      "outputs": [
        {
          "name": "success",
          "type": "bool"
        }
      ],
      "payable": false,
      "stateMutability": "nonpayable",
      "type": "function"
    },
    {
      "constant": false,
      "inputs": [],
      "name": "pauseContract",
      "outputs": [
        {
          "name": "success",
          "type": "bool"
        }
      ],
      "payable": false,
      "stateMutability": "nonpayable",
      "type": "function"
    },
    {
      "constant": false,
      "inputs": [],
      "name": "startContract",
      "outputs": [
        {
          "name": "success",
          "type": "bool"
        }
      ],
      "payable": false,
      "stateMutability": "nonpayable",
      "type": "function"
    },
    {
      "constant": true,
      "inputs": [],
      "name": "sponsor",
      "outputs": [
        {
          "name": "",
          "type": "address"
        }
      ],
      "payable": false,
      "stateMutability": "view",
      "type": "function"
    },
    {
      "constant": true,
      "inputs": [
        {
          "name": "choice",
          "type": "uint8"
        }
      ],
      "name": "getChoiceBytes32",
      "outputs": [
        {
          "name": "choiceBytes32",
          "type": "bytes32"
        }
      ],
      "payable": false,
      "stateMutability": "pure",
      "type": "function"
    },
    {
      "constant": true,
      "inputs": [],
      "name": "getOwner",
      "outputs": [
        {
          "name": "theOwner",
          "type": "address"
        }
      ],
      "payable": false,
      "stateMutability": "view",
      "type": "function"
    },
    {
      "constant": true,
      "inputs": [
        {
          "name": "recipient",
          "type": "address"
        }
      ],
      "name": "isRecipient",
      "outputs": [
        {
          "name": "isIndeed",
          "type": "bool"
        }
      ],
      "payable": false,
      "stateMutability": "view",
      "type": "function"
    },
    {
      "constant": false,
      "inputs": [
        {
          "name": "newOwner",
          "type": "address"
        }
      ],
      "name": "changeOwner",
      "outputs": [
        {
          "name": "transferSuccess",
          "type": "bool"
        }
      ],
      "payable": false,
      "stateMutability": "nonpayable",
      "type": "function"
    },
    {
      "constant": true,
      "inputs": [],
      "name": "isPaused",
      "outputs": [
        {
          "name": "isIndeed",
          "type": "bool"
        }
      ],
      "payable": false,
      "stateMutability": "view",
      "type": "function"
    },
    {
      "constant": true,
      "inputs": [],
      "name": "playerOne",
      "outputs": [
        {
          "name": "",
          "type": "address"
        }
      ],
      "payable": false,
      "stateMutability": "view",
      "type": "function"
    },
    {
      "constant": true,
      "inputs": [],
      "name": "getAddressCount",
      "outputs": [
        {
          "name": "count",
          "type": "uint256"
        }
      ],
      "payable": false,
      "stateMutability": "view",
      "type": "function"
    },
    {
      "constant": true,
      "inputs": [
        {
          "name": "",
          "type": "address"
        }
      ],
      "name": "recipientStructs",
      "outputs": [
        {
          "name": "balance",
          "type": "uint256"
        },
        {
          "name": "exists",
          "type": "bool"
        }
      ],
      "payable": false,
      "stateMutability": "view",
      "type": "function"
    },
    {
      "constant": true,
      "inputs": [],
      "name": "correctDepositAmount",
      "outputs": [
        {
          "name": "",
          "type": "uint256"
        }
      ],
      "payable": false,
      "stateMutability": "view",
      "type": "function"
    },
    {
      "constant": false,
      "inputs": [
        {
          "name": "keccakChoice",
          "type": "bytes32"
        }
      ],
      "name": "playerChoice",
      "outputs": [
        {
          "name": "winner",
          "type": "uint256"
        }
      ],
      "payable": false,
      "stateMutability": "nonpayable",
      "type": "function"
    },
    {
      "constant": true,
      "inputs": [],
      "name": "getSponsor",
      "outputs": [
        {
          "name": "theSponsor",
          "type": "address"
        }
      ],
      "payable": false,
      "stateMutability": "view",
      "type": "function"
    },
    {
      "inputs": [
        {
          "name": "campaignSponsor",
          "type": "address"
        },
        {
          "name": "depositAmount",
          "type": "uint256"
        }
      ],
      "payable": false,
      "stateMutability": "nonpayable",
      "type": "constructor"
    },
    {
      "anonymous": false,
      "inputs": [
        {
          "indexed": false,
          "name": "sender",
          "type": "address"
        },
        {
          "indexed": false,
          "name": "player",
          "type": "uint8"
        },
        {
          "indexed": false,
          "name": "balance",
          "type": "uint256"
        },
        {
          "indexed": false,
          "name": "deposit",
          "type": "uint256"
        }
      ],
      "name": "LogRegistration",
      "type": "event"
    },
    {
      "anonymous": false,
      "inputs": [
        {
          "indexed": false,
          "name": "sender",
          "type": "address"
        },
        {
          "indexed": false,
          "name": "player",
          "type": "uint8"
        },
        {
          "indexed": false,
          "name": "keccakChoice",
          "type": "bytes32"
        }
      ],
      "name": "LogPlayerChoice",
      "type": "event"
    },
    {
      "anonymous": false,
      "inputs": [
        {
          "indexed": false,
          "name": "sender",
          "type": "address"
        },
        {
          "indexed": false,
          "name": "playerOne",
          "type": "address"
        },
        {
          "indexed": false,
          "name": "playerOneChoice",
          "type": "bytes32"
        },
        {
          "indexed": false,
          "name": "playerTwo",
          "type": "address"
        },
        {
          "indexed": false,
          "name": "playerTwoChoice",
          "type": "bytes32"
        },
        {
          "indexed": false,
          "name": "result",
          "type": "uint256"
        }
      ],
      "name": "LogOutcome",
      "type": "event"
    },
    {
      "anonymous": false,
      "inputs": [
        {
          "indexed": false,
          "name": "sender",
          "type": "address"
        },
        {
          "indexed": false,
          "name": "amount",
          "type": "uint256"
        }
      ],
      "name": "LogWithdraw",
      "type": "event"
    },
    {
      "anonymous": false,
      "inputs": [
        {
          "indexed": false,
          "name": "sender",
          "type": "address"
        }
      ],
      "name": "LogContractPause",
      "type": "event"
    },
    {
      "anonymous": false,
      "inputs": [
        {
          "indexed": false,
          "name": "sender",
          "type": "address"
        }
      ],
      "name": "LogContractResume",
      "type": "event"
    },
    {
      "anonymous": false,
      "inputs": [
        {
          "indexed": false,
          "name": "oldOwner",
          "type": "address"
        },
        {
          "indexed": false,
          "name": "newOwner",
          "type": "address"
        }
      ],
      "name": "LogNewOwner",
      "type": "event"
    }
  ],
  "bytecode": "0x60606040526000604051808260038111156200001757fe5b60ff167f010000000000000000000000000000000000000000000000000000000000000002815260010191505060405180910390206007906000191690556000604051808260038111156200006857fe5b60ff167f010000000000000000000000000000000000000000000000000000000000000002815260010191505060405180910390206008906000191690553415620000b257600080fd5b60405160408062001e4e83398101604052808051906020019091908051906020019091905050336000806101000a81548173ffffffffffffffffffffffffffffffffffffffff021916908373ffffffffffffffffffffffffffffffffffffffff16021790555081600260006101000a81548173ffffffffffffffffffffffffffffffffffffffff021916908373ffffffffffffffffffffffffffffffffffffffff160217905550806001819055506000600960006001604051808260038111156200017957fe5b60ff167f01000000000000000000000000000000000000000000000000000000000000000281526001019150506040518091039020600019166000191681526020019081526020016000206000600160405180826003811115620001d957fe5b60ff167f0100000000000000000000000000000000000000000000000000000000000000028152600101915050604051809103902060001916600019168152602001908152602001600020819055506002600960006001604051808260038111156200024157fe5b60ff167f01000000000000000000000000000000000000000000000000000000000000000281526001019150506040518091039020600019166000191681526020019081526020016000206000600260405180826003811115620002a157fe5b60ff167f0100000000000000000000000000000000000000000000000000000000000000028152600101915050604051809103902060001916600019168152602001908152602001600020819055506001600960006001604051808260038111156200030957fe5b60ff167f010000000000000000000000000000000000000000000000000000000000000002815260010191505060405180910390206000191660001916815260200190815260200160002060006003604051808260038111156200036957fe5b60ff167f010000000000000000000000000000000000000000000000000000000000000002815260010191505060405180910390206000191660001916815260200190815260200160002081905550600060096000600260405180826003811115620003d157fe5b60ff167f010000000000000000000000000000000000000000000000000000000000000002815260010191505060405180910390206000191660001916815260200190815260200160002060006002604051808260038111156200043157fe5b60ff167f0100000000000000000000000000000000000000000000000000000000000000028152600101915050604051809103902060001916600019168152602001908152602001600020819055506001600960006002604051808260038111156200049957fe5b60ff167f01000000000000000000000000000000000000000000000000000000000000000281526001019150506040518091039020600019166000191681526020019081526020016000206000600160405180826003811115620004f957fe5b60ff167f0100000000000000000000000000000000000000000000000000000000000000028152600101915050604051809103902060001916600019168152602001908152602001600020819055506002600960006002604051808260038111156200056157fe5b60ff167f01000000000000000000000000000000000000000000000000000000000000000281526001019150506040518091039020600019166000191681526020019081526020016000206000600360405180826003811115620005c157fe5b60ff167f0100000000000000000000000000000000000000000000000000000000000000028152600101915050604051809103902060001916600019168152602001908152602001600020819055506000600960006003604051808260038111156200062957fe5b60ff167f010000000000000000000000000000000000000000000000000000000000000002815260010191505060405180910390206000191660001916815260200190815260200160002060006003604051808260038111156200068957fe5b60ff167f010000000000000000000000000000000000000000000000000000000000000002815260010191505060405180910390206000191660001916815260200190815260200160002081905550600260096000600360405180826003811115620006f157fe5b60ff167f010000000000000000000000000000000000000000000000000000000000000002815260010191505060405180910390206000191660001916815260200190815260200160002060006001604051808260038111156200075157fe5b60ff167f010000000000000000000000000000000000000000000000000000000000000002815260010191505060405180910390206000191660001916815260200190815260200160002081905550600160096000600360405180826003811115620007b957fe5b60ff167f010000000000000000000000000000000000000000000000000000000000000002815260010191505060405180910390206000191660001916815260200190815260200160002060006002604051808260038111156200081957fe5b60ff167f01000000000000000000000000000000000000000000000000000000000000000281526001019150506040518091039020600019166000191681526020019081526020016000208190555050506115d4806200087a6000396000f3006060604052600436106100f1576000357c0100000000000000000000000000000000000000000000000000000000900463ffffffff1680630a9f85dd146100f65780631aa3a0081461014b5780633ccfd60b1461016d578063439766ce1461019a5780635fb02f4d146101c757806377c93662146101f45780637ea33b9414610249578063893d20e81461028b5780638c5143ea146102e0578063a6f9dae114610331578063b187bd2614610382578063bcffcf41146103af578063cdbb02af14610404578063d7845a2c1461042d578063dfad7f3a14610485578063efe2c462146104ae578063f1152677146104e9575b600080fd5b341561010157600080fd5b61010961053e565b604051808273ffffffffffffffffffffffffffffffffffffffff1673ffffffffffffffffffffffffffffffffffffffff16815260200191505060405180910390f35b610153610564565b604051808215151515815260200191505060405180910390f35b341561017857600080fd5b610180610ab2565b604051808215151515815260200191505060405180910390f35b34156101a557600080fd5b6101ad610c20565b604051808215151515815260200191505060405180910390f35b34156101d257600080fd5b6101da610d02565b604051808215151515815260200191505060405180910390f35b34156101ff57600080fd5b610207610de3565b604051808273ffffffffffffffffffffffffffffffffffffffff1673ffffffffffffffffffffffffffffffffffffffff16815260200191505060405180910390f35b341561025457600080fd5b61026d600480803560ff16906020019091905050610e09565b60405180826000191660001916815260200191505060405180910390f35b341561029657600080fd5b61029e610e58565b604051808273ffffffffffffffffffffffffffffffffffffffff1673ffffffffffffffffffffffffffffffffffffffff16815260200191505060405180910390f35b34156102eb57600080fd5b610317600480803573ffffffffffffffffffffffffffffffffffffffff16906020019091905050610e81565b604051808215151515815260200191505060405180910390f35b341561033c57600080fd5b610368600480803573ffffffffffffffffffffffffffffffffffffffff16906020019091905050610eda565b604051808215151515815260200191505060405180910390f35b341561038d57600080fd5b610395611099565b604051808215151515815260200191505060405180910390f35b34156103ba57600080fd5b6103c26110af565b604051808273ffffffffffffffffffffffffffffffffffffffff1673ffffffffffffffffffffffffffffffffffffffff16815260200191505060405180910390f35b341561040f57600080fd5b6104176110d5565b6040518082815260200191505060405180910390f35b341561043857600080fd5b610464600480803573ffffffffffffffffffffffffffffffffffffffff169060200190919050506110e2565b60405180838152602001821515151581526020019250505060405180910390f35b341561049057600080fd5b610498611113565b6040518082815260200191505060405180910390f35b34156104b957600080fd5b6104d3600480803560001916906020019091905050611119565b6040518082815260200191505060405180910390f35b34156104f457600080fd5b6104fc61152d565b604051808273ffffffffffffffffffffffffffffffffffffffff1673ffffffffffffffffffffffffffffffffffffffff16815260200191505060405180910390f35b600460009054906101000a900473ffffffffffffffffffffffffffffffffffffffff1681565b60003373ffffffffffffffffffffffffffffffffffffffff16600360009054906101000a900473ffffffffffffffffffffffffffffffffffffffff1673ffffffffffffffffffffffffffffffffffffffff16148061060f57503373ffffffffffffffffffffffffffffffffffffffff16600460009054906101000a900473ffffffffffffffffffffffffffffffffffffffff1673ffffffffffffffffffffffffffffffffffffffff16145b1561061957600080fd5b600060149054906101000a900460ff1615151561063557600080fd5b6001543414151561064557600080fd5b61064e33610e81565b15151561065a57600080fd5b6005805480600101828161066e9190611557565b9160005260206000209001600033909190916101000a81548173ffffffffffffffffffffffffffffffffffffffff021916908373ffffffffffffffffffffffffffffffffffffffff160217905550506001600660003373ffffffffffffffffffffffffffffffffffffffff1673ffffffffffffffffffffffffffffffffffffffff16815260200190815260200160002060010160006101000a81548160ff0219169083151502179055506000600360009054906101000a900473ffffffffffffffffffffffffffffffffffffffff1673ffffffffffffffffffffffffffffffffffffffff1614156108b45733600360006101000a81548173ffffffffffffffffffffffffffffffffffffffff021916908373ffffffffffffffffffffffffffffffffffffffff1602179055507f967cf361a8dc3fe16bf027191629431fdeba641fa72455eafb6ca632d242b4ce336001600660003373ffffffffffffffffffffffffffffffffffffffff1673ffffffffffffffffffffffffffffffffffffffff1681526020019081526020016000206000015434604051808573ffffffffffffffffffffffffffffffffffffffff1673ffffffffffffffffffffffffffffffffffffffff1681526020018460ff16815260200183815260200182815260200194505050505060405180910390a134600660003373ffffffffffffffffffffffffffffffffffffffff1673ffffffffffffffffffffffffffffffffffffffff1681526020019081526020016000206000016000828254019250508190555060019050610aaf565b6000600460009054906101000a900473ffffffffffffffffffffffffffffffffffffffff1673ffffffffffffffffffffffffffffffffffffffff1614801561094a57503373ffffffffffffffffffffffffffffffffffffffff16600360009054906101000a900473ffffffffffffffffffffffffffffffffffffffff1673ffffffffffffffffffffffffffffffffffffffff1614155b15610aaa5733600460006101000a81548173ffffffffffffffffffffffffffffffffffffffff021916908373ffffffffffffffffffffffffffffffffffffffff1602179055507f967cf361a8dc3fe16bf027191629431fdeba641fa72455eafb6ca632d242b4ce336002600660003373ffffffffffffffffffffffffffffffffffffffff1673ffffffffffffffffffffffffffffffffffffffff1681526020019081526020016000206000015434604051808573ffffffffffffffffffffffffffffffffffffffff1673ffffffffffffffffffffffffffffffffffffffff1681526020018460ff16815260200183815260200182815260200194505050505060405180910390a134600660003373ffffffffffffffffffffffffffffffffffffffff1673ffffffffffffffffffffffffffffffffffffffff1681526020019081526020016000206000016000828254019250508190555060019050610aaf565b600090505b90565b600080600060149054906101000a900460ff16151515610ad157600080fd5b600660003373ffffffffffffffffffffffffffffffffffffffff1673ffffffffffffffffffffffffffffffffffffffff168152602001908152602001600020600001549050600081111515610b2557600080fd5b6000600660003373ffffffffffffffffffffffffffffffffffffffff1673ffffffffffffffffffffffffffffffffffffffff168152602001908152602001600020600001819055507f4ce7033d118120e254016dccf195288400b28fc8936425acd5f17ce2df3ab7083382604051808373ffffffffffffffffffffffffffffffffffffffff1673ffffffffffffffffffffffffffffffffffffffff1681526020018281526020019250505060405180910390a13373ffffffffffffffffffffffffffffffffffffffff166108fc829081150290604051600060405180830381858888f193505050501515610c1857600080fd5b600191505090565b60008060009054906101000a900473ffffffffffffffffffffffffffffffffffffffff1673ffffffffffffffffffffffffffffffffffffffff163373ffffffffffffffffffffffffffffffffffffffff16141515610c7d57600080fd5b6001600060146101000a81548160ff0219169083151502179055507f9022f48034574f88d5dde439a5da7ebc25082f77761e9d1db4915cea52ade9dc33604051808273ffffffffffffffffffffffffffffffffffffffff1673ffffffffffffffffffffffffffffffffffffffff16815260200191505060405180910390a16001905090565b60008060009054906101000a900473ffffffffffffffffffffffffffffffffffffffff1673ffffffffffffffffffffffffffffffffffffffff163373ffffffffffffffffffffffffffffffffffffffff16141515610d5f57600080fd5b60008060146101000a81548160ff0219169083151502179055507fa8ddc33bcc81d4475dfdcb2c883e97be008d608cc0c8a48aa5a8d1076b99654433604051808273ffffffffffffffffffffffffffffffffffffffff1673ffffffffffffffffffffffffffffffffffffffff16815260200191505060405180910390a16001905090565b600260009054906101000a900473ffffffffffffffffffffffffffffffffffffffff1681565b60008160405180826003811115610e1c57fe5b60ff167f010000000000000000000000000000000000000000000000000000000000000002815260010191505060405180910390209050919050565b60008060009054906101000a900473ffffffffffffffffffffffffffffffffffffffff16905090565b6000600660008373ffffffffffffffffffffffffffffffffffffffff1673ffffffffffffffffffffffffffffffffffffffff16815260200190815260200160002060010160009054906101000a900460ff169050919050565b60008060009054906101000a900473ffffffffffffffffffffffffffffffffffffffff1673ffffffffffffffffffffffffffffffffffffffff163373ffffffffffffffffffffffffffffffffffffffff16141515610f3757600080fd5b60008273ffffffffffffffffffffffffffffffffffffffff1614151515610f5d57600080fd5b3373ffffffffffffffffffffffffffffffffffffffff168273ffffffffffffffffffffffffffffffffffffffff1614151515610f9857600080fd5b7f1f8d7d25344642d919d55999e4664aa452a5f424bc0936ceb9c2b300db7dcbd96000809054906101000a900473ffffffffffffffffffffffffffffffffffffffff1683604051808373ffffffffffffffffffffffffffffffffffffffff1673ffffffffffffffffffffffffffffffffffffffff1681526020018273ffffffffffffffffffffffffffffffffffffffff1673ffffffffffffffffffffffffffffffffffffffff1681526020019250505060405180910390a1816000806101000a81548173ffffffffffffffffffffffffffffffffffffffff021916908373ffffffffffffffffffffffffffffffffffffffff16021790555060019050919050565b60008060149054906101000a900460ff16905090565b600360009054906101000a900473ffffffffffffffffffffffffffffffffffffffff1681565b6000600580549050905090565b60066020528060005260406000206000915090508060000154908060010160009054906101000a900460ff16905082565b60015481565b600080600060149054906101000a900460ff1615151561113857600080fd5b3373ffffffffffffffffffffffffffffffffffffffff16600360009054906101000a900473ffffffffffffffffffffffffffffffffffffffff1673ffffffffffffffffffffffffffffffffffffffff1614806111e157503373ffffffffffffffffffffffffffffffffffffffff16600460009054906101000a900473ffffffffffffffffffffffffffffffffffffffff1673ffffffffffffffffffffffffffffffffffffffff16145b15156111ec57600080fd5b600360009054906101000a900473ffffffffffffffffffffffffffffffffffffffff1673ffffffffffffffffffffffffffffffffffffffff163373ffffffffffffffffffffffffffffffffffffffff1614156112cd5782600781600019169055507fef00e24b0063e7a3434b9669ae0150f5f1f9ea3f13a646757ea02edaf539da6933600185604051808473ffffffffffffffffffffffffffffffffffffffff1673ffffffffffffffffffffffffffffffffffffffff1681526020018360ff1681526020018260001916600019168152602001935050505060405180910390a15b600460009054906101000a900473ffffffffffffffffffffffffffffffffffffffff1673ffffffffffffffffffffffffffffffffffffffff163373ffffffffffffffffffffffffffffffffffffffff1614156113ae5782600881600019169055507fef00e24b0063e7a3434b9669ae0150f5f1f9ea3f13a646757ea02edaf539da6933600285604051808473ffffffffffffffffffffffffffffffffffffffff1673ffffffffffffffffffffffffffffffffffffffff1681526020018360ff1681526020018260001916600019168152602001935050505060405180910390a15b60096000600754600019166000191681526020019081526020016000206000600854600019166000191681526020019081526020016000205490507f54db0faaf6a59da989e3d48b779ea67741c77ef33c8f5f88036181f2012af32933600360009054906101000a900473ffffffffffffffffffffffffffffffffffffffff16600754600460009054906101000a900473ffffffffffffffffffffffffffffffffffffffff1660085486604051808773ffffffffffffffffffffffffffffffffffffffff1673ffffffffffffffffffffffffffffffffffffffff1681526020018673ffffffffffffffffffffffffffffffffffffffff1673ffffffffffffffffffffffffffffffffffffffff16815260200185600019166000191681526020018473ffffffffffffffffffffffffffffffffffffffff1673ffffffffffffffffffffffffffffffffffffffff1681526020018360001916600019168152602001828152602001965050505050505060405180910390a180915050919050565b6000600260009054906101000a900473ffffffffffffffffffffffffffffffffffffffff16905090565b81548183558181151161157e5781836000526020600020918201910161157d9190611583565b5b505050565b6115a591905b808211156115a1576000816000905550600101611589565b5090565b905600a165627a7a7230582098aba7f4fe1196828fc6a2d158ab0c57a565a19eca2d2b35953141ea35a4d4a00029",
  "source": "pragma solidity ^0.4.18;\n\nimport '../contractLibrary/contractModifiers/Pausable.sol';\n\ncontract RockPaperScissors is Pausable {\n\n  enum Choices { None, Rock, Paper, Scissors }\n\n  struct RecipientStruct {\n    uint balance;\n    bool exists;\n  }  \n\n  uint public correctDepositAmount;\n\n  address public sponsor;\n  address public playerOne;\n  address public playerTwo;\n\n  address[] private recipients;\n  mapping(address => RecipientStruct) public recipientStructs;\n\n  bytes32 private playerOneChoice = keccak256(Choices.None);\n  bytes32 private playerTwoChoice = keccak256(Choices.None);\n\n  mapping (bytes32 => mapping(bytes32 => uint)) playerChoices;\n\n  modifier onlySponsor() {\n    require(msg.sender == sponsor);\n    _;\n  }\n\n  event LogRegistration(address sender, uint8 player, uint balance,  uint deposit);\n  event LogPlayerChoice(address sender, uint8 player, bytes32 keccakChoice);\n  event LogOutcome(address sender, address playerOne, bytes32 playerOneChoice, address playerTwo, bytes32 playerTwoChoice, uint result);\n  event LogWithdraw(address sender, uint amount);\n\n  function RockPaperScissors(address campaignSponsor, uint depositAmount) \n    public \n  {\n    sponsor = campaignSponsor;\n\n    correctDepositAmount = depositAmount;\n\n    playerChoices[keccak256(Choices.Rock)][keccak256(Choices.Rock)] = 0;\n    playerChoices[keccak256(Choices.Rock)][keccak256(Choices.Paper)] = 2;\n    playerChoices[keccak256(Choices.Rock)][keccak256(Choices.Scissors)] = 1;\n    playerChoices[keccak256(Choices.Paper)][keccak256(Choices.Paper)] = 0;\n    playerChoices[keccak256(Choices.Paper)][keccak256(Choices.Rock)] = 1;\n    playerChoices[keccak256(Choices.Paper)][keccak256(Choices.Scissors)] = 2;\n    playerChoices[keccak256(Choices.Scissors)][keccak256(Choices.Scissors)] = 0;\n    playerChoices[keccak256(Choices.Scissors)][keccak256(Choices.Rock)] = 2;\n    playerChoices[keccak256(Choices.Scissors)][keccak256(Choices.Paper)] = 1;\n  }\n\n  modifier notRegisteredYet() {\n    if((playerOne == msg.sender) || (playerTwo == msg.sender)) {\n      revert();\n    } else {\n      _;\n    }\n  }\n\n  function register()\n    public\n    payable\n    notRegisteredYet\n    isActive\n    returns (bool success)\n  {\n    require(msg.value == correctDepositAmount);\n    require(!isRecipient(msg.sender));\n\n    recipients.push(msg.sender);\n    recipientStructs[msg.sender].exists = true;\n\n    if(playerOne == 0) {\n      playerOne = msg.sender;\n      LogRegistration(msg.sender, 1, recipientStructs[msg.sender].balance, msg.value);\n      recipientStructs[msg.sender].balance += msg.value;\n      return true;\n    }\n    if((playerTwo == 0) && (playerOne != msg.sender)) {\n      playerTwo = msg.sender;\n      LogRegistration(msg.sender, 2, recipientStructs[msg.sender].balance,  msg.value);\n      recipientStructs[msg.sender].balance += msg.value;\n      return true;\n    }\n\n    return false;\n  }\n\n  function playerChoice(bytes32 keccakChoice)\n    public\n    isActive\n    returns(uint winner)\n  {\n    require(playerOne == msg.sender || playerTwo == msg.sender);\n\n    if(msg.sender == playerOne) {\n      playerOneChoice = keccakChoice;\n      LogPlayerChoice(msg.sender, 1, keccakChoice);\n    }\n    if(msg.sender == playerTwo) {\n      playerTwoChoice = keccakChoice;\n      LogPlayerChoice(msg.sender, 2, keccakChoice);\n    }\n\n    uint result = playerChoices[playerOneChoice][playerTwoChoice];\n    LogOutcome(msg.sender, playerOne, playerOneChoice, playerTwo, playerTwoChoice, result);\n\n    return result;    \n  }\n\n  function withdraw()\n    public\n    isActive\n    returns(bool success)\n  {\n    uint payment = recipientStructs[msg.sender].balance;\n    require(payment > 0);\n\n    recipientStructs[msg.sender].balance = 0;\n    LogWithdraw(msg.sender, payment);\n\n    msg.sender.transfer(payment);\n\n    return true;\n  }\n\n  function getChoiceBytes32(Choices choice)\n    public\n    pure\n    returns(bytes32 choiceBytes32)\n  {\n    return keccak256(choice);\n  }\n\n  function isRecipient(address recipient) \n    public \n    constant \n    returns(bool isIndeed)\n  {\n    return recipientStructs[recipient].exists;\n  }\n\n  function getAddressCount() \n    public\n    constant \n    returns(uint count) \n  { \n    return recipients.length; \n  }\n\n  function getSponsor() \n    public\n    view\n    returns(address theSponsor)\n  {\n    return sponsor;\n  }\n\n}\n",
  "sourcePath": "/Users/whittlem/B9lab-ETH-17-Projects/Module_4-RockPaperScissors/contracts/RockPaperScissors.sol",
  "compiler": {
    "name": "solc",
    "version": "0.4.18+commit.9cf6e910.Emscripten.clang"
  },
  "schemaVersion": "1.0.1",
  "updatedAt": "2017-11-25T17:39:57.538Z"
}