{
  "contractName": "RockPaperScissors",
  "abi": [
    {
      "constant": true,
      "inputs": [
        {
          "name": "index",
          "type": "uint256"
        }
      ],
      "name": "getGameStruct",
      "outputs": [
        {
          "components": [
            {
              "name": "playerOne",
              "type": "address"
            },
            {
              "name": "playerOneChoiceConceiled",
              "type": "bytes32"
            },
            {
              "name": "playerOneChoiceReveiled",
              "type": "bytes32"
            },
            {
              "name": "playerTwo",
              "type": "address"
            },
            {
              "name": "playerTwoChoiceConceiled",
              "type": "bytes32"
            },
            {
              "name": "playerTwoChoiceReveiled",
              "type": "bytes32"
            },
            {
              "name": "gameStake",
              "type": "uint256"
            },
            {
              "name": "gameWinner",
              "type": "uint8"
            }
          ],
          "name": "gameStruct",
          "type": "tuple"
        }
      ],
      "payable": false,
      "stateMutability": "view",
      "type": "function"
    },
    {
      "constant": false,
      "inputs": [],
      "name": "pauseContract",
      "outputs": [
        {
          "name": "success",
          "type": "bool"
        }
      ],
      "payable": false,
      "stateMutability": "nonpayable",
      "type": "function"
    },
    {
      "constant": false,
      "inputs": [],
      "name": "startContract",
      "outputs": [
        {
          "name": "success",
          "type": "bool"
        }
      ],
      "payable": false,
      "stateMutability": "nonpayable",
      "type": "function"
    },
    {
      "constant": false,
      "inputs": [
        {
          "name": "_gameNumber",
          "type": "uint256"
        },
        {
          "name": "secretPin",
          "type": "uint256"
        }
      ],
      "name": "playerRevealForResult",
      "outputs": [
        {
          "name": "success",
          "type": "bool"
        }
      ],
      "payable": true,
      "stateMutability": "payable",
      "type": "function"
    },
    {
      "constant": true,
      "inputs": [],
      "name": "getOwner",
      "outputs": [
        {
          "name": "theOwner",
          "type": "address"
        }
      ],
      "payable": false,
      "stateMutability": "view",
      "type": "function"
    },
    {
      "constant": true,
      "inputs": [
        {
          "name": "_playerChoice",
          "type": "uint8"
        },
        {
          "name": "secretPin",
          "type": "uint256"
        }
      ],
      "name": "saltedChoiceHash",
      "outputs": [
        {
          "name": "hashedPassword",
          "type": "bytes32"
        }
      ],
      "payable": false,
      "stateMutability": "pure",
      "type": "function"
    },
    {
      "constant": false,
      "inputs": [
        {
          "name": "newOwner",
          "type": "address"
        }
      ],
      "name": "changeOwner",
      "outputs": [
        {
          "name": "transferSuccess",
          "type": "bool"
        }
      ],
      "payable": false,
      "stateMutability": "nonpayable",
      "type": "function"
    },
    {
      "constant": true,
      "inputs": [
        {
          "name": "",
          "type": "bytes32"
        },
        {
          "name": "",
          "type": "bytes32"
        }
      ],
      "name": "playerOptions",
      "outputs": [
        {
          "name": "",
          "type": "uint8"
        }
      ],
      "payable": false,
      "stateMutability": "view",
      "type": "function"
    },
    {
      "constant": true,
      "inputs": [],
      "name": "isPaused",
      "outputs": [
        {
          "name": "isIndeed",
          "type": "bool"
        }
      ],
      "payable": false,
      "stateMutability": "view",
      "type": "function"
    },
    {
      "constant": true,
      "inputs": [
        {
          "name": "player",
          "type": "address"
        }
      ],
      "name": "getPlayerStruct",
      "outputs": [
        {
          "components": [
            {
              "name": "balance",
              "type": "uint256"
            },
            {
              "name": "isInGame",
              "type": "bool"
            }
          ],
          "name": "playerStruct",
          "type": "tuple"
        }
      ],
      "payable": false,
      "stateMutability": "view",
      "type": "function"
    },
    {
      "constant": false,
      "inputs": [],
      "name": "withdrawWinnings",
      "outputs": [
        {
          "name": "success",
          "type": "bool"
        }
      ],
      "payable": false,
      "stateMutability": "nonpayable",
      "type": "function"
    },
    {
      "constant": true,
      "inputs": [],
      "name": "gameNumber",
      "outputs": [
        {
          "name": "",
          "type": "uint256"
        }
      ],
      "payable": false,
      "stateMutability": "view",
      "type": "function"
    },
    {
      "constant": true,
      "inputs": [],
      "name": "correctDepositAmount",
      "outputs": [
        {
          "name": "",
          "type": "uint256"
        }
      ],
      "payable": false,
      "stateMutability": "view",
      "type": "function"
    },
    {
      "constant": false,
      "inputs": [
        {
          "name": "hashedChoiceWithSecretPin",
          "type": "bytes32"
        }
      ],
      "name": "playerChoice",
      "outputs": [
        {
          "name": "_gameNumber",
          "type": "uint256"
        }
      ],
      "payable": true,
      "stateMutability": "payable",
      "type": "function"
    },
    {
      "inputs": [
        {
          "name": "setDepositAmount",
          "type": "uint256"
        }
      ],
      "payable": false,
      "stateMutability": "nonpayable",
      "type": "constructor"
    },
    {
      "anonymous": false,
      "inputs": [
        {
          "indexed": false,
          "name": "sender",
          "type": "address"
        },
        {
          "indexed": false,
          "name": "deposit",
          "type": "uint256"
        }
      ],
      "name": "LogDeposit",
      "type": "event"
    },
    {
      "anonymous": false,
      "inputs": [
        {
          "indexed": false,
          "name": "sender",
          "type": "address"
        },
        {
          "indexed": false,
          "name": "gameNumber",
          "type": "uint256"
        },
        {
          "indexed": false,
          "name": "playerNumber",
          "type": "uint256"
        },
        {
          "indexed": false,
          "name": "hashedChoiceWithSecretKey",
          "type": "bytes32"
        }
      ],
      "name": "LogPlayer",
      "type": "event"
    },
    {
      "anonymous": false,
      "inputs": [
        {
          "indexed": false,
          "name": "gameNumber",
          "type": "uint256"
        },
        {
          "indexed": false,
          "name": "gameResult",
          "type": "uint8"
        }
      ],
      "name": "LogOutcome",
      "type": "event"
    },
    {
      "anonymous": false,
      "inputs": [
        {
          "indexed": false,
          "name": "sender",
          "type": "address"
        },
        {
          "indexed": false,
          "name": "amount",
          "type": "uint256"
        }
      ],
      "name": "LogWithdraw",
      "type": "event"
    },
    {
      "anonymous": false,
      "inputs": [
        {
          "indexed": false,
          "name": "sender",
          "type": "address"
        }
      ],
      "name": "LogContractPause",
      "type": "event"
    },
    {
      "anonymous": false,
      "inputs": [
        {
          "indexed": false,
          "name": "sender",
          "type": "address"
        }
      ],
      "name": "LogContractResume",
      "type": "event"
    },
    {
      "anonymous": false,
      "inputs": [
        {
          "indexed": false,
          "name": "oldOwner",
          "type": "address"
        },
        {
          "indexed": false,
          "name": "newOwner",
          "type": "address"
        }
      ],
      "name": "LogNewOwner",
      "type": "event"
    }
  ],
  "bytecode": "0x606060405234156200001057600080fd5b6040516020806200278d83398101604052808051906020019091905050336000806101000a81548173ffffffffffffffffffffffffffffffffffffffff021916908373ffffffffffffffffffffffffffffffffffffffff1602179055506000811115156200007d57600080fd5b600060018190555080600281905550600160046000600160405180826003811115620000a557fe5b60ff167f010000000000000000000000000000000000000000000000000000000000000002815260010191505060405180910390206000191660001916815260200190815260200160002060006001604051808260038111156200010557fe5b60ff167f010000000000000000000000000000000000000000000000000000000000000002815260010191505060405180910390206000191660001916815260200190815260200160002060006101000a81548160ff021916908360038111156200016c57fe5b02179055506003600460006001604051808260038111156200018a57fe5b60ff167f01000000000000000000000000000000000000000000000000000000000000000281526001019150506040518091039020600019166000191681526020019081526020016000206000600260405180826003811115620001ea57fe5b60ff167f010000000000000000000000000000000000000000000000000000000000000002815260010191505060405180910390206000191660001916815260200190815260200160002060006101000a81548160ff021916908360038111156200025157fe5b02179055506002600460006001604051808260038111156200026f57fe5b60ff167f01000000000000000000000000000000000000000000000000000000000000000281526001019150506040518091039020600019166000191681526020019081526020016000206000600360405180826003811115620002cf57fe5b60ff167f010000000000000000000000000000000000000000000000000000000000000002815260010191505060405180910390206000191660001916815260200190815260200160002060006101000a81548160ff021916908360038111156200033657fe5b02179055506001600460006002604051808260038111156200035457fe5b60ff167f01000000000000000000000000000000000000000000000000000000000000000281526001019150506040518091039020600019166000191681526020019081526020016000206000600260405180826003811115620003b457fe5b60ff167f010000000000000000000000000000000000000000000000000000000000000002815260010191505060405180910390206000191660001916815260200190815260200160002060006101000a81548160ff021916908360038111156200041b57fe5b02179055506002600460006002604051808260038111156200043957fe5b60ff167f010000000000000000000000000000000000000000000000000000000000000002815260010191505060405180910390206000191660001916815260200190815260200160002060006001604051808260038111156200049957fe5b60ff167f010000000000000000000000000000000000000000000000000000000000000002815260010191505060405180910390206000191660001916815260200190815260200160002060006101000a81548160ff021916908360038111156200050057fe5b02179055506003600460006002604051808260038111156200051e57fe5b60ff167f010000000000000000000000000000000000000000000000000000000000000002815260010191505060405180910390206000191660001916815260200190815260200160002060006003604051808260038111156200057e57fe5b60ff167f010000000000000000000000000000000000000000000000000000000000000002815260010191505060405180910390206000191660001916815260200190815260200160002060006101000a81548160ff02191690836003811115620005e557fe5b02179055506001600460006003604051808260038111156200060357fe5b60ff167f010000000000000000000000000000000000000000000000000000000000000002815260010191505060405180910390206000191660001916815260200190815260200160002060006003604051808260038111156200066357fe5b60ff167f010000000000000000000000000000000000000000000000000000000000000002815260010191505060405180910390206000191660001916815260200190815260200160002060006101000a81548160ff02191690836003811115620006ca57fe5b0217905550600360046000600360405180826003811115620006e857fe5b60ff167f010000000000000000000000000000000000000000000000000000000000000002815260010191505060405180910390206000191660001916815260200190815260200160002060006001604051808260038111156200074857fe5b60ff167f010000000000000000000000000000000000000000000000000000000000000002815260010191505060405180910390206000191660001916815260200190815260200160002060006101000a81548160ff02191690836003811115620007af57fe5b0217905550600260046000600360405180826003811115620007cd57fe5b60ff167f010000000000000000000000000000000000000000000000000000000000000002815260010191505060405180910390206000191660001916815260200190815260200160002060006002604051808260038111156200082d57fe5b60ff167f010000000000000000000000000000000000000000000000000000000000000002815260010191505060405180910390206000191660001916815260200190815260200160002060006101000a81548160ff021916908360038111156200089457fe5b021790555050611ee380620008aa6000396000f3006060604052600436106100d0576000357c0100000000000000000000000000000000000000000000000000000000900463ffffffff168063378a5c0a146100d5578063439766ce1461010c5780635fb02f4d1461013957806383e5acac14610166578063893d20e81461019f5780638f886c61146101f4578063a6f9dae11461023f578063acca52cf14610290578063b187bd26146102e6578063b4716eaa14610313578063cc42e83a14610360578063d8d40cee1461038d578063dfad7f3a146103b6578063efe2c462146103df575b600080fd5b34156100e057600080fd5b6100f6600480803590602001909190505061040f565b6040518082815260200191505060405180910390f35b341561011757600080fd5b61011f610569565b604051808215151515815260200191505060405180910390f35b341561014457600080fd5b61014c61064b565b604051808215151515815260200191505060405180910390f35b610185600480803590602001909190803590602001909190505061072c565b604051808215151515815260200191505060405180910390f35b34156101aa57600080fd5b6101b2611318565b604051808273ffffffffffffffffffffffffffffffffffffffff1673ffffffffffffffffffffffffffffffffffffffff16815260200191505060405180910390f35b34156101ff57600080fd5b610221600480803560ff16906020019091908035906020019091905050611341565b60405180826000191660001916815260200191505060405180910390f35b341561024a57600080fd5b610276600480803573ffffffffffffffffffffffffffffffffffffffff169060200190919050506113b6565b604051808215151515815260200191505060405180910390f35b341561029b57600080fd5b6102c260048080356000191690602001909190803560001916906020019091905050611575565b604051808260038111156102d257fe5b60ff16815260200191505060405180910390f35b34156102f157600080fd5b6102f96115a4565b604051808215151515815260200191505060405180910390f35b341561031e57600080fd5b61034a600480803573ffffffffffffffffffffffffffffffffffffffff169060200190919050506115ba565b6040518082815260200191505060405180910390f35b341561036b57600080fd5b610373611638565b604051808215151515815260200191505060405180910390f35b341561039857600080fd5b6103a0611802565b6040518082815260200191505060405180910390f35b34156103c157600080fd5b6103c9611808565b6040518082815260200191505060405180910390f35b6103f960048080356000191690602001909190505061180e565b6040518082815260200191505060405180910390f35b610417611e12565b6003600083815260200190815260200160002061010060405190810160405290816000820160009054906101000a900473ffffffffffffffffffffffffffffffffffffffff1673ffffffffffffffffffffffffffffffffffffffff1673ffffffffffffffffffffffffffffffffffffffff1681526020016001820154600019166000191681526020016002820154600019166000191681526020016003820160009054906101000a900473ffffffffffffffffffffffffffffffffffffffff1673ffffffffffffffffffffffffffffffffffffffff1673ffffffffffffffffffffffffffffffffffffffff168152602001600482015460001916600019168152602001600582015460001916600019168152602001600682015481526020016007820160009054906101000a900460ff16600381111561055357fe5b600381111561055e57fe5b815250509050919050565b60008060009054906101000a900473ffffffffffffffffffffffffffffffffffffffff1673ffffffffffffffffffffffffffffffffffffffff163373ffffffffffffffffffffffffffffffffffffffff161415156105c657600080fd5b6001600060146101000a81548160ff0219169083151502179055507f9022f48034574f88d5dde439a5da7ebc25082f77761e9d1db4915cea52ade9dc33604051808273ffffffffffffffffffffffffffffffffffffffff1673ffffffffffffffffffffffffffffffffffffffff16815260200191505060405180910390a16001905090565b60008060009054906101000a900473ffffffffffffffffffffffffffffffffffffffff1673ffffffffffffffffffffffffffffffffffffffff163373ffffffffffffffffffffffffffffffffffffffff161415156106a857600080fd5b60008060146101000a81548160ff0219169083151502179055507fa8ddc33bcc81d4475dfdcb2c883e97be008d608cc0c8a48aa5a8d1076b99654433604051808273ffffffffffffffffffffffffffffffffffffffff1673ffffffffffffffffffffffffffffffffffffffff16815260200191505060405180910390a16001905090565b6000610736611e12565b60008060149054906101000a900460ff1615151561075357600080fd5b60008411151561076257600080fd5b6003600086815260200190815260200160002061010060405190810160405290816000820160009054906101000a900473ffffffffffffffffffffffffffffffffffffffff1673ffffffffffffffffffffffffffffffffffffffff1673ffffffffffffffffffffffffffffffffffffffff1681526020016001820154600019166000191681526020016002820154600019166000191681526020016003820160009054906101000a900473ffffffffffffffffffffffffffffffffffffffff1673ffffffffffffffffffffffffffffffffffffffff1673ffffffffffffffffffffffffffffffffffffffff168152602001600482015460001916600019168152602001600582015460001916600019168152602001600682015481526020016007820160009054906101000a900460ff16600381111561089e57fe5b60038111156108a957fe5b815250509150816000015173ffffffffffffffffffffffffffffffffffffffff163373ffffffffffffffffffffffffffffffffffffffff16148061091c5750816060015173ffffffffffffffffffffffffffffffffffffffff163373ffffffffffffffffffffffffffffffffffffffff16145b151561092757600080fd5b816000015173ffffffffffffffffffffffffffffffffffffffff163373ffffffffffffffffffffffffffffffffffffffff161415610c0e5760016040518082600381111561097157fe5b60ff167f0100000000000000000000000000000000000000000000000000000000000000028152600101915050604051809103902084604051808360001916600019168152602001828152602001925050506040518091039020600019168260200151600019161415610a3d576001604051808260038111156109f057fe5b60ff167f0100000000000000000000000000000000000000000000000000000000000000028152600101915050604051809103902082604001906000191690816000191681525050610c09565b600260405180826003811115610a4f57fe5b60ff167f0100000000000000000000000000000000000000000000000000000000000000028152600101915050604051809103902084604051808360001916600019168152602001828152602001925050506040518091039020600019168260200151600019161415610b1b57600260405180826003811115610ace57fe5b60ff167f0100000000000000000000000000000000000000000000000000000000000000028152600101915050604051809103902082604001906000191690816000191681525050610c08565b600360405180826003811115610b2d57fe5b60ff167f0100000000000000000000000000000000000000000000000000000000000000028152600101915050604051809103902084604051808360001916600019168152602001828152602001925050506040518091039020600019168260200151600019161415610bf957600360405180826003811115610bac57fe5b60ff167f0100000000000000000000000000000000000000000000000000000000000000028152600101915050604051809103902082604001906000191690816000191681525050610c07565b60001515610c0657600080fd5b5b5b5b610ef2565b816060015173ffffffffffffffffffffffffffffffffffffffff163373ffffffffffffffffffffffffffffffffffffffff161415610ef157600160405180826003811115610c5857fe5b60ff167f0100000000000000000000000000000000000000000000000000000000000000028152600101915050604051809103902084604051808360001916600019168152602001828152602001925050506040518091039020600019168260800151600019161415610d2457600160405180826003811115610cd757fe5b60ff167f010000000000000000000000000000000000000000000000000000000000000002815260010191505060405180910390208260a001906000191690816000191681525050610ef0565b600260405180826003811115610d3657fe5b60ff167f0100000000000000000000000000000000000000000000000000000000000000028152600101915050604051809103902084604051808360001916600019168152602001828152602001925050506040518091039020600019168260800151600019161415610e0257600260405180826003811115610db557fe5b60ff167f010000000000000000000000000000000000000000000000000000000000000002815260010191505060405180910390208260a001906000191690816000191681525050610eef565b600360405180826003811115610e1457fe5b60ff167f0100000000000000000000000000000000000000000000000000000000000000028152600101915050604051809103902084604051808360001916600019168152602001828152602001925050506040518091039020600019168260800151600019161415610ee057600360405180826003811115610e9357fe5b60ff167f010000000000000000000000000000000000000000000000000000000000000002815260010191505060405180910390208260a001906000191690816000191681525050610eee565b60001515610eed57600080fd5b5b5b5b5b5b600060010282604001516000191614158015610f1a575060006001028260a001516000191614155b156111f2576004600083604001516000191660001916815260200190815260200160002060008360a001516000191660001916815260200190815260200160002060009054906101000a900460ff169050808260e001906003811115610f7c57fe5b90816003811115610f8957fe5b815250507f78dbafb6a02a27c861be381bceb15ee5f5fbf557160bc9735d9f9f06e7c11a5f6001548260405180838152602001826003811115610fc857fe5b60ff1681526020019250505060405180910390a160026003811115610fe957fe5b816003811115610ff557fe5b14156110b0578160c0015160056000846000015173ffffffffffffffffffffffffffffffffffffffff1673ffffffffffffffffffffffffffffffffffffffff168152602001908152602001600020600001600082825401925050819055508160c0015160056000846060015173ffffffffffffffffffffffffffffffffffffffff1673ffffffffffffffffffffffffffffffffffffffff16815260200190815260200160002060000160008282540392505081905550611180565b6003808111156110bc57fe5b8160038111156110c857fe5b141561117f578160c0015160056000846000015173ffffffffffffffffffffffffffffffffffffffff1673ffffffffffffffffffffffffffffffffffffffff168152602001908152602001600020600001600082825403925050819055508160c0015160056000846060015173ffffffffffffffffffffffffffffffffffffffff1673ffffffffffffffffffffffffffffffffffffffff168152602001908152602001600020600001600082825401925050819055505b5b600060056000846000015173ffffffffffffffffffffffffffffffffffffffff1673ffffffffffffffffffffffffffffffffffffffff16815260200190815260200160002060010160006101000a81548160ff0219169083151502179055506001600081548092919060010191905055505b8160036000600154815260200190815260200160002060008201518160000160006101000a81548173ffffffffffffffffffffffffffffffffffffffff021916908373ffffffffffffffffffffffffffffffffffffffff160217905550602082015181600101906000191690556040820151816002019060001916905560608201518160030160006101000a81548173ffffffffffffffffffffffffffffffffffffffff021916908373ffffffffffffffffffffffffffffffffffffffff1602179055506080820151816004019060001916905560a0820151816005019060001916905560c0820151816006015560e08201518160070160006101000a81548160ff0219169083600381111561130457fe5b021790555090505060019250505092915050565b60008060009054906101000a900473ffffffffffffffffffffffffffffffffffffffff16905090565b6000826040518082600381111561135457fe5b60ff167f0100000000000000000000000000000000000000000000000000000000000000028152600101915050604051809103902082604051808360001916600019168152602001828152602001925050506040518091039020905092915050565b60008060009054906101000a900473ffffffffffffffffffffffffffffffffffffffff1673ffffffffffffffffffffffffffffffffffffffff163373ffffffffffffffffffffffffffffffffffffffff1614151561141357600080fd5b60008273ffffffffffffffffffffffffffffffffffffffff161415151561143957600080fd5b3373ffffffffffffffffffffffffffffffffffffffff168273ffffffffffffffffffffffffffffffffffffffff161415151561147457600080fd5b7f1f8d7d25344642d919d55999e4664aa452a5f424bc0936ceb9c2b300db7dcbd96000809054906101000a900473ffffffffffffffffffffffffffffffffffffffff1683604051808373ffffffffffffffffffffffffffffffffffffffff1673ffffffffffffffffffffffffffffffffffffffff1681526020018273ffffffffffffffffffffffffffffffffffffffff1673ffffffffffffffffffffffffffffffffffffffff1681526020019250505060405180910390a1816000806101000a81548173ffffffffffffffffffffffffffffffffffffffff021916908373ffffffffffffffffffffffffffffffffffffffff16021790555060019050919050565b60046020528160005260406000206020528060005260406000206000915091509054906101000a900460ff1681565b60008060149054906101000a900460ff16905090565b6115c2611e9b565b600560008373ffffffffffffffffffffffffffffffffffffffff1673ffffffffffffffffffffffffffffffffffffffff168152602001908152602001600020604080519081016040529081600082015481526020016001820160009054906101000a900460ff1615151515815250509050919050565b600080600060149054906101000a900460ff1615151561165757600080fd5b600560003373ffffffffffffffffffffffffffffffffffffffff1673ffffffffffffffffffffffffffffffffffffffff16815260200190815260200160002060010160009054906101000a900460ff161515156116b357600080fd5b600560003373ffffffffffffffffffffffffffffffffffffffff1673ffffffffffffffffffffffffffffffffffffffff16815260200190815260200160002060000154905060008111151561170757600080fd5b6000600560003373ffffffffffffffffffffffffffffffffffffffff1673ffffffffffffffffffffffffffffffffffffffff168152602001908152602001600020600001819055507f4ce7033d118120e254016dccf195288400b28fc8936425acd5f17ce2df3ab7083382604051808373ffffffffffffffffffffffffffffffffffffffff1673ffffffffffffffffffffffffffffffffffffffff1681526020018281526020019250505060405180910390a13373ffffffffffffffffffffffffffffffffffffffff166108fc829081150290604051600060405180830381858888f1935050505015156117fa57600080fd5b600191505090565b60015481565b60025481565b6000611818611e12565b600060149054906101000a900460ff1615151561183457600080fd5b6002543414151561184457600080fd5b34600560003373ffffffffffffffffffffffffffffffffffffffff1673ffffffffffffffffffffffffffffffffffffffff168152602001908152602001600020600001600082825401925050819055507f1b851e1031ef35a238e6c67d0c7991162390df915f70eaf9098dbf0b175a61983334604051808373ffffffffffffffffffffffffffffffffffffffff1673ffffffffffffffffffffffffffffffffffffffff1681526020018281526020019250505060405180910390a160036000600154815260200190815260200160002061010060405190810160405290816000820160009054906101000a900473ffffffffffffffffffffffffffffffffffffffff1673ffffffffffffffffffffffffffffffffffffffff1673ffffffffffffffffffffffffffffffffffffffff1681526020016001820154600019166000191681526020016002820154600019166000191681526020016003820160009054906101000a900473ffffffffffffffffffffffffffffffffffffffff1673ffffffffffffffffffffffffffffffffffffffff1673ffffffffffffffffffffffffffffffffffffffff168152602001600482015460001916600019168152602001600582015460001916600019168152602001600682015481526020016007820160009054906101000a900460ff166003811115611a3d57fe5b6003811115611a4857fe5b8152505090506002548160c00181815250506000816000015173ffffffffffffffffffffffffffffffffffffffff161415611bb3576001600560003373ffffffffffffffffffffffffffffffffffffffff1673ffffffffffffffffffffffffffffffffffffffff16815260200190815260200160002060010160006101000a81548160ff02191690831515021790555033816000019073ffffffffffffffffffffffffffffffffffffffff16908173ffffffffffffffffffffffffffffffffffffffff168152505082816020019060001916908160001916815250507f4eae6851397a963bd41c977d7e3bd2a2bd923356992c4a8541065abb647016663360015460018460200151604051808573ffffffffffffffffffffffffffffffffffffffff1673ffffffffffffffffffffffffffffffffffffffff168152602001848152602001838152602001826000191660001916815260200194505050505060405180910390a1611ced565b6000816060015173ffffffffffffffffffffffffffffffffffffffff161415611cec57806000015173ffffffffffffffffffffffffffffffffffffffff163373ffffffffffffffffffffffffffffffffffffffff1614151515611c1557600080fd5b33816060019073ffffffffffffffffffffffffffffffffffffffff16908173ffffffffffffffffffffffffffffffffffffffff168152505082816080019060001916908160001916815250507f4eae6851397a963bd41c977d7e3bd2a2bd923356992c4a8541065abb647016663360015460028460800151604051808573ffffffffffffffffffffffffffffffffffffffff1673ffffffffffffffffffffffffffffffffffffffff168152602001848152602001838152602001826000191660001916815260200194505050505060405180910390a15b5b8060036000600154815260200190815260200160002060008201518160000160006101000a81548173ffffffffffffffffffffffffffffffffffffffff021916908373ffffffffffffffffffffffffffffffffffffffff160217905550602082015181600101906000191690556040820151816002019060001916905560608201518160030160006101000a81548173ffffffffffffffffffffffffffffffffffffffff021916908373ffffffffffffffffffffffffffffffffffffffff1602179055506080820151816004019060001916905560a0820151816005019060001916905560c0820151816006015560e08201518160070160006101000a81548160ff02191690836003811115611dff57fe5b0217905550905050600154915050919050565b61010060405190810160405280600073ffffffffffffffffffffffffffffffffffffffff1681526020016000801916815260200160008019168152602001600073ffffffffffffffffffffffffffffffffffffffff16815260200160008019168152602001600080191681526020016000815260200160006003811115611e9557fe5b81525090565b60408051908101604052806000815260200160001515815250905600a165627a7a723058209f72df3c38581c64c18bf13b14246f3651a0e6afc87cef3de8065c5e794ff0a00029",
  "source": "pragma solidity ^0.4.18;\n\nimport '../contractLibrary/contracts/contractModifiers/Pausable.sol';\n\ncontract RockPaperScissors is Pausable {\n\n    enum Choices { None, Rock, Paper, Scissors }\n    enum Outcomes { None, Draw, PlayerOneWinner, PlayerTwoWinner }\n\n    struct PlayerStruct {\n        uint        balance;\n        bool        isInGame;\n    }\n\n    struct GameStruct {\n        address     playerOne;\n        bytes32     playerOneChoiceConceiled;\n        bytes32     playerOneChoiceReveiled;\n        address     playerTwo;\n        bytes32     playerTwoChoiceConceiled;\n        bytes32     playerTwoChoiceReveiled;\n        uint        gameStake;\n        Outcomes    gameWinner;\n    }\n\n    uint public gameNumber;\n    uint public correctDepositAmount;\n    \n    mapping(uint => GameStruct) private gameStructs;\n    mapping(bytes32 => mapping(bytes32 => Outcomes)) public playerOptions;\n    mapping(address => PlayerStruct) private playerBalances;\n    \n    event LogDeposit(address sender, uint deposit);\n    event LogPlayer(address sender, uint gameNumber, uint playerNumber, bytes32 hashedChoiceWithSecretKey);\n    event LogOutcome(uint gameNumber, Outcomes gameResult);\n    event LogWithdraw(address sender, uint amount);\n    \n    modifier gameNotInProgress() {\n        require(!playerBalances[msg.sender].isInGame); \n        _;\n    }\n    \n    function RockPaperScissors(uint setDepositAmount)\n        public\n    {\n        require(setDepositAmount > 0);\n        \n        gameNumber = 0;\n        correctDepositAmount = setDepositAmount;\n\n        playerOptions[keccak256(Choices.Rock)][keccak256(Choices.Rock)] = Outcomes.Draw;\n        playerOptions[keccak256(Choices.Rock)][keccak256(Choices.Paper)] = Outcomes.PlayerTwoWinner;\n        playerOptions[keccak256(Choices.Rock)][keccak256(Choices.Scissors)] = Outcomes.PlayerOneWinner;\n        playerOptions[keccak256(Choices.Paper)][keccak256(Choices.Paper)] = Outcomes.Draw;\n        playerOptions[keccak256(Choices.Paper)][keccak256(Choices.Rock)] = Outcomes.PlayerOneWinner;\n        playerOptions[keccak256(Choices.Paper)][keccak256(Choices.Scissors)] = Outcomes.PlayerTwoWinner;\n        playerOptions[keccak256(Choices.Scissors)][keccak256(Choices.Scissors)] = Outcomes.Draw;\n        playerOptions[keccak256(Choices.Scissors)][keccak256(Choices.Rock)] = Outcomes.PlayerTwoWinner;\n        playerOptions[keccak256(Choices.Scissors)][keccak256(Choices.Paper)] = Outcomes.PlayerOneWinner;\n    }\n    \n    function playerChoice(bytes32 hashedChoiceWithSecretPin)\n        public\n        payable\n        isActive\n        returns(uint _gameNumber)\n    {\n        require(msg.value == correctDepositAmount);\n        playerBalances[msg.sender].balance += msg.value;\n        LogDeposit(msg.sender, msg.value);\n\n        GameStruct memory game = gameStructs[gameNumber];\n        game.gameStake = correctDepositAmount;\n        \n        if(game.playerOne == 0) {\n            playerBalances[msg.sender].isInGame = true;\n            game.playerOne = msg.sender;\n            game.playerOneChoiceConceiled = hashedChoiceWithSecretPin;\n            LogPlayer(msg.sender, gameNumber, 1, game.playerOneChoiceConceiled);\n        } else if(game.playerTwo == 0) {\n            require(msg.sender != game.playerOne);\n            game.playerTwo = msg.sender;\n            game.playerTwoChoiceConceiled = hashedChoiceWithSecretPin;\n            LogPlayer(msg.sender, gameNumber, 2, game.playerTwoChoiceConceiled);\n        }\n        \n        gameStructs[gameNumber] = game;\n        \n        return gameNumber;\n    }\n    \n    function playerRevealForResult(uint _gameNumber, uint secretPin)\n        public\n        payable\n        isActive\n        returns(bool success)\n    {\n        require(secretPin > 0);\n        GameStruct memory game = gameStructs[_gameNumber];\n        require(msg.sender == game.playerOne || msg.sender == game.playerTwo);\n        \n        if(msg.sender == game.playerOne) {\n            if(game.playerOneChoiceConceiled == keccak256(keccak256(Choices.Rock), secretPin)) {\n                game.playerOneChoiceReveiled = keccak256(Choices.Rock);\n            } else if(game.playerOneChoiceConceiled == keccak256(keccak256(Choices.Paper), secretPin)) {\n                game.playerOneChoiceReveiled = keccak256(Choices.Paper);\n            } else if(game.playerOneChoiceConceiled == keccak256(keccak256(Choices.Scissors), secretPin)) {\n                game.playerOneChoiceReveiled = keccak256(Choices.Scissors);\n            } else {\n                require(false);\n            }\n        } else if(msg.sender == game.playerTwo) {\n            if(game.playerTwoChoiceConceiled == keccak256(keccak256(Choices.Rock), secretPin)) {\n                game.playerTwoChoiceReveiled = keccak256(Choices.Rock);\n            } else if(game.playerTwoChoiceConceiled == keccak256(keccak256(Choices.Paper), secretPin)) {\n                game.playerTwoChoiceReveiled = keccak256(Choices.Paper);\n            } else if(game.playerTwoChoiceConceiled == keccak256(keccak256(Choices.Scissors), secretPin)) {\n                game.playerTwoChoiceReveiled = keccak256(Choices.Scissors);\n            } else {\n                require(false);\n            }\n        }\n        \n        if((game.playerOneChoiceReveiled != 0x0) && (game.playerTwoChoiceReveiled != 0x0)) {\n            Outcomes gameResult = playerOptions[game.playerOneChoiceReveiled][game.playerTwoChoiceReveiled];\n            game.gameWinner = gameResult;\n            LogOutcome(gameNumber, gameResult);\n            \n            if(gameResult == Outcomes.PlayerOneWinner) {\n                playerBalances[game.playerOne].balance += game.gameStake;\n                playerBalances[game.playerTwo].balance -= game.gameStake;\n            } else if(gameResult == Outcomes.PlayerTwoWinner) {\n                playerBalances[game.playerOne].balance -= game.gameStake;\n                playerBalances[game.playerTwo].balance += game.gameStake;\n            }\n            \n            playerBalances[game.playerOne].isInGame = false;\n            gameNumber++;\n        }\n        \n        gameStructs[gameNumber] = game;\n        \n        return true;\n    }\n    \n    function withdrawWinnings() \n        public\n        isActive\n        gameNotInProgress\n        returns(bool success)\n    {\n        uint payment = playerBalances[msg.sender].balance;\n        require(payment > 0);\n\n        playerBalances[msg.sender].balance = 0;\n        LogWithdraw(msg.sender, payment);\n\n        msg.sender.transfer(payment);\n\n        return true;\n    }\n    \n    /** Pure */\n    \n    function saltedChoiceHash(Choices _playerChoice, uint secretPin)\n        public\n        pure\n        returns(bytes32 hashedPassword)\n    {    \n        return keccak256(keccak256(_playerChoice), secretPin);\n    }\n    \n    /** Getters */\n\n    function getGameStruct(uint index) \n        public\n        view\n        returns(GameStruct gameStruct)\n    {\n        return gameStructs[index];\n    }\n\n    function getPlayerStruct(address player)\n        public\n        view\n        returns(PlayerStruct playerStruct)\n    {\n        return playerBalances[player];\n    }\n   \n}\n",
  "sourcePath": "/Users/whittlem/B9lab-ETH-17-Projects/Module_4-RockPaperScissors/contracts/RockPaperScissors.sol",
  "compiler": {
    "name": "solc",
    "version": "0.4.18+commit.9cf6e910.Emscripten.clang"
  },
  "schemaVersion": "1.0.1",
  "updatedAt": "2017-12-23T13:27:32.199Z"
}