{
  "contractName": "RockPaperScissors",
  "abi": [
    {
      "constant": true,
      "inputs": [],
      "name": "getBalance",
      "outputs": [
        {
          "name": "balance",
          "type": "uint256"
        }
      ],
      "payable": false,
      "stateMutability": "view",
      "type": "function"
    },
    {
      "constant": false,
      "inputs": [],
      "name": "pauseContract",
      "outputs": [
        {
          "name": "success",
          "type": "bool"
        }
      ],
      "payable": false,
      "stateMutability": "nonpayable",
      "type": "function"
    },
    {
      "constant": false,
      "inputs": [],
      "name": "startContract",
      "outputs": [
        {
          "name": "success",
          "type": "bool"
        }
      ],
      "payable": false,
      "stateMutability": "nonpayable",
      "type": "function"
    },
    {
      "constant": true,
      "inputs": [],
      "name": "getOwner",
      "outputs": [
        {
          "name": "theOwner",
          "type": "address"
        }
      ],
      "payable": false,
      "stateMutability": "view",
      "type": "function"
    },
    {
      "constant": false,
      "inputs": [
        {
          "name": "choice",
          "type": "uint8"
        }
      ],
      "name": "playerChoice",
      "outputs": [
        {
          "name": "success",
          "type": "bool"
        }
      ],
      "payable": true,
      "stateMutability": "payable",
      "type": "function"
    },
    {
      "constant": false,
      "inputs": [
        {
          "name": "newOwner",
          "type": "address"
        }
      ],
      "name": "changeOwner",
      "outputs": [
        {
          "name": "transferSuccess",
          "type": "bool"
        }
      ],
      "payable": false,
      "stateMutability": "nonpayable",
      "type": "function"
    },
    {
      "constant": true,
      "inputs": [],
      "name": "isPaused",
      "outputs": [
        {
          "name": "isIndeed",
          "type": "bool"
        }
      ],
      "payable": false,
      "stateMutability": "view",
      "type": "function"
    },
    {
      "constant": false,
      "inputs": [],
      "name": "withdrawWinnings",
      "outputs": [
        {
          "name": "success",
          "type": "bool"
        }
      ],
      "payable": false,
      "stateMutability": "nonpayable",
      "type": "function"
    },
    {
      "constant": true,
      "inputs": [],
      "name": "gameNumber",
      "outputs": [
        {
          "name": "",
          "type": "uint256"
        }
      ],
      "payable": false,
      "stateMutability": "view",
      "type": "function"
    },
    {
      "constant": true,
      "inputs": [],
      "name": "correctDepositAmount",
      "outputs": [
        {
          "name": "",
          "type": "uint256"
        }
      ],
      "payable": false,
      "stateMutability": "view",
      "type": "function"
    },
    {
      "inputs": [
        {
          "name": "setDepositAmount",
          "type": "uint256"
        }
      ],
      "payable": false,
      "stateMutability": "nonpayable",
      "type": "constructor"
    },
    {
      "anonymous": false,
      "inputs": [
        {
          "indexed": false,
          "name": "sender",
          "type": "address"
        },
        {
          "indexed": false,
          "name": "deposit",
          "type": "uint256"
        },
        {
          "indexed": false,
          "name": "balance",
          "type": "uint256"
        }
      ],
      "name": "LogDeposit",
      "type": "event"
    },
    {
      "anonymous": false,
      "inputs": [
        {
          "indexed": false,
          "name": "sender",
          "type": "address"
        },
        {
          "indexed": false,
          "name": "gameNumber",
          "type": "uint256"
        },
        {
          "indexed": false,
          "name": "playerNumber",
          "type": "uint256"
        },
        {
          "indexed": false,
          "name": "choice",
          "type": "uint8"
        }
      ],
      "name": "LogPlayer",
      "type": "event"
    },
    {
      "anonymous": false,
      "inputs": [
        {
          "indexed": false,
          "name": "gameNumber",
          "type": "uint256"
        },
        {
          "indexed": false,
          "name": "gameResult",
          "type": "uint256"
        }
      ],
      "name": "LogOutcome",
      "type": "event"
    },
    {
      "anonymous": false,
      "inputs": [
        {
          "indexed": false,
          "name": "sender",
          "type": "address"
        },
        {
          "indexed": false,
          "name": "amount",
          "type": "uint256"
        }
      ],
      "name": "LogWithdraw",
      "type": "event"
    },
    {
      "anonymous": false,
      "inputs": [
        {
          "indexed": false,
          "name": "sender",
          "type": "address"
        }
      ],
      "name": "LogContractPause",
      "type": "event"
    },
    {
      "anonymous": false,
      "inputs": [
        {
          "indexed": false,
          "name": "sender",
          "type": "address"
        }
      ],
      "name": "LogContractResume",
      "type": "event"
    },
    {
      "anonymous": false,
      "inputs": [
        {
          "indexed": false,
          "name": "oldOwner",
          "type": "address"
        },
        {
          "indexed": false,
          "name": "newOwner",
          "type": "address"
        }
      ],
      "name": "LogNewOwner",
      "type": "event"
    }
  ],
  "bytecode": "0x606060405234156200001057600080fd5b604051602080620019d183398101604052808051906020019091905050336000806101000a81548173ffffffffffffffffffffffffffffffffffffffff021916908373ffffffffffffffffffffffffffffffffffffffff1602179055506000811115156200007d57600080fd5b60018081905550806002819055506000600460008060405180826002811115620000a357fe5b60ff167f0100000000000000000000000000000000000000000000000000000000000000028152600101915050604051809103902060001916600019168152602001908152602001600020600080604051808260028111156200010257fe5b60ff167f01000000000000000000000000000000000000000000000000000000000000000281526001019150506040518091039020600019166000191681526020019081526020016000208190555060026004600080604051808260028111156200016957fe5b60ff167f01000000000000000000000000000000000000000000000000000000000000000281526001019150506040518091039020600019166000191681526020019081526020016000206000600160405180826002811115620001c957fe5b60ff167f01000000000000000000000000000000000000000000000000000000000000000281526001019150506040518091039020600019166000191681526020019081526020016000208190555060016004600080604051808260028111156200023057fe5b60ff167f010000000000000000000000000000000000000000000000000000000000000002815260010191505060405180910390206000191660001916815260200190815260200160002060006002604051808260028111156200029057fe5b60ff167f010000000000000000000000000000000000000000000000000000000000000002815260010191505060405180910390206000191660001916815260200190815260200160002081905550600060046000600160405180826002811115620002f857fe5b60ff167f010000000000000000000000000000000000000000000000000000000000000002815260010191505060405180910390206000191660001916815260200190815260200160002060006001604051808260028111156200035857fe5b60ff167f010000000000000000000000000000000000000000000000000000000000000002815260010191505060405180910390206000191660001916815260200190815260200160002081905550600160046000600160405180826002811115620003c057fe5b60ff167f0100000000000000000000000000000000000000000000000000000000000000028152600101915050604051809103902060001916600019168152602001908152602001600020600080604051808260028111156200041f57fe5b60ff167f0100000000000000000000000000000000000000000000000000000000000000028152600101915050604051809103902060001916600019168152602001908152602001600020819055506002600460006001604051808260028111156200048757fe5b60ff167f01000000000000000000000000000000000000000000000000000000000000000281526001019150506040518091039020600019166000191681526020019081526020016000206000600260405180826002811115620004e757fe5b60ff167f0100000000000000000000000000000000000000000000000000000000000000028152600101915050604051809103902060001916600019168152602001908152602001600020819055506000600460006002604051808260028111156200054f57fe5b60ff167f01000000000000000000000000000000000000000000000000000000000000000281526001019150506040518091039020600019166000191681526020019081526020016000206000600260405180826002811115620005af57fe5b60ff167f0100000000000000000000000000000000000000000000000000000000000000028152600101915050604051809103902060001916600019168152602001908152602001600020819055506002600460006002604051808260028111156200061757fe5b60ff167f0100000000000000000000000000000000000000000000000000000000000000028152600101915050604051809103902060001916600019168152602001908152602001600020600080604051808260028111156200067657fe5b60ff167f010000000000000000000000000000000000000000000000000000000000000002815260010191505060405180910390206000191660001916815260200190815260200160002081905550600160046000600260405180826002811115620006de57fe5b60ff167f010000000000000000000000000000000000000000000000000000000000000002815260010191505060405180910390206000191660001916815260200190815260200160002060006001604051808260028111156200073e57fe5b60ff167f01000000000000000000000000000000000000000000000000000000000000000281526001019150506040518091039020600019166000191681526020019081526020016000208190555050611233806200079e6000396000f3006060604052600436106100a4576000357c0100000000000000000000000000000000000000000000000000000000900463ffffffff16806312065fe0146100a9578063439766ce146100d25780635fb02f4d146100ff578063893d20e81461012c57806393669bcf14610181578063a6f9dae1146101b4578063b187bd2614610205578063cc42e83a14610232578063d8d40cee1461025f578063dfad7f3a14610288575b600080fd5b34156100b457600080fd5b6100bc6102b1565b6040518082815260200191505060405180910390f35b34156100dd57600080fd5b6100e56102fb565b604051808215151515815260200191505060405180910390f35b341561010a57600080fd5b6101126103dd565b604051808215151515815260200191505060405180910390f35b341561013757600080fd5b61013f6104be565b604051808273ffffffffffffffffffffffffffffffffffffffff1673ffffffffffffffffffffffffffffffffffffffff16815260200191505060405180910390f35b61019a600480803560ff169060200190919050506104e7565b604051808215151515815260200191505060405180910390f35b34156101bf57600080fd5b6101eb600480803573ffffffffffffffffffffffffffffffffffffffff16906020019091905050610e5c565b604051808215151515815260200191505060405180910390f35b341561021057600080fd5b61021861101b565b604051808215151515815260200191505060405180910390f35b341561023d57600080fd5b610245611031565b604051808215151515815260200191505060405180910390f35b341561026a57600080fd5b6102726111fb565b6040518082815260200191505060405180910390f35b341561029357600080fd5b61029b611201565b6040518082815260200191505060405180910390f35b6000600560003373ffffffffffffffffffffffffffffffffffffffff1673ffffffffffffffffffffffffffffffffffffffff16815260200190815260200160002060000154905090565b60008060009054906101000a900473ffffffffffffffffffffffffffffffffffffffff1673ffffffffffffffffffffffffffffffffffffffff163373ffffffffffffffffffffffffffffffffffffffff1614151561035857600080fd5b6001600060146101000a81548160ff0219169083151502179055507f9022f48034574f88d5dde439a5da7ebc25082f77761e9d1db4915cea52ade9dc33604051808273ffffffffffffffffffffffffffffffffffffffff1673ffffffffffffffffffffffffffffffffffffffff16815260200191505060405180910390a16001905090565b60008060009054906101000a900473ffffffffffffffffffffffffffffffffffffffff1673ffffffffffffffffffffffffffffffffffffffff163373ffffffffffffffffffffffffffffffffffffffff1614151561043a57600080fd5b60008060146101000a81548160ff0219169083151502179055507fa8ddc33bcc81d4475dfdcb2c883e97be008d608cc0c8a48aa5a8d1076b99654433604051808273ffffffffffffffffffffffffffffffffffffffff1673ffffffffffffffffffffffffffffffffffffffff16815260200191505060405180910390a16001905090565b60008060009054906101000a900473ffffffffffffffffffffffffffffffffffffffff16905090565b600080600060149054906101000a900460ff1615151561050657600080fd5b6002543414151561051657600080fd5b34600560003373ffffffffffffffffffffffffffffffffffffffff1673ffffffffffffffffffffffffffffffffffffffff168152602001908152602001600020600001600082825401925050819055507f9dbb0e7dda3e09710ce75b801addc87cf9d9c6c581641b3275fca409ad086c623334600560003373ffffffffffffffffffffffffffffffffffffffff1673ffffffffffffffffffffffffffffffffffffffff16815260200190815260200160002060000154604051808473ffffffffffffffffffffffffffffffffffffffff1673ffffffffffffffffffffffffffffffffffffffff168152602001838152602001828152602001935050505060405180910390a160025460036000600154815260200190815260200160002060040181905550600060036000600154815260200190815260200160002060000160009054906101000a900473ffffffffffffffffffffffffffffffffffffffff1673ffffffffffffffffffffffffffffffffffffffff16141561083a576001600560003373ffffffffffffffffffffffffffffffffffffffff1673ffffffffffffffffffffffffffffffffffffffff16815260200190815260200160002060010160006101000a81548160ff0219169083151502179055503360036000600154815260200190815260200160002060000160006101000a81548173ffffffffffffffffffffffffffffffffffffffff021916908373ffffffffffffffffffffffffffffffffffffffff160217905550826040518082600281111561075457fe5b60ff167f0100000000000000000000000000000000000000000000000000000000000000028152600101915050604051809103902060036000600154815260200190815260200160002060010181600019169055507fcae7ce4091a8b4cedbb4e596fc2dffc339b85442296887b0b0189f61cb64857c33600154600186604051808573ffffffffffffffffffffffffffffffffffffffff1673ffffffffffffffffffffffffffffffffffffffff16815260200184815260200183815260200182600281111561081f57fe5b60ff16815260200194505050505060405180910390a1610e52565b600060036000600154815260200190815260200160002060020160009054906101000a900473ffffffffffffffffffffffffffffffffffffffff1673ffffffffffffffffffffffffffffffffffffffff161415610e515760036000600154815260200190815260200160002060000160009054906101000a900473ffffffffffffffffffffffffffffffffffffffff1673ffffffffffffffffffffffffffffffffffffffff163373ffffffffffffffffffffffffffffffffffffffff161415151561090457600080fd5b3360036000600154815260200190815260200160002060020160006101000a81548173ffffffffffffffffffffffffffffffffffffffff021916908373ffffffffffffffffffffffffffffffffffffffff160217905550826040518082600281111561096c57fe5b60ff167f0100000000000000000000000000000000000000000000000000000000000000028152600101915050604051809103902060036000600154815260200190815260200160002060030181600019169055507fcae7ce4091a8b4cedbb4e596fc2dffc339b85442296887b0b0189f61cb64857c33600154600286604051808573ffffffffffffffffffffffffffffffffffffffff1673ffffffffffffffffffffffffffffffffffffffff168152602001848152602001838152602001826002811115610a3757fe5b60ff16815260200194505050505060405180910390a16004600060036000600154815260200190815260200160002060010154600019166000191681526020019081526020016000206000600360006001548152602001908152602001600020600301546000191660001916815260200190815260200160002054905080600360006001548152602001908152602001600020600501819055507fc5b7285b131a1112b51e6d327eebe2fcb7c5ee0134384fc2c5a56c24ccf49a7a60015482604051808381526020018281526020019250505060405180910390a16001811415610c6057600360006001548152602001908152602001600020600401546005600060036000600154815260200190815260200160002060000160009054906101000a900473ffffffffffffffffffffffffffffffffffffffff1673ffffffffffffffffffffffffffffffffffffffff1673ffffffffffffffffffffffffffffffffffffffff16815260200190815260200160002060000160008282540192505081905550600360006001548152602001908152602001600020600401546005600060036000600154815260200190815260200160002060020160009054906101000a900473ffffffffffffffffffffffffffffffffffffffff1673ffffffffffffffffffffffffffffffffffffffff1673ffffffffffffffffffffffffffffffffffffffff16815260200190815260200160002060000160008282540392505081905550610dab565b6002811415610daa57600360006001548152602001908152602001600020600401546005600060036000600154815260200190815260200160002060000160009054906101000a900473ffffffffffffffffffffffffffffffffffffffff1673ffffffffffffffffffffffffffffffffffffffff1673ffffffffffffffffffffffffffffffffffffffff16815260200190815260200160002060000160008282540392505081905550600360006001548152602001908152602001600020600401546005600060036000600154815260200190815260200160002060020160009054906101000a900473ffffffffffffffffffffffffffffffffffffffff1673ffffffffffffffffffffffffffffffffffffffff1673ffffffffffffffffffffffffffffffffffffffff168152602001908152602001600020600001600082825401925050819055505b5b60006005600060036000600154815260200190815260200160002060000160009054906101000a900473ffffffffffffffffffffffffffffffffffffffff1673ffffffffffffffffffffffffffffffffffffffff1673ffffffffffffffffffffffffffffffffffffffff16815260200190815260200160002060010160006101000a81548160ff0219169083151502179055506001600081548092919060010191905055505b5b6001915050919050565b60008060009054906101000a900473ffffffffffffffffffffffffffffffffffffffff1673ffffffffffffffffffffffffffffffffffffffff163373ffffffffffffffffffffffffffffffffffffffff16141515610eb957600080fd5b60008273ffffffffffffffffffffffffffffffffffffffff1614151515610edf57600080fd5b3373ffffffffffffffffffffffffffffffffffffffff168273ffffffffffffffffffffffffffffffffffffffff1614151515610f1a57600080fd5b7f1f8d7d25344642d919d55999e4664aa452a5f424bc0936ceb9c2b300db7dcbd96000809054906101000a900473ffffffffffffffffffffffffffffffffffffffff1683604051808373ffffffffffffffffffffffffffffffffffffffff1673ffffffffffffffffffffffffffffffffffffffff1681526020018273ffffffffffffffffffffffffffffffffffffffff1673ffffffffffffffffffffffffffffffffffffffff1681526020019250505060405180910390a1816000806101000a81548173ffffffffffffffffffffffffffffffffffffffff021916908373ffffffffffffffffffffffffffffffffffffffff16021790555060019050919050565b60008060149054906101000a900460ff16905090565b600080600060149054906101000a900460ff1615151561105057600080fd5b600560003373ffffffffffffffffffffffffffffffffffffffff1673ffffffffffffffffffffffffffffffffffffffff16815260200190815260200160002060010160009054906101000a900460ff161515156110ac57600080fd5b600560003373ffffffffffffffffffffffffffffffffffffffff1673ffffffffffffffffffffffffffffffffffffffff16815260200190815260200160002060000154905060008111151561110057600080fd5b6000600560003373ffffffffffffffffffffffffffffffffffffffff1673ffffffffffffffffffffffffffffffffffffffff168152602001908152602001600020600001819055507f4ce7033d118120e254016dccf195288400b28fc8936425acd5f17ce2df3ab7083382604051808373ffffffffffffffffffffffffffffffffffffffff1673ffffffffffffffffffffffffffffffffffffffff1681526020018281526020019250505060405180910390a13373ffffffffffffffffffffffffffffffffffffffff166108fc829081150290604051600060405180830381858888f1935050505015156111f357600080fd5b600191505090565b60015481565b600254815600a165627a7a72305820feb414c2b9c09454177767ac3ec26c123a1a7b1d47541231e9955e160512c41c0029",
  "source": "pragma solidity ^0.4.18;\n\nimport '../contractLibrary/contracts/contractModifiers/Pausable.sol';\n\ncontract RockPaperScissors is Pausable {\n\n    enum Choices { Rock, Paper, Scissors }\n\n    struct PlayerStruct {\n        uint        balance;\n        bool        isInGame;\n    }\n\n    struct GameStruct {\n        address     playerOne;\n        bytes32     playerOneChoice;\n        address     playerTwo;\n        bytes32     playerTwoChoice;\n        uint        gameStake;\n        uint        gameWinner;\n    }\n\n    uint public gameNumber;\n    uint public correctDepositAmount;\n    \n    mapping(uint => GameStruct) private gameStructs;\n    mapping(bytes32 => mapping(bytes32 => uint)) private playerChoices;\n    mapping(address => PlayerStruct) private playerBalances;\n    \n    event LogDeposit(address sender, uint deposit, uint balance);\n    event LogPlayer(address sender, uint gameNumber, uint playerNumber, Choices choice);\n    event LogOutcome(uint gameNumber, uint gameResult);\n    event LogWithdraw(address sender, uint amount);\n    \n    modifier gameNotInProgress() {\n        require(!playerBalances[msg.sender].isInGame); \n        _;\n    }\n    \n    function RockPaperScissors(uint setDepositAmount)\n        public\n    {\n        require(setDepositAmount > 0);\n        \n        gameNumber = 1;\n        correctDepositAmount = setDepositAmount;\n        \n        playerChoices[keccak256(Choices.Rock)][keccak256(Choices.Rock)] = 0;\n        playerChoices[keccak256(Choices.Rock)][keccak256(Choices.Paper)] = 2;\n        playerChoices[keccak256(Choices.Rock)][keccak256(Choices.Scissors)] = 1;\n        playerChoices[keccak256(Choices.Paper)][keccak256(Choices.Paper)] = 0;\n        playerChoices[keccak256(Choices.Paper)][keccak256(Choices.Rock)] = 1;\n        playerChoices[keccak256(Choices.Paper)][keccak256(Choices.Scissors)] = 2;\n        playerChoices[keccak256(Choices.Scissors)][keccak256(Choices.Scissors)] = 0;\n        playerChoices[keccak256(Choices.Scissors)][keccak256(Choices.Rock)] = 2;\n        playerChoices[keccak256(Choices.Scissors)][keccak256(Choices.Paper)] = 1;\n    }\n    \n    function playerChoice(Choices choice)\n        public\n        payable\n        isActive\n        returns(bool success)\n    {\n        require(msg.value == correctDepositAmount);\n        playerBalances[msg.sender].balance += msg.value;\n        LogDeposit(msg.sender, msg.value, playerBalances[msg.sender].balance);\n        gameStructs[gameNumber].gameStake = correctDepositAmount;\n        \n        if(gameStructs[gameNumber].playerOne == 0) {\n            playerBalances[msg.sender].isInGame = true;\n            gameStructs[gameNumber].playerOne = msg.sender;\n            gameStructs[gameNumber].playerOneChoice = keccak256(choice);\n            LogPlayer(msg.sender, gameNumber, 1, choice);\n            \n        } else if(gameStructs[gameNumber].playerTwo == 0) {\n            require(msg.sender != gameStructs[gameNumber].playerOne);\n            \n            gameStructs[gameNumber].playerTwo = msg.sender;\n            gameStructs[gameNumber].playerTwoChoice = keccak256(choice);\n            LogPlayer(msg.sender, gameNumber, 2, choice);\n            \n            uint gameResult = playerChoices[gameStructs[gameNumber].playerOneChoice][gameStructs[gameNumber].playerTwoChoice];\n            gameStructs[gameNumber].gameWinner = gameResult;\n            LogOutcome(gameNumber, gameResult);\n            \n            if(gameResult == 1) {\n                playerBalances[gameStructs[gameNumber].playerOne].balance += gameStructs[gameNumber].gameStake;\n                playerBalances[gameStructs[gameNumber].playerTwo].balance -= gameStructs[gameNumber].gameStake;\n            } else if(gameResult == 2) {\n                playerBalances[gameStructs[gameNumber].playerOne].balance -= gameStructs[gameNumber].gameStake;\n                playerBalances[gameStructs[gameNumber].playerTwo].balance += gameStructs[gameNumber].gameStake;\n            }\n            \n            playerBalances[gameStructs[gameNumber].playerOne].isInGame = false;\n            gameNumber++;\n        }\n        \n        return true;\n    }\n    \n    function withdrawWinnings() \n        public\n        isActive\n        gameNotInProgress\n        returns(bool success)\n    {\n        uint payment = playerBalances[msg.sender].balance;\n        require(payment > 0);\n\n        playerBalances[msg.sender].balance = 0;\n        LogWithdraw(msg.sender, payment);\n\n        msg.sender.transfer(payment);\n\n        return true;\n    }\n    \n    function getBalance()\n        public\n        view\n        returns(uint balance)\n    {\n        return playerBalances[msg.sender].balance;\n    }\n    \n}\n",
  "sourcePath": "/Users/whittlem/B9lab-ETH-17-Projects/Module_4-RockPaperScissors/contracts/RockPaperScissors.sol",
  "compiler": {
    "name": "solc",
    "version": "0.4.18+commit.9cf6e910.Emscripten.clang"
  },
  "schemaVersion": "1.0.1",
  "updatedAt": "2017-11-30T11:12:19.395Z"
}