{
  "contractName": "RockPaperScissors",
  "abi": [
    {
      "constant": true,
      "inputs": [],
      "name": "playerTwo",
      "outputs": [
        {
          "name": "",
          "type": "address"
        }
      ],
      "payable": false,
      "stateMutability": "view",
      "type": "function"
    },
    {
      "constant": false,
      "inputs": [],
      "name": "register",
      "outputs": [
        {
          "name": "success",
          "type": "bool"
        }
      ],
      "payable": true,
      "stateMutability": "payable",
      "type": "function"
    },
    {
      "constant": false,
      "inputs": [],
      "name": "withdraw",
      "outputs": [
        {
          "name": "success",
          "type": "bool"
        }
      ],
      "payable": false,
      "stateMutability": "nonpayable",
      "type": "function"
    },
    {
      "constant": false,
      "inputs": [],
      "name": "pauseContract",
      "outputs": [],
      "payable": false,
      "stateMutability": "nonpayable",
      "type": "function"
    },
    {
      "constant": false,
      "inputs": [],
      "name": "startContract",
      "outputs": [],
      "payable": false,
      "stateMutability": "nonpayable",
      "type": "function"
    },
    {
      "constant": true,
      "inputs": [
        {
          "name": "choice",
          "type": "uint8"
        }
      ],
      "name": "getChoiceBytes32",
      "outputs": [
        {
          "name": "choiceBytes32",
          "type": "bytes32"
        }
      ],
      "payable": false,
      "stateMutability": "pure",
      "type": "function"
    },
    {
      "constant": true,
      "inputs": [],
      "name": "getOwner",
      "outputs": [
        {
          "name": "theOwner",
          "type": "address"
        }
      ],
      "payable": false,
      "stateMutability": "view",
      "type": "function"
    },
    {
      "constant": true,
      "inputs": [
        {
          "name": "recipient",
          "type": "address"
        }
      ],
      "name": "isRecipient",
      "outputs": [
        {
          "name": "isIndeed",
          "type": "bool"
        }
      ],
      "payable": false,
      "stateMutability": "view",
      "type": "function"
    },
    {
      "constant": false,
      "inputs": [
        {
          "name": "newOwner",
          "type": "address"
        }
      ],
      "name": "changeOwner",
      "outputs": [
        {
          "name": "transferSuccess",
          "type": "bool"
        }
      ],
      "payable": false,
      "stateMutability": "nonpayable",
      "type": "function"
    },
    {
      "constant": true,
      "inputs": [],
      "name": "isPaused",
      "outputs": [
        {
          "name": "isIndeed",
          "type": "bool"
        }
      ],
      "payable": false,
      "stateMutability": "view",
      "type": "function"
    },
    {
      "constant": true,
      "inputs": [],
      "name": "playerOne",
      "outputs": [
        {
          "name": "",
          "type": "address"
        }
      ],
      "payable": false,
      "stateMutability": "view",
      "type": "function"
    },
    {
      "constant": true,
      "inputs": [],
      "name": "getAddressCount",
      "outputs": [
        {
          "name": "count",
          "type": "uint256"
        }
      ],
      "payable": false,
      "stateMutability": "view",
      "type": "function"
    },
    {
      "constant": true,
      "inputs": [
        {
          "name": "",
          "type": "address"
        }
      ],
      "name": "recipientStructs",
      "outputs": [
        {
          "name": "balance",
          "type": "uint256"
        },
        {
          "name": "exists",
          "type": "bool"
        }
      ],
      "payable": false,
      "stateMutability": "view",
      "type": "function"
    },
    {
      "constant": true,
      "inputs": [],
      "name": "correctDepositAmount",
      "outputs": [
        {
          "name": "",
          "type": "uint256"
        }
      ],
      "payable": false,
      "stateMutability": "view",
      "type": "function"
    },
    {
      "constant": false,
      "inputs": [
        {
          "name": "keccakChoice",
          "type": "bytes32"
        }
      ],
      "name": "playerChoice",
      "outputs": [
        {
          "name": "winner",
          "type": "uint256"
        }
      ],
      "payable": false,
      "stateMutability": "nonpayable",
      "type": "function"
    },
    {
      "inputs": [
        {
          "name": "depositAmount",
          "type": "uint256"
        }
      ],
      "payable": false,
      "stateMutability": "nonpayable",
      "type": "constructor"
    },
    {
      "anonymous": false,
      "inputs": [
        {
          "indexed": false,
          "name": "sender",
          "type": "address"
        },
        {
          "indexed": false,
          "name": "player",
          "type": "uint8"
        },
        {
          "indexed": false,
          "name": "balance",
          "type": "uint256"
        },
        {
          "indexed": false,
          "name": "deposit",
          "type": "uint256"
        }
      ],
      "name": "LogRegistration",
      "type": "event"
    },
    {
      "anonymous": false,
      "inputs": [
        {
          "indexed": false,
          "name": "sender",
          "type": "address"
        },
        {
          "indexed": false,
          "name": "player",
          "type": "uint8"
        },
        {
          "indexed": false,
          "name": "keccakChoice",
          "type": "bytes32"
        }
      ],
      "name": "LogPlayerChoice",
      "type": "event"
    },
    {
      "anonymous": false,
      "inputs": [
        {
          "indexed": false,
          "name": "sender",
          "type": "address"
        },
        {
          "indexed": false,
          "name": "playerOne",
          "type": "address"
        },
        {
          "indexed": false,
          "name": "playerOneChoice",
          "type": "bytes32"
        },
        {
          "indexed": false,
          "name": "playerTwo",
          "type": "address"
        },
        {
          "indexed": false,
          "name": "playerTwoChoice",
          "type": "bytes32"
        },
        {
          "indexed": false,
          "name": "result",
          "type": "uint256"
        }
      ],
      "name": "LogOutcome",
      "type": "event"
    },
    {
      "anonymous": false,
      "inputs": [
        {
          "indexed": false,
          "name": "sender",
          "type": "address"
        },
        {
          "indexed": false,
          "name": "amount",
          "type": "uint256"
        }
      ],
      "name": "LogWithdraw",
      "type": "event"
    },
    {
      "anonymous": false,
      "inputs": [
        {
          "indexed": false,
          "name": "sender",
          "type": "address"
        }
      ],
      "name": "LogContractPause",
      "type": "event"
    },
    {
      "anonymous": false,
      "inputs": [
        {
          "indexed": false,
          "name": "sender",
          "type": "address"
        }
      ],
      "name": "LogContractResume",
      "type": "event"
    },
    {
      "anonymous": false,
      "inputs": [
        {
          "indexed": false,
          "name": "oldOwner",
          "type": "address"
        },
        {
          "indexed": false,
          "name": "newOwner",
          "type": "address"
        }
      ],
      "name": "LogNewOwner",
      "type": "event"
    }
  ],
  "bytecode": "0x60606040526000604051808260038111156200001757fe5b60ff167f010000000000000000000000000000000000000000000000000000000000000002815260010191505060405180910390206006906000191690556000604051808260038111156200006857fe5b60ff167f010000000000000000000000000000000000000000000000000000000000000002815260010191505060405180910390206007906000191690553415620000b257600080fd5b60405160208062001cb583398101604052808051906020019091905050336000806101000a81548173ffffffffffffffffffffffffffffffffffffffff021916908373ffffffffffffffffffffffffffffffffffffffff160217905550806001819055506000600860006001604051808260038111156200012f57fe5b60ff167f010000000000000000000000000000000000000000000000000000000000000002815260010191505060405180910390206000191660001916815260200190815260200160002060006001604051808260038111156200018f57fe5b60ff167f010000000000000000000000000000000000000000000000000000000000000002815260010191505060405180910390206000191660001916815260200190815260200160002081905550600260086000600160405180826003811115620001f757fe5b60ff167f010000000000000000000000000000000000000000000000000000000000000002815260010191505060405180910390206000191660001916815260200190815260200160002060006002604051808260038111156200025757fe5b60ff167f010000000000000000000000000000000000000000000000000000000000000002815260010191505060405180910390206000191660001916815260200190815260200160002081905550600160086000600160405180826003811115620002bf57fe5b60ff167f010000000000000000000000000000000000000000000000000000000000000002815260010191505060405180910390206000191660001916815260200190815260200160002060006003604051808260038111156200031f57fe5b60ff167f0100000000000000000000000000000000000000000000000000000000000000028152600101915050604051809103902060001916600019168152602001908152602001600020819055506000600860006002604051808260038111156200038757fe5b60ff167f01000000000000000000000000000000000000000000000000000000000000000281526001019150506040518091039020600019166000191681526020019081526020016000206000600260405180826003811115620003e757fe5b60ff167f0100000000000000000000000000000000000000000000000000000000000000028152600101915050604051809103902060001916600019168152602001908152602001600020819055506001600860006002604051808260038111156200044f57fe5b60ff167f01000000000000000000000000000000000000000000000000000000000000000281526001019150506040518091039020600019166000191681526020019081526020016000206000600160405180826003811115620004af57fe5b60ff167f0100000000000000000000000000000000000000000000000000000000000000028152600101915050604051809103902060001916600019168152602001908152602001600020819055506002600860006002604051808260038111156200051757fe5b60ff167f010000000000000000000000000000000000000000000000000000000000000002815260010191505060405180910390206000191660001916815260200190815260200160002060006003604051808260038111156200057757fe5b60ff167f010000000000000000000000000000000000000000000000000000000000000002815260010191505060405180910390206000191660001916815260200190815260200160002081905550600060086000600360405180826003811115620005df57fe5b60ff167f010000000000000000000000000000000000000000000000000000000000000002815260010191505060405180910390206000191660001916815260200190815260200160002060006003604051808260038111156200063f57fe5b60ff167f010000000000000000000000000000000000000000000000000000000000000002815260010191505060405180910390206000191660001916815260200190815260200160002081905550600260086000600360405180826003811115620006a757fe5b60ff167f010000000000000000000000000000000000000000000000000000000000000002815260010191505060405180910390206000191660001916815260200190815260200160002060006001604051808260038111156200070757fe5b60ff167f0100000000000000000000000000000000000000000000000000000000000000028152600101915050604051809103902060001916600019168152602001908152602001600020819055506001600860006003604051808260038111156200076f57fe5b60ff167f01000000000000000000000000000000000000000000000000000000000000000281526001019150506040518091039020600019166000191681526020019081526020016000206000600260405180826003811115620007cf57fe5b60ff167f01000000000000000000000000000000000000000000000000000000000000000281526001019150506040518091039020600019166000191681526020019081526020016000208190555050611486806200082f6000396000f3006060604052600436106100db576000357c0100000000000000000000000000000000000000000000000000000000900463ffffffff1680630a9f85dd146100e05780631aa3a008146101355780633ccfd60b14610157578063439766ce146101845780635fb02f4d146101995780637ea33b94146101ae578063893d20e8146101f05780638c5143ea14610245578063a6f9dae114610296578063b187bd26146102e7578063bcffcf4114610314578063cdbb02af14610369578063d7845a2c14610392578063dfad7f3a146103ea578063efe2c46214610413575b600080fd5b34156100eb57600080fd5b6100f361044e565b604051808273ffffffffffffffffffffffffffffffffffffffff1673ffffffffffffffffffffffffffffffffffffffff16815260200191505060405180910390f35b61013d610474565b604051808215151515815260200191505060405180910390f35b341561016257600080fd5b61016a6109c2565b604051808215151515815260200191505060405180910390f35b341561018f57600080fd5b610197610b30565b005b34156101a457600080fd5b6101ac610c0b565b005b34156101b957600080fd5b6101d2600480803560ff16906020019091905050610ce5565b60405180826000191660001916815260200191505060405180910390f35b34156101fb57600080fd5b610203610d34565b604051808273ffffffffffffffffffffffffffffffffffffffff1673ffffffffffffffffffffffffffffffffffffffff16815260200191505060405180910390f35b341561025057600080fd5b61027c600480803573ffffffffffffffffffffffffffffffffffffffff16906020019091905050610d5d565b604051808215151515815260200191505060405180910390f35b34156102a157600080fd5b6102cd600480803573ffffffffffffffffffffffffffffffffffffffff16906020019091905050610db6565b604051808215151515815260200191505060405180910390f35b34156102f257600080fd5b6102fa610f75565b604051808215151515815260200191505060405180910390f35b341561031f57600080fd5b610327610f8b565b604051808273ffffffffffffffffffffffffffffffffffffffff1673ffffffffffffffffffffffffffffffffffffffff16815260200191505060405180910390f35b341561037457600080fd5b61037c610fb1565b6040518082815260200191505060405180910390f35b341561039d57600080fd5b6103c9600480803573ffffffffffffffffffffffffffffffffffffffff16906020019091905050610fbe565b60405180838152602001821515151581526020019250505060405180910390f35b34156103f557600080fd5b6103fd610fef565b6040518082815260200191505060405180910390f35b341561041e57600080fd5b610438600480803560001916906020019091905050610ff5565b6040518082815260200191505060405180910390f35b600360009054906101000a900473ffffffffffffffffffffffffffffffffffffffff1681565b60003373ffffffffffffffffffffffffffffffffffffffff16600260009054906101000a900473ffffffffffffffffffffffffffffffffffffffff1673ffffffffffffffffffffffffffffffffffffffff16148061051f57503373ffffffffffffffffffffffffffffffffffffffff16600360009054906101000a900473ffffffffffffffffffffffffffffffffffffffff1673ffffffffffffffffffffffffffffffffffffffff16145b1561052957600080fd5b600060149054906101000a900460ff1615151561054557600080fd5b6001543414151561055557600080fd5b61055e33610d5d565b15151561056a57600080fd5b6004805480600101828161057e9190611409565b9160005260206000209001600033909190916101000a81548173ffffffffffffffffffffffffffffffffffffffff021916908373ffffffffffffffffffffffffffffffffffffffff160217905550506001600560003373ffffffffffffffffffffffffffffffffffffffff1673ffffffffffffffffffffffffffffffffffffffff16815260200190815260200160002060010160006101000a81548160ff0219169083151502179055506000600260009054906101000a900473ffffffffffffffffffffffffffffffffffffffff1673ffffffffffffffffffffffffffffffffffffffff1614156107c45733600260006101000a81548173ffffffffffffffffffffffffffffffffffffffff021916908373ffffffffffffffffffffffffffffffffffffffff1602179055507f967cf361a8dc3fe16bf027191629431fdeba641fa72455eafb6ca632d242b4ce336001600560003373ffffffffffffffffffffffffffffffffffffffff1673ffffffffffffffffffffffffffffffffffffffff1681526020019081526020016000206000015434604051808573ffffffffffffffffffffffffffffffffffffffff1673ffffffffffffffffffffffffffffffffffffffff1681526020018460ff16815260200183815260200182815260200194505050505060405180910390a134600560003373ffffffffffffffffffffffffffffffffffffffff1673ffffffffffffffffffffffffffffffffffffffff16815260200190815260200160002060000160008282540192505081905550600190506109bf565b6000600360009054906101000a900473ffffffffffffffffffffffffffffffffffffffff1673ffffffffffffffffffffffffffffffffffffffff1614801561085a57503373ffffffffffffffffffffffffffffffffffffffff16600260009054906101000a900473ffffffffffffffffffffffffffffffffffffffff1673ffffffffffffffffffffffffffffffffffffffff1614155b156109ba5733600360006101000a81548173ffffffffffffffffffffffffffffffffffffffff021916908373ffffffffffffffffffffffffffffffffffffffff1602179055507f967cf361a8dc3fe16bf027191629431fdeba641fa72455eafb6ca632d242b4ce336002600560003373ffffffffffffffffffffffffffffffffffffffff1673ffffffffffffffffffffffffffffffffffffffff1681526020019081526020016000206000015434604051808573ffffffffffffffffffffffffffffffffffffffff1673ffffffffffffffffffffffffffffffffffffffff1681526020018460ff16815260200183815260200182815260200194505050505060405180910390a134600560003373ffffffffffffffffffffffffffffffffffffffff1673ffffffffffffffffffffffffffffffffffffffff16815260200190815260200160002060000160008282540192505081905550600190506109bf565b600090505b90565b600080600060149054906101000a900460ff161515156109e157600080fd5b600560003373ffffffffffffffffffffffffffffffffffffffff1673ffffffffffffffffffffffffffffffffffffffff168152602001908152602001600020600001549050600081111515610a3557600080fd5b6000600560003373ffffffffffffffffffffffffffffffffffffffff1673ffffffffffffffffffffffffffffffffffffffff168152602001908152602001600020600001819055507f4ce7033d118120e254016dccf195288400b28fc8936425acd5f17ce2df3ab7083382604051808373ffffffffffffffffffffffffffffffffffffffff1673ffffffffffffffffffffffffffffffffffffffff1681526020018281526020019250505060405180910390a13373ffffffffffffffffffffffffffffffffffffffff166108fc829081150290604051600060405180830381858888f193505050501515610b2857600080fd5b600191505090565b6000809054906101000a900473ffffffffffffffffffffffffffffffffffffffff1673ffffffffffffffffffffffffffffffffffffffff163373ffffffffffffffffffffffffffffffffffffffff16141515610b8b57600080fd5b6001600060146101000a81548160ff0219169083151502179055507f9022f48034574f88d5dde439a5da7ebc25082f77761e9d1db4915cea52ade9dc33604051808273ffffffffffffffffffffffffffffffffffffffff1673ffffffffffffffffffffffffffffffffffffffff16815260200191505060405180910390a1565b6000809054906101000a900473ffffffffffffffffffffffffffffffffffffffff1673ffffffffffffffffffffffffffffffffffffffff163373ffffffffffffffffffffffffffffffffffffffff16141515610c6657600080fd5b60008060146101000a81548160ff0219169083151502179055507fa8ddc33bcc81d4475dfdcb2c883e97be008d608cc0c8a48aa5a8d1076b99654433604051808273ffffffffffffffffffffffffffffffffffffffff1673ffffffffffffffffffffffffffffffffffffffff16815260200191505060405180910390a1565b60008160405180826003811115610cf857fe5b60ff167f010000000000000000000000000000000000000000000000000000000000000002815260010191505060405180910390209050919050565b60008060009054906101000a900473ffffffffffffffffffffffffffffffffffffffff16905090565b6000600560008373ffffffffffffffffffffffffffffffffffffffff1673ffffffffffffffffffffffffffffffffffffffff16815260200190815260200160002060010160009054906101000a900460ff169050919050565b60008060009054906101000a900473ffffffffffffffffffffffffffffffffffffffff1673ffffffffffffffffffffffffffffffffffffffff163373ffffffffffffffffffffffffffffffffffffffff16141515610e1357600080fd5b60008273ffffffffffffffffffffffffffffffffffffffff1614151515610e3957600080fd5b3373ffffffffffffffffffffffffffffffffffffffff168273ffffffffffffffffffffffffffffffffffffffff1614151515610e7457600080fd5b7f1f8d7d25344642d919d55999e4664aa452a5f424bc0936ceb9c2b300db7dcbd96000809054906101000a900473ffffffffffffffffffffffffffffffffffffffff1683604051808373ffffffffffffffffffffffffffffffffffffffff1673ffffffffffffffffffffffffffffffffffffffff1681526020018273ffffffffffffffffffffffffffffffffffffffff1673ffffffffffffffffffffffffffffffffffffffff1681526020019250505060405180910390a1816000806101000a81548173ffffffffffffffffffffffffffffffffffffffff021916908373ffffffffffffffffffffffffffffffffffffffff16021790555060019050919050565b60008060149054906101000a900460ff16905090565b600260009054906101000a900473ffffffffffffffffffffffffffffffffffffffff1681565b6000600480549050905090565b60056020528060005260406000206000915090508060000154908060010160009054906101000a900460ff16905082565b60015481565b600080600060149054906101000a900460ff1615151561101457600080fd5b3373ffffffffffffffffffffffffffffffffffffffff16600260009054906101000a900473ffffffffffffffffffffffffffffffffffffffff1673ffffffffffffffffffffffffffffffffffffffff1614806110bd57503373ffffffffffffffffffffffffffffffffffffffff16600360009054906101000a900473ffffffffffffffffffffffffffffffffffffffff1673ffffffffffffffffffffffffffffffffffffffff16145b15156110c857600080fd5b600260009054906101000a900473ffffffffffffffffffffffffffffffffffffffff1673ffffffffffffffffffffffffffffffffffffffff163373ffffffffffffffffffffffffffffffffffffffff1614156111a95782600681600019169055507fef00e24b0063e7a3434b9669ae0150f5f1f9ea3f13a646757ea02edaf539da6933600185604051808473ffffffffffffffffffffffffffffffffffffffff1673ffffffffffffffffffffffffffffffffffffffff1681526020018360ff1681526020018260001916600019168152602001935050505060405180910390a15b600360009054906101000a900473ffffffffffffffffffffffffffffffffffffffff1673ffffffffffffffffffffffffffffffffffffffff163373ffffffffffffffffffffffffffffffffffffffff16141561128a5782600781600019169055507fef00e24b0063e7a3434b9669ae0150f5f1f9ea3f13a646757ea02edaf539da6933600285604051808473ffffffffffffffffffffffffffffffffffffffff1673ffffffffffffffffffffffffffffffffffffffff1681526020018360ff1681526020018260001916600019168152602001935050505060405180910390a15b60086000600654600019166000191681526020019081526020016000206000600754600019166000191681526020019081526020016000205490507f54db0faaf6a59da989e3d48b779ea67741c77ef33c8f5f88036181f2012af32933600260009054906101000a900473ffffffffffffffffffffffffffffffffffffffff16600654600360009054906101000a900473ffffffffffffffffffffffffffffffffffffffff1660075486604051808773ffffffffffffffffffffffffffffffffffffffff1673ffffffffffffffffffffffffffffffffffffffff1681526020018673ffffffffffffffffffffffffffffffffffffffff1673ffffffffffffffffffffffffffffffffffffffff16815260200185600019166000191681526020018473ffffffffffffffffffffffffffffffffffffffff1673ffffffffffffffffffffffffffffffffffffffff1681526020018360001916600019168152602001828152602001965050505050505060405180910390a180915050919050565b8154818355818115116114305781836000526020600020918201910161142f9190611435565b5b505050565b61145791905b8082111561145357600081600090555060010161143b565b5090565b905600a165627a7a723058206b6412a814ac3b626455e05ab4b9835a9c83bb2a32b9527037dd6a855e002e780029",
  "source": "pragma solidity ^0.4.18;\n\nimport '../contractLibrary/contractModifiers/Pausable.sol';\n\ncontract RockPaperScissors is Pausable {\n\n  enum Choices { None, Rock, Paper, Scissors }\n\n  struct RecipientStruct {\n    uint balance;\n    bool exists;\n  }  \n\n  uint public correctDepositAmount;\n\n  address public playerOne;\n  address public playerTwo;\n\n  address[] private recipients;\n  mapping(address => RecipientStruct) public recipientStructs;\n\n  bytes32 private playerOneChoice = keccak256(Choices.None);\n  bytes32 private playerTwoChoice = keccak256(Choices.None);\n\n  mapping (bytes32 => mapping(bytes32 => uint)) playerChoices;\n\n  event LogRegistration(address sender, uint8 player, uint balance,  uint deposit);\n  event LogPlayerChoice(address sender, uint8 player, bytes32 keccakChoice);\n  event LogOutcome(address sender, address playerOne, bytes32 playerOneChoice, address playerTwo, bytes32 playerTwoChoice, uint result);\n  event LogWithdraw(address sender, uint amount);\n\n  function RockPaperScissors(uint depositAmount) \n    public \n  {\n    correctDepositAmount = depositAmount;\n\n    playerChoices[keccak256(Choices.Rock)][keccak256(Choices.Rock)] = 0;\n    playerChoices[keccak256(Choices.Rock)][keccak256(Choices.Paper)] = 2;\n    playerChoices[keccak256(Choices.Rock)][keccak256(Choices.Scissors)] = 1;\n    playerChoices[keccak256(Choices.Paper)][keccak256(Choices.Paper)] = 0;\n    playerChoices[keccak256(Choices.Paper)][keccak256(Choices.Rock)] = 1;\n    playerChoices[keccak256(Choices.Paper)][keccak256(Choices.Scissors)] = 2;\n    playerChoices[keccak256(Choices.Scissors)][keccak256(Choices.Scissors)] = 0;\n    playerChoices[keccak256(Choices.Scissors)][keccak256(Choices.Rock)] = 2;\n    playerChoices[keccak256(Choices.Scissors)][keccak256(Choices.Paper)] = 1;\n  }\n\n  modifier notRegisteredYet() {\n    if((playerOne == msg.sender) || (playerTwo == msg.sender)) {\n      revert();\n    } else {\n      _;\n    }\n  }\n\n  function register()\n    public\n    payable\n    notRegisteredYet\n    isActive\n    returns (bool success)\n  {\n    require(msg.value == correctDepositAmount);\n    require(!isRecipient(msg.sender));\n\n    recipients.push(msg.sender);\n    recipientStructs[msg.sender].exists = true;\n\n    if(playerOne == 0) {\n      playerOne = msg.sender;\n      LogRegistration(msg.sender, 1, recipientStructs[msg.sender].balance, msg.value);\n      recipientStructs[msg.sender].balance += msg.value;\n      return true;\n    }\n    if((playerTwo == 0) && (playerOne != msg.sender)) {\n      playerTwo = msg.sender;\n      LogRegistration(msg.sender, 2, recipientStructs[msg.sender].balance,  msg.value);\n      recipientStructs[msg.sender].balance += msg.value;\n      return true;\n    }\n\n    return false;\n  }\n\n  function playerChoice(bytes32 keccakChoice)\n    public\n    isActive\n    returns(uint winner)\n  {\n    require(playerOne == msg.sender || playerTwo == msg.sender);\n\n    if(msg.sender == playerOne) {\n      playerOneChoice = keccakChoice;\n      LogPlayerChoice(msg.sender, 1, keccakChoice);\n    }\n    if(msg.sender == playerTwo) {\n      playerTwoChoice = keccakChoice;\n      LogPlayerChoice(msg.sender, 2, keccakChoice);\n    }\n\n    uint result = playerChoices[playerOneChoice][playerTwoChoice];\n    LogOutcome(msg.sender, playerOne, playerOneChoice, playerTwo, playerTwoChoice, result);\n\n    return result;    \n  }\n\n  function withdraw()\n    public\n    isActive\n    returns(bool success)\n  {\n    uint payment = recipientStructs[msg.sender].balance;\n    require(payment > 0);\n\n    recipientStructs[msg.sender].balance = 0;\n    LogWithdraw(msg.sender, payment);\n\n    msg.sender.transfer(payment);\n\n    return true;\n  }\n\n  function getChoiceBytes32(Choices choice)\n    public\n    pure\n    returns(bytes32 choiceBytes32)\n  {\n    return keccak256(choice);\n  }\n\n  function isRecipient(address recipient) \n    public \n    constant \n    returns(bool isIndeed)\n  {\n    return recipientStructs[recipient].exists;\n  }\n\n  function getAddressCount() \n    public\n    constant \n    returns(uint count) \n  { \n    return recipients.length; \n  }\n\n}\n",
  "sourcePath": "/home/mwhittl1/B9lab-ETH-17-Projects/Module_4-RockPaperScissors/contracts/RockPaperScissors.sol",
  "compiler": {
    "name": "solc",
    "version": "0.4.18+commit.9cf6e910.Emscripten.clang"
  },
  "schemaVersion": "1.0.1",
  "updatedAt": "2017-11-24T15:29:32.005Z"
}