{
  "contractName": "RockPaperScissors",
  "abi": [
    {
      "constant": true,
      "inputs": [
        {
          "name": "index",
          "type": "uint256"
        }
      ],
      "name": "getGameStruct",
      "outputs": [
        {
          "components": [
            {
              "name": "playerOne",
              "type": "address"
            },
            {
              "name": "playerOneChoice",
              "type": "bytes32"
            },
            {
              "name": "playerTwo",
              "type": "address"
            },
            {
              "name": "playerTwoChoice",
              "type": "bytes32"
            },
            {
              "name": "gameStake",
              "type": "uint256"
            },
            {
              "name": "gameWinner",
              "type": "uint8"
            }
          ],
          "name": "gameStruct",
          "type": "tuple"
        }
      ],
      "payable": false,
      "stateMutability": "view",
      "type": "function"
    },
    {
      "constant": false,
      "inputs": [],
      "name": "pauseContract",
      "outputs": [
        {
          "name": "success",
          "type": "bool"
        }
      ],
      "payable": false,
      "stateMutability": "nonpayable",
      "type": "function"
    },
    {
      "constant": false,
      "inputs": [],
      "name": "startContract",
      "outputs": [
        {
          "name": "success",
          "type": "bool"
        }
      ],
      "payable": false,
      "stateMutability": "nonpayable",
      "type": "function"
    },
    {
      "constant": true,
      "inputs": [],
      "name": "getOwner",
      "outputs": [
        {
          "name": "theOwner",
          "type": "address"
        }
      ],
      "payable": false,
      "stateMutability": "view",
      "type": "function"
    },
    {
      "constant": false,
      "inputs": [
        {
          "name": "choice",
          "type": "uint8"
        }
      ],
      "name": "playerChoice",
      "outputs": [
        {
          "name": "success",
          "type": "bool"
        }
      ],
      "payable": true,
      "stateMutability": "payable",
      "type": "function"
    },
    {
      "constant": false,
      "inputs": [
        {
          "name": "newOwner",
          "type": "address"
        }
      ],
      "name": "changeOwner",
      "outputs": [
        {
          "name": "transferSuccess",
          "type": "bool"
        }
      ],
      "payable": false,
      "stateMutability": "nonpayable",
      "type": "function"
    },
    {
      "constant": true,
      "inputs": [
        {
          "name": "",
          "type": "bytes32"
        },
        {
          "name": "",
          "type": "bytes32"
        }
      ],
      "name": "playerOptions",
      "outputs": [
        {
          "name": "",
          "type": "uint8"
        }
      ],
      "payable": false,
      "stateMutability": "view",
      "type": "function"
    },
    {
      "constant": true,
      "inputs": [],
      "name": "isPaused",
      "outputs": [
        {
          "name": "isIndeed",
          "type": "bool"
        }
      ],
      "payable": false,
      "stateMutability": "view",
      "type": "function"
    },
    {
      "constant": true,
      "inputs": [
        {
          "name": "player",
          "type": "address"
        }
      ],
      "name": "getPlayerStruct",
      "outputs": [
        {
          "components": [
            {
              "name": "balance",
              "type": "uint256"
            },
            {
              "name": "isInGame",
              "type": "bool"
            }
          ],
          "name": "playerStruct",
          "type": "tuple"
        }
      ],
      "payable": false,
      "stateMutability": "view",
      "type": "function"
    },
    {
      "constant": false,
      "inputs": [],
      "name": "withdrawWinnings",
      "outputs": [
        {
          "name": "success",
          "type": "bool"
        }
      ],
      "payable": false,
      "stateMutability": "nonpayable",
      "type": "function"
    },
    {
      "constant": true,
      "inputs": [],
      "name": "gameNumber",
      "outputs": [
        {
          "name": "",
          "type": "uint256"
        }
      ],
      "payable": false,
      "stateMutability": "view",
      "type": "function"
    },
    {
      "constant": true,
      "inputs": [],
      "name": "correctDepositAmount",
      "outputs": [
        {
          "name": "",
          "type": "uint256"
        }
      ],
      "payable": false,
      "stateMutability": "view",
      "type": "function"
    },
    {
      "inputs": [
        {
          "name": "setDepositAmount",
          "type": "uint256"
        }
      ],
      "payable": false,
      "stateMutability": "nonpayable",
      "type": "constructor"
    },
    {
      "anonymous": false,
      "inputs": [
        {
          "indexed": false,
          "name": "sender",
          "type": "address"
        },
        {
          "indexed": false,
          "name": "deposit",
          "type": "uint256"
        }
      ],
      "name": "LogDeposit",
      "type": "event"
    },
    {
      "anonymous": false,
      "inputs": [
        {
          "indexed": false,
          "name": "sender",
          "type": "address"
        },
        {
          "indexed": false,
          "name": "gameNumber",
          "type": "uint256"
        },
        {
          "indexed": false,
          "name": "playerNumber",
          "type": "uint256"
        },
        {
          "indexed": false,
          "name": "hashChoice",
          "type": "bytes32"
        }
      ],
      "name": "LogPlayer",
      "type": "event"
    },
    {
      "anonymous": false,
      "inputs": [
        {
          "indexed": false,
          "name": "gameNumber",
          "type": "uint256"
        },
        {
          "indexed": false,
          "name": "gameResult",
          "type": "uint8"
        }
      ],
      "name": "LogOutcome",
      "type": "event"
    },
    {
      "anonymous": false,
      "inputs": [
        {
          "indexed": false,
          "name": "sender",
          "type": "address"
        },
        {
          "indexed": false,
          "name": "amount",
          "type": "uint256"
        }
      ],
      "name": "LogWithdraw",
      "type": "event"
    },
    {
      "anonymous": false,
      "inputs": [
        {
          "indexed": false,
          "name": "sender",
          "type": "address"
        }
      ],
      "name": "LogContractPause",
      "type": "event"
    },
    {
      "anonymous": false,
      "inputs": [
        {
          "indexed": false,
          "name": "sender",
          "type": "address"
        }
      ],
      "name": "LogContractResume",
      "type": "event"
    },
    {
      "anonymous": false,
      "inputs": [
        {
          "indexed": false,
          "name": "oldOwner",
          "type": "address"
        },
        {
          "indexed": false,
          "name": "newOwner",
          "type": "address"
        }
      ],
      "name": "LogNewOwner",
      "type": "event"
    }
  ],
  "bytecode": "0x606060405234156200001057600080fd5b60405160208062001c6983398101604052808051906020019091905050336000806101000a81548173ffffffffffffffffffffffffffffffffffffffff021916908373ffffffffffffffffffffffffffffffffffffffff1602179055506000811115156200007d57600080fd5b600060018190555080600281905550600060046000600160405180826003811115620000a557fe5b60ff167f010000000000000000000000000000000000000000000000000000000000000002815260010191505060405180910390206000191660001916815260200190815260200160002060006001604051808260038111156200010557fe5b60ff167f010000000000000000000000000000000000000000000000000000000000000002815260010191505060405180910390206000191660001916815260200190815260200160002060006101000a81548160ff021916908360028111156200016c57fe5b02179055506002600460006001604051808260038111156200018a57fe5b60ff167f01000000000000000000000000000000000000000000000000000000000000000281526001019150506040518091039020600019166000191681526020019081526020016000206000600260405180826003811115620001ea57fe5b60ff167f010000000000000000000000000000000000000000000000000000000000000002815260010191505060405180910390206000191660001916815260200190815260200160002060006101000a81548160ff021916908360028111156200025157fe5b02179055506001600460006001604051808260038111156200026f57fe5b60ff167f01000000000000000000000000000000000000000000000000000000000000000281526001019150506040518091039020600019166000191681526020019081526020016000206000600360405180826003811115620002cf57fe5b60ff167f010000000000000000000000000000000000000000000000000000000000000002815260010191505060405180910390206000191660001916815260200190815260200160002060006101000a81548160ff021916908360028111156200033657fe5b02179055506000600460006002604051808260038111156200035457fe5b60ff167f01000000000000000000000000000000000000000000000000000000000000000281526001019150506040518091039020600019166000191681526020019081526020016000206000600260405180826003811115620003b457fe5b60ff167f010000000000000000000000000000000000000000000000000000000000000002815260010191505060405180910390206000191660001916815260200190815260200160002060006101000a81548160ff021916908360028111156200041b57fe5b02179055506001600460006002604051808260038111156200043957fe5b60ff167f010000000000000000000000000000000000000000000000000000000000000002815260010191505060405180910390206000191660001916815260200190815260200160002060006001604051808260038111156200049957fe5b60ff167f010000000000000000000000000000000000000000000000000000000000000002815260010191505060405180910390206000191660001916815260200190815260200160002060006101000a81548160ff021916908360028111156200050057fe5b02179055506002600460006002604051808260038111156200051e57fe5b60ff167f010000000000000000000000000000000000000000000000000000000000000002815260010191505060405180910390206000191660001916815260200190815260200160002060006003604051808260038111156200057e57fe5b60ff167f010000000000000000000000000000000000000000000000000000000000000002815260010191505060405180910390206000191660001916815260200190815260200160002060006101000a81548160ff02191690836002811115620005e557fe5b02179055506000600460006003604051808260038111156200060357fe5b60ff167f010000000000000000000000000000000000000000000000000000000000000002815260010191505060405180910390206000191660001916815260200190815260200160002060006003604051808260038111156200066357fe5b60ff167f010000000000000000000000000000000000000000000000000000000000000002815260010191505060405180910390206000191660001916815260200190815260200160002060006101000a81548160ff02191690836002811115620006ca57fe5b0217905550600260046000600360405180826003811115620006e857fe5b60ff167f010000000000000000000000000000000000000000000000000000000000000002815260010191505060405180910390206000191660001916815260200190815260200160002060006001604051808260038111156200074857fe5b60ff167f010000000000000000000000000000000000000000000000000000000000000002815260010191505060405180910390206000191660001916815260200190815260200160002060006101000a81548160ff02191690836002811115620007af57fe5b0217905550600160046000600360405180826003811115620007cd57fe5b60ff167f010000000000000000000000000000000000000000000000000000000000000002815260010191505060405180910390206000191660001916815260200190815260200160002060006002604051808260038111156200082d57fe5b60ff167f010000000000000000000000000000000000000000000000000000000000000002815260010191505060405180910390206000191660001916815260200190815260200160002060006101000a81548160ff021916908360028111156200089457fe5b0217905550506113bf80620008aa6000396000f3006060604052600436106100ba576000357c0100000000000000000000000000000000000000000000000000000000900463ffffffff168063378a5c0a146100bf578063439766ce146100f65780635fb02f4d14610123578063893d20e81461015057806393669bcf146101a5578063a6f9dae1146101d8578063acca52cf14610229578063b187bd261461027f578063b4716eaa146102ac578063cc42e83a146102f9578063d8d40cee14610326578063dfad7f3a1461034f575b600080fd5b34156100ca57600080fd5b6100e06004808035906020019091905050610378565b6040518082815260200191505060405180910390f35b341561010157600080fd5b6101096104ad565b604051808215151515815260200191505060405180910390f35b341561012e57600080fd5b61013661058f565b604051808215151515815260200191505060405180910390f35b341561015b57600080fd5b610163610670565b604051808273ffffffffffffffffffffffffffffffffffffffff1673ffffffffffffffffffffffffffffffffffffffff16815260200191505060405180910390f35b6101be600480803560ff16906020019091905050610699565b604051808215151515815260200191505060405180910390f35b34156101e357600080fd5b61020f600480803573ffffffffffffffffffffffffffffffffffffffff16906020019091905050610eab565b604051808215151515815260200191505060405180910390f35b341561023457600080fd5b61025b6004808035600019169060200190919080356000191690602001909190505061106a565b6040518082600281111561026b57fe5b60ff16815260200191505060405180910390f35b341561028a57600080fd5b610292611099565b604051808215151515815260200191505060405180910390f35b34156102b757600080fd5b6102e3600480803573ffffffffffffffffffffffffffffffffffffffff169060200190919050506110af565b6040518082815260200191505060405180910390f35b341561030457600080fd5b61030c61112d565b604051808215151515815260200191505060405180910390f35b341561033157600080fd5b6103396112f7565b6040518082815260200191505060405180910390f35b341561035a57600080fd5b6103626112fd565b6040518082815260200191505060405180910390f35b610380611303565b6003600083815260200190815260200160002060c060405190810160405290816000820160009054906101000a900473ffffffffffffffffffffffffffffffffffffffff1673ffffffffffffffffffffffffffffffffffffffff1673ffffffffffffffffffffffffffffffffffffffff1681526020016001820154600019166000191681526020016002820160009054906101000a900473ffffffffffffffffffffffffffffffffffffffff1673ffffffffffffffffffffffffffffffffffffffff1673ffffffffffffffffffffffffffffffffffffffff168152602001600382015460001916600019168152602001600482015481526020016005820160009054906101000a900460ff16600281111561049757fe5b60028111156104a257fe5b815250509050919050565b60008060009054906101000a900473ffffffffffffffffffffffffffffffffffffffff1673ffffffffffffffffffffffffffffffffffffffff163373ffffffffffffffffffffffffffffffffffffffff1614151561050a57600080fd5b6001600060146101000a81548160ff0219169083151502179055507f9022f48034574f88d5dde439a5da7ebc25082f77761e9d1db4915cea52ade9dc33604051808273ffffffffffffffffffffffffffffffffffffffff1673ffffffffffffffffffffffffffffffffffffffff16815260200191505060405180910390a16001905090565b60008060009054906101000a900473ffffffffffffffffffffffffffffffffffffffff1673ffffffffffffffffffffffffffffffffffffffff163373ffffffffffffffffffffffffffffffffffffffff161415156105ec57600080fd5b60008060146101000a81548160ff0219169083151502179055507fa8ddc33bcc81d4475dfdcb2c883e97be008d608cc0c8a48aa5a8d1076b99654433604051808273ffffffffffffffffffffffffffffffffffffffff1673ffffffffffffffffffffffffffffffffffffffff16815260200191505060405180910390a16001905090565b60008060009054906101000a900473ffffffffffffffffffffffffffffffffffffffff16905090565b60008060008060149054906101000a900460ff161515156106b957600080fd5b600254341415156106c957600080fd5b34600560003373ffffffffffffffffffffffffffffffffffffffff1673ffffffffffffffffffffffffffffffffffffffff168152602001908152602001600020600001600082825401925050819055507f1b851e1031ef35a238e6c67d0c7991162390df915f70eaf9098dbf0b175a61983334604051808373ffffffffffffffffffffffffffffffffffffffff1673ffffffffffffffffffffffffffffffffffffffff1681526020018281526020019250505060405180910390a16003600060015481526020019081526020016000209150600254826004018190555060008260000160009054906101000a900473ffffffffffffffffffffffffffffffffffffffff1673ffffffffffffffffffffffffffffffffffffffff161415610968576001600560003373ffffffffffffffffffffffffffffffffffffffff1673ffffffffffffffffffffffffffffffffffffffff16815260200190815260200160002060010160006101000a81548160ff021916908315150217905550338260000160006101000a81548173ffffffffffffffffffffffffffffffffffffffff021916908373ffffffffffffffffffffffffffffffffffffffff160217905550836040518082600381111561089857fe5b60ff167f010000000000000000000000000000000000000000000000000000000000000002815260010191505060405180910390208260010181600019169055507f4eae6851397a963bd41c977d7e3bd2a2bd923356992c4a8541065abb647016663360015460018560010154604051808573ffffffffffffffffffffffffffffffffffffffff1673ffffffffffffffffffffffffffffffffffffffff168152602001848152602001838152602001826000191660001916815260200194505050505060405180910390a1610ea0565b60008260020160009054906101000a900473ffffffffffffffffffffffffffffffffffffffff1673ffffffffffffffffffffffffffffffffffffffff161415610e9f578160000160009054906101000a900473ffffffffffffffffffffffffffffffffffffffff1673ffffffffffffffffffffffffffffffffffffffff163373ffffffffffffffffffffffffffffffffffffffff1614151515610a0a57600080fd5b338260020160006101000a81548173ffffffffffffffffffffffffffffffffffffffff021916908373ffffffffffffffffffffffffffffffffffffffff1602179055508360405180826003811115610a5e57fe5b60ff167f010000000000000000000000000000000000000000000000000000000000000002815260010191505060405180910390208260030181600019169055507f4eae6851397a963bd41c977d7e3bd2a2bd923356992c4a8541065abb647016663360015460028560030154604051808573ffffffffffffffffffffffffffffffffffffffff1673ffffffffffffffffffffffffffffffffffffffff168152602001848152602001838152602001826000191660001916815260200194505050505060405180910390a160046000836001015460001916600019168152602001908152602001600020600083600301546000191660001916815260200190815260200160002060009054906101000a900460ff169050808260050160006101000a81548160ff02191690836002811115610b9557fe5b02179055507f78dbafb6a02a27c861be381bceb15ee5f5fbf557160bc9735d9f9f06e7c11a5f6001548260405180838152602001826002811115610bd557fe5b60ff1681526020019250505060405180910390a160016002811115610bf657fe5b816002811115610c0257fe5b1415610cfd578160040154600560008460000160009054906101000a900473ffffffffffffffffffffffffffffffffffffffff1673ffffffffffffffffffffffffffffffffffffffff1673ffffffffffffffffffffffffffffffffffffffff168152602001908152602001600020600001600082825401925050819055508160040154600560008460020160009054906101000a900473ffffffffffffffffffffffffffffffffffffffff1673ffffffffffffffffffffffffffffffffffffffff1673ffffffffffffffffffffffffffffffffffffffff16815260200190815260200160002060000160008282540392505081905550610e0d565b600280811115610d0957fe5b816002811115610d1557fe5b1415610e0c578160040154600560008460000160009054906101000a900473ffffffffffffffffffffffffffffffffffffffff1673ffffffffffffffffffffffffffffffffffffffff1673ffffffffffffffffffffffffffffffffffffffff168152602001908152602001600020600001600082825403925050819055508160040154600560008460020160009054906101000a900473ffffffffffffffffffffffffffffffffffffffff1673ffffffffffffffffffffffffffffffffffffffff1673ffffffffffffffffffffffffffffffffffffffff168152602001908152602001600020600001600082825401925050819055505b5b6000600560008460000160009054906101000a900473ffffffffffffffffffffffffffffffffffffffff1673ffffffffffffffffffffffffffffffffffffffff1673ffffffffffffffffffffffffffffffffffffffff16815260200190815260200160002060010160006101000a81548160ff0219169083151502179055506001600081548092919060010191905055505b5b600192505050919050565b60008060009054906101000a900473ffffffffffffffffffffffffffffffffffffffff1673ffffffffffffffffffffffffffffffffffffffff163373ffffffffffffffffffffffffffffffffffffffff16141515610f0857600080fd5b60008273ffffffffffffffffffffffffffffffffffffffff1614151515610f2e57600080fd5b3373ffffffffffffffffffffffffffffffffffffffff168273ffffffffffffffffffffffffffffffffffffffff1614151515610f6957600080fd5b7f1f8d7d25344642d919d55999e4664aa452a5f424bc0936ceb9c2b300db7dcbd96000809054906101000a900473ffffffffffffffffffffffffffffffffffffffff1683604051808373ffffffffffffffffffffffffffffffffffffffff1673ffffffffffffffffffffffffffffffffffffffff1681526020018273ffffffffffffffffffffffffffffffffffffffff1673ffffffffffffffffffffffffffffffffffffffff1681526020019250505060405180910390a1816000806101000a81548173ffffffffffffffffffffffffffffffffffffffff021916908373ffffffffffffffffffffffffffffffffffffffff16021790555060019050919050565b60046020528160005260406000206020528060005260406000206000915091509054906101000a900460ff1681565b60008060149054906101000a900460ff16905090565b6110b7611377565b600560008373ffffffffffffffffffffffffffffffffffffffff1673ffffffffffffffffffffffffffffffffffffffff168152602001908152602001600020604080519081016040529081600082015481526020016001820160009054906101000a900460ff1615151515815250509050919050565b600080600060149054906101000a900460ff1615151561114c57600080fd5b600560003373ffffffffffffffffffffffffffffffffffffffff1673ffffffffffffffffffffffffffffffffffffffff16815260200190815260200160002060010160009054906101000a900460ff161515156111a857600080fd5b600560003373ffffffffffffffffffffffffffffffffffffffff1673ffffffffffffffffffffffffffffffffffffffff1681526020019081526020016000206000015490506000811115156111fc57600080fd5b6000600560003373ffffffffffffffffffffffffffffffffffffffff1673ffffffffffffffffffffffffffffffffffffffff168152602001908152602001600020600001819055507f4ce7033d118120e254016dccf195288400b28fc8936425acd5f17ce2df3ab7083382604051808373ffffffffffffffffffffffffffffffffffffffff1673ffffffffffffffffffffffffffffffffffffffff1681526020018281526020019250505060405180910390a13373ffffffffffffffffffffffffffffffffffffffff166108fc829081150290604051600060405180830381858888f1935050505015156112ef57600080fd5b600191505090565b60015481565b60025481565b60c060405190810160405280600073ffffffffffffffffffffffffffffffffffffffff16815260200160008019168152602001600073ffffffffffffffffffffffffffffffffffffffff16815260200160008019168152602001600081526020016000600281111561137157fe5b81525090565b60408051908101604052806000815260200160001515815250905600a165627a7a723058205e4f1d801be2584b90452c2fb4c40631eb51872b337a3b2256278732f41b1e040029",
  "source": "pragma solidity ^0.4.18;\n\nimport '../contractLibrary/contracts/contractModifiers/Pausable.sol';\n\ncontract RockPaperScissors is Pausable {\n\n    enum Choices { None, Rock, Paper, Scissors }\n    enum Outcomes { Draw, PlayerOneWinner, PlayerTwoWinner }\n\n    struct PlayerStruct {\n        uint        balance;\n        bool        isInGame;\n    }\n\n    struct GameStruct {\n        address     playerOne;\n        bytes32     playerOneChoice;\n        address     playerTwo;\n        bytes32     playerTwoChoice;\n        uint        gameStake;\n        Outcomes    gameWinner;\n    }\n\n    uint public gameNumber;\n    uint public correctDepositAmount;\n    \n    mapping(uint => GameStruct) private gameStructs;\n    mapping(bytes32 => mapping(bytes32 => Outcomes)) public playerOptions;\n    mapping(address => PlayerStruct) private playerBalances;\n    \n    event LogDeposit(address sender, uint deposit);\n    event LogPlayer(address sender, uint gameNumber, uint playerNumber, bytes32 hashChoice);\n    event LogOutcome(uint gameNumber, Outcomes gameResult);\n    event LogWithdraw(address sender, uint amount);\n    \n    modifier gameNotInProgress() {\n        require(!playerBalances[msg.sender].isInGame); \n        _;\n    }\n    \n    function RockPaperScissors(uint setDepositAmount)\n        public\n    {\n        require(setDepositAmount > 0);\n        \n        gameNumber = 0;\n        correctDepositAmount = setDepositAmount;\n        \n        playerOptions[keccak256(Choices.Rock)][keccak256(Choices.Rock)] = Outcomes.Draw;\n        playerOptions[keccak256(Choices.Rock)][keccak256(Choices.Paper)] = Outcomes.PlayerTwoWinner;\n        playerOptions[keccak256(Choices.Rock)][keccak256(Choices.Scissors)] = Outcomes.PlayerOneWinner;\n        playerOptions[keccak256(Choices.Paper)][keccak256(Choices.Paper)] = Outcomes.Draw;\n        playerOptions[keccak256(Choices.Paper)][keccak256(Choices.Rock)] = Outcomes.PlayerOneWinner;\n        playerOptions[keccak256(Choices.Paper)][keccak256(Choices.Scissors)] = Outcomes.PlayerTwoWinner;\n        playerOptions[keccak256(Choices.Scissors)][keccak256(Choices.Scissors)] = Outcomes.Draw;\n        playerOptions[keccak256(Choices.Scissors)][keccak256(Choices.Rock)] = Outcomes.PlayerTwoWinner;\n        playerOptions[keccak256(Choices.Scissors)][keccak256(Choices.Paper)] = Outcomes.PlayerOneWinner;\n    }\n    \n    function playerChoice(Choices choice)\n        public\n        payable\n        isActive\n        returns(bool success)\n    {\n        require(msg.value == correctDepositAmount);\n        playerBalances[msg.sender].balance += msg.value;\n        LogDeposit(msg.sender, msg.value);\n\n        GameStruct storage game = gameStructs[gameNumber];\n        game.gameStake = correctDepositAmount;\n        \n        if(game.playerOne == 0) {\n            playerBalances[msg.sender].isInGame = true;\n            game.playerOne = msg.sender;\n            game.playerOneChoice = keccak256(choice);\n            LogPlayer(msg.sender, gameNumber, 1, game.playerOneChoice);\n            \n        } else if(game.playerTwo == 0) {\n            require(msg.sender != game.playerOne);\n            \n            game.playerTwo = msg.sender;\n            game.playerTwoChoice = keccak256(choice);\n            LogPlayer(msg.sender, gameNumber, 2, game.playerTwoChoice);\n            \n            Outcomes gameResult = playerOptions[game.playerOneChoice][game.playerTwoChoice];\n            game.gameWinner = gameResult;\n            LogOutcome(gameNumber, gameResult);\n            \n            if(gameResult == Outcomes.PlayerOneWinner) {\n                playerBalances[game.playerOne].balance += game.gameStake;\n                playerBalances[game.playerTwo].balance -= game.gameStake;\n            } else if(gameResult == Outcomes.PlayerTwoWinner) {\n                playerBalances[game.playerOne].balance -= game.gameStake;\n                playerBalances[game.playerTwo].balance += game.gameStake;\n            }\n            \n            playerBalances[game.playerOne].isInGame = false;\n            gameNumber++;\n        }\n        \n        return true;\n    }\n    \n    function withdrawWinnings() \n        public\n        isActive\n        gameNotInProgress\n        returns(bool success)\n    {\n        uint payment = playerBalances[msg.sender].balance;\n        require(payment > 0);\n\n        playerBalances[msg.sender].balance = 0;\n        LogWithdraw(msg.sender, payment);\n\n        msg.sender.transfer(payment);\n\n        return true;\n    }\n    \n    /** Getters */\n\n    function getGameStruct(uint index) \n        public\n        view\n        returns(GameStruct gameStruct)\n    {\n        return gameStructs[index];\n    }\n\n    function getPlayerStruct(address player)\n        public\n        view\n        returns(PlayerStruct playerStruct)\n    {\n        return playerBalances[player];\n    }\n   \n}",
  "sourcePath": "/Users/whittlem/B9lab-ETH-17-Projects/Module_4-RockPaperScissors/contracts/RockPaperScissors.sol",
  "compiler": {
    "name": "solc",
    "version": "0.4.18+commit.9cf6e910.Emscripten.clang"
  },
  "schemaVersion": "1.0.1",
  "updatedAt": "2017-12-03T10:34:03.847Z"
}