{
  "contractName": "RockPaperScissors",
  "abi": [
    {
      "constant": true,
      "inputs": [],
      "name": "playerTwo",
      "outputs": [
        {
          "name": "",
          "type": "address"
        }
      ],
      "payable": false,
      "stateMutability": "view",
      "type": "function"
    },
    {
      "constant": false,
      "inputs": [],
      "name": "register",
      "outputs": [
        {
          "name": "success",
          "type": "bool"
        }
      ],
      "payable": true,
      "stateMutability": "payable",
      "type": "function"
    },
    {
      "constant": false,
      "inputs": [],
      "name": "withdraw",
      "outputs": [
        {
          "name": "success",
          "type": "bool"
        }
      ],
      "payable": false,
      "stateMutability": "nonpayable",
      "type": "function"
    },
    {
      "constant": false,
      "inputs": [],
      "name": "pauseContract",
      "outputs": [],
      "payable": false,
      "stateMutability": "nonpayable",
      "type": "function"
    },
    {
      "constant": false,
      "inputs": [],
      "name": "startContract",
      "outputs": [],
      "payable": false,
      "stateMutability": "nonpayable",
      "type": "function"
    },
    {
      "constant": true,
      "inputs": [
        {
          "name": "choice",
          "type": "uint8"
        }
      ],
      "name": "getChoiceBytes32",
      "outputs": [
        {
          "name": "choiceBytes32",
          "type": "bytes32"
        }
      ],
      "payable": false,
      "stateMutability": "pure",
      "type": "function"
    },
    {
      "constant": true,
      "inputs": [],
      "name": "getOwner",
      "outputs": [
        {
          "name": "theOwner",
          "type": "address"
        }
      ],
      "payable": false,
      "stateMutability": "view",
      "type": "function"
    },
    {
      "constant": true,
      "inputs": [
        {
          "name": "recipient",
          "type": "address"
        }
      ],
      "name": "isRecipient",
      "outputs": [
        {
          "name": "isIndeed",
          "type": "bool"
        }
      ],
      "payable": false,
      "stateMutability": "view",
      "type": "function"
    },
    {
      "constant": true,
      "inputs": [],
      "name": "owner",
      "outputs": [
        {
          "name": "",
          "type": "address"
        }
      ],
      "payable": false,
      "stateMutability": "view",
      "type": "function"
    },
    {
      "constant": true,
      "inputs": [],
      "name": "isPaused",
      "outputs": [
        {
          "name": "isIndeed",
          "type": "bool"
        }
      ],
      "payable": false,
      "stateMutability": "view",
      "type": "function"
    },
    {
      "constant": true,
      "inputs": [],
      "name": "playerOne",
      "outputs": [
        {
          "name": "",
          "type": "address"
        }
      ],
      "payable": false,
      "stateMutability": "view",
      "type": "function"
    },
    {
      "constant": true,
      "inputs": [],
      "name": "getAddressCount",
      "outputs": [
        {
          "name": "count",
          "type": "uint256"
        }
      ],
      "payable": false,
      "stateMutability": "view",
      "type": "function"
    },
    {
      "constant": true,
      "inputs": [
        {
          "name": "",
          "type": "address"
        }
      ],
      "name": "recipientStructs",
      "outputs": [
        {
          "name": "balance",
          "type": "uint256"
        },
        {
          "name": "exists",
          "type": "bool"
        }
      ],
      "payable": false,
      "stateMutability": "view",
      "type": "function"
    },
    {
      "constant": true,
      "inputs": [],
      "name": "correctDepositAmount",
      "outputs": [
        {
          "name": "",
          "type": "uint256"
        }
      ],
      "payable": false,
      "stateMutability": "view",
      "type": "function"
    },
    {
      "constant": false,
      "inputs": [
        {
          "name": "keccakChoice",
          "type": "bytes32"
        }
      ],
      "name": "playerChoice",
      "outputs": [
        {
          "name": "winner",
          "type": "uint256"
        }
      ],
      "payable": false,
      "stateMutability": "nonpayable",
      "type": "function"
    },
    {
      "constant": false,
      "inputs": [
        {
          "name": "newOwner",
          "type": "address"
        }
      ],
      "name": "transferOwnership",
      "outputs": [],
      "payable": false,
      "stateMutability": "nonpayable",
      "type": "function"
    },
    {
      "inputs": [
        {
          "name": "depositAmount",
          "type": "uint256"
        }
      ],
      "payable": false,
      "stateMutability": "nonpayable",
      "type": "constructor"
    },
    {
      "anonymous": false,
      "inputs": [
        {
          "indexed": false,
          "name": "sender",
          "type": "address"
        },
        {
          "indexed": false,
          "name": "player",
          "type": "uint8"
        },
        {
          "indexed": false,
          "name": "balance",
          "type": "uint256"
        },
        {
          "indexed": false,
          "name": "deposit",
          "type": "uint256"
        }
      ],
      "name": "LogRegistration",
      "type": "event"
    },
    {
      "anonymous": false,
      "inputs": [
        {
          "indexed": false,
          "name": "sender",
          "type": "address"
        },
        {
          "indexed": false,
          "name": "player",
          "type": "uint8"
        },
        {
          "indexed": false,
          "name": "keccakChoice",
          "type": "bytes32"
        }
      ],
      "name": "LogPlayerChoice",
      "type": "event"
    },
    {
      "anonymous": false,
      "inputs": [
        {
          "indexed": false,
          "name": "sender",
          "type": "address"
        },
        {
          "indexed": false,
          "name": "playerOne",
          "type": "address"
        },
        {
          "indexed": false,
          "name": "playerOneChoice",
          "type": "bytes32"
        },
        {
          "indexed": false,
          "name": "playerTwo",
          "type": "address"
        },
        {
          "indexed": false,
          "name": "playerTwoChoice",
          "type": "bytes32"
        },
        {
          "indexed": false,
          "name": "result",
          "type": "uint256"
        }
      ],
      "name": "LogOutcome",
      "type": "event"
    },
    {
      "anonymous": false,
      "inputs": [
        {
          "indexed": false,
          "name": "sender",
          "type": "address"
        },
        {
          "indexed": false,
          "name": "amount",
          "type": "uint256"
        }
      ],
      "name": "LogWithdraw",
      "type": "event"
    },
    {
      "anonymous": false,
      "inputs": [
        {
          "indexed": false,
          "name": "sender",
          "type": "address"
        }
      ],
      "name": "LogContractPause",
      "type": "event"
    },
    {
      "anonymous": false,
      "inputs": [
        {
          "indexed": false,
          "name": "sender",
          "type": "address"
        }
      ],
      "name": "LogContractResume",
      "type": "event"
    }
  ],
  "bytecode": "0x60606040526000604051808260038111156200001757fe5b60ff167f010000000000000000000000000000000000000000000000000000000000000002815260010191505060405180910390206006906000191690556000604051808260038111156200006857fe5b60ff167f010000000000000000000000000000000000000000000000000000000000000002815260010191505060405180910390206007906000191690553415620000b257600080fd5b60405160208062001ca283398101604052808051906020019091905050336000806101000a81548173ffffffffffffffffffffffffffffffffffffffff021916908373ffffffffffffffffffffffffffffffffffffffff160217905550806001819055506000600860006001604051808260038111156200012f57fe5b60ff167f010000000000000000000000000000000000000000000000000000000000000002815260010191505060405180910390206000191660001916815260200190815260200160002060006001604051808260038111156200018f57fe5b60ff167f010000000000000000000000000000000000000000000000000000000000000002815260010191505060405180910390206000191660001916815260200190815260200160002081905550600260086000600160405180826003811115620001f757fe5b60ff167f010000000000000000000000000000000000000000000000000000000000000002815260010191505060405180910390206000191660001916815260200190815260200160002060006002604051808260038111156200025757fe5b60ff167f010000000000000000000000000000000000000000000000000000000000000002815260010191505060405180910390206000191660001916815260200190815260200160002081905550600160086000600160405180826003811115620002bf57fe5b60ff167f010000000000000000000000000000000000000000000000000000000000000002815260010191505060405180910390206000191660001916815260200190815260200160002060006003604051808260038111156200031f57fe5b60ff167f0100000000000000000000000000000000000000000000000000000000000000028152600101915050604051809103902060001916600019168152602001908152602001600020819055506000600860006002604051808260038111156200038757fe5b60ff167f01000000000000000000000000000000000000000000000000000000000000000281526001019150506040518091039020600019166000191681526020019081526020016000206000600260405180826003811115620003e757fe5b60ff167f0100000000000000000000000000000000000000000000000000000000000000028152600101915050604051809103902060001916600019168152602001908152602001600020819055506001600860006002604051808260038111156200044f57fe5b60ff167f01000000000000000000000000000000000000000000000000000000000000000281526001019150506040518091039020600019166000191681526020019081526020016000206000600160405180826003811115620004af57fe5b60ff167f0100000000000000000000000000000000000000000000000000000000000000028152600101915050604051809103902060001916600019168152602001908152602001600020819055506002600860006002604051808260038111156200051757fe5b60ff167f010000000000000000000000000000000000000000000000000000000000000002815260010191505060405180910390206000191660001916815260200190815260200160002060006003604051808260038111156200057757fe5b60ff167f010000000000000000000000000000000000000000000000000000000000000002815260010191505060405180910390206000191660001916815260200190815260200160002081905550600060086000600360405180826003811115620005df57fe5b60ff167f010000000000000000000000000000000000000000000000000000000000000002815260010191505060405180910390206000191660001916815260200190815260200160002060006003604051808260038111156200063f57fe5b60ff167f010000000000000000000000000000000000000000000000000000000000000002815260010191505060405180910390206000191660001916815260200190815260200160002081905550600260086000600360405180826003811115620006a757fe5b60ff167f010000000000000000000000000000000000000000000000000000000000000002815260010191505060405180910390206000191660001916815260200190815260200160002060006001604051808260038111156200070757fe5b60ff167f0100000000000000000000000000000000000000000000000000000000000000028152600101915050604051809103902060001916600019168152602001908152602001600020819055506001600860006003604051808260038111156200076f57fe5b60ff167f01000000000000000000000000000000000000000000000000000000000000000281526001019150506040518091039020600019166000191681526020019081526020016000206000600260405180826003811115620007cf57fe5b60ff167f01000000000000000000000000000000000000000000000000000000000000000281526001019150506040518091039020600019166000191681526020019081526020016000208190555050611473806200082f6000396000f3006060604052600436106100e6576000357c0100000000000000000000000000000000000000000000000000000000900463ffffffff1680630a9f85dd146100eb5780631aa3a008146101405780633ccfd60b14610162578063439766ce1461018f5780635fb02f4d146101a45780637ea33b94146101b9578063893d20e8146101fb5780638c5143ea146102505780638da5cb5b146102a1578063b187bd26146102f6578063bcffcf4114610323578063cdbb02af14610378578063d7845a2c146103a1578063dfad7f3a146103f9578063efe2c46214610422578063f2fde38b1461045d575b600080fd5b34156100f657600080fd5b6100fe610496565b604051808273ffffffffffffffffffffffffffffffffffffffff1673ffffffffffffffffffffffffffffffffffffffff16815260200191505060405180910390f35b6101486104bc565b604051808215151515815260200191505060405180910390f35b341561016d57600080fd5b610175610a0a565b604051808215151515815260200191505060405180910390f35b341561019a57600080fd5b6101a2610bb8565b005b34156101af57600080fd5b6101b7610c93565b005b34156101c457600080fd5b6101dd600480803560ff16906020019091905050610d6d565b60405180826000191660001916815260200191505060405180910390f35b341561020657600080fd5b61020e610dbc565b604051808273ffffffffffffffffffffffffffffffffffffffff1673ffffffffffffffffffffffffffffffffffffffff16815260200191505060405180910390f35b341561025b57600080fd5b610287600480803573ffffffffffffffffffffffffffffffffffffffff16906020019091905050610de5565b604051808215151515815260200191505060405180910390f35b34156102ac57600080fd5b6102b4610e3e565b604051808273ffffffffffffffffffffffffffffffffffffffff1673ffffffffffffffffffffffffffffffffffffffff16815260200191505060405180910390f35b341561030157600080fd5b610309610e63565b604051808215151515815260200191505060405180910390f35b341561032e57600080fd5b610336610e79565b604051808273ffffffffffffffffffffffffffffffffffffffff1673ffffffffffffffffffffffffffffffffffffffff16815260200191505060405180910390f35b341561038357600080fd5b61038b610e9f565b6040518082815260200191505060405180910390f35b34156103ac57600080fd5b6103d8600480803573ffffffffffffffffffffffffffffffffffffffff16906020019091905050610eac565b60405180838152602001821515151581526020019250505060405180910390f35b341561040457600080fd5b61040c610edd565b6040518082815260200191505060405180910390f35b341561042d57600080fd5b610447600480803560001916906020019091905050610ee3565b6040518082815260200191505060405180910390f35b341561046857600080fd5b610494600480803573ffffffffffffffffffffffffffffffffffffffff169060200190919050506112f7565b005b600360009054906101000a900473ffffffffffffffffffffffffffffffffffffffff1681565b60003373ffffffffffffffffffffffffffffffffffffffff16600260009054906101000a900473ffffffffffffffffffffffffffffffffffffffff1673ffffffffffffffffffffffffffffffffffffffff16148061056757503373ffffffffffffffffffffffffffffffffffffffff16600360009054906101000a900473ffffffffffffffffffffffffffffffffffffffff1673ffffffffffffffffffffffffffffffffffffffff16145b1561057157600080fd5b600060149054906101000a900460ff1615151561058d57600080fd5b6001543414151561059d57600080fd5b6105a633610de5565b1515156105b257600080fd5b600480548060010182816105c691906113f6565b9160005260206000209001600033909190916101000a81548173ffffffffffffffffffffffffffffffffffffffff021916908373ffffffffffffffffffffffffffffffffffffffff160217905550506001600560003373ffffffffffffffffffffffffffffffffffffffff1673ffffffffffffffffffffffffffffffffffffffff16815260200190815260200160002060010160006101000a81548160ff0219169083151502179055506000600260009054906101000a900473ffffffffffffffffffffffffffffffffffffffff1673ffffffffffffffffffffffffffffffffffffffff16141561080c5733600260006101000a81548173ffffffffffffffffffffffffffffffffffffffff021916908373ffffffffffffffffffffffffffffffffffffffff1602179055507f967cf361a8dc3fe16bf027191629431fdeba641fa72455eafb6ca632d242b4ce336001600560003373ffffffffffffffffffffffffffffffffffffffff1673ffffffffffffffffffffffffffffffffffffffff1681526020019081526020016000206000015434604051808573ffffffffffffffffffffffffffffffffffffffff1673ffffffffffffffffffffffffffffffffffffffff1681526020018460ff16815260200183815260200182815260200194505050505060405180910390a134600560003373ffffffffffffffffffffffffffffffffffffffff1673ffffffffffffffffffffffffffffffffffffffff1681526020019081526020016000206000016000828254019250508190555060019050610a07565b6000600360009054906101000a900473ffffffffffffffffffffffffffffffffffffffff1673ffffffffffffffffffffffffffffffffffffffff161480156108a257503373ffffffffffffffffffffffffffffffffffffffff16600260009054906101000a900473ffffffffffffffffffffffffffffffffffffffff1673ffffffffffffffffffffffffffffffffffffffff1614155b15610a025733600360006101000a81548173ffffffffffffffffffffffffffffffffffffffff021916908373ffffffffffffffffffffffffffffffffffffffff1602179055507f967cf361a8dc3fe16bf027191629431fdeba641fa72455eafb6ca632d242b4ce336002600560003373ffffffffffffffffffffffffffffffffffffffff1673ffffffffffffffffffffffffffffffffffffffff1681526020019081526020016000206000015434604051808573ffffffffffffffffffffffffffffffffffffffff1673ffffffffffffffffffffffffffffffffffffffff1681526020018460ff16815260200183815260200182815260200194505050505060405180910390a134600560003373ffffffffffffffffffffffffffffffffffffffff1673ffffffffffffffffffffffffffffffffffffffff1681526020019081526020016000206000016000828254019250508190555060019050610a07565b600090505b90565b600080600060149054906101000a900460ff16151515610a2957600080fd5b600560003373ffffffffffffffffffffffffffffffffffffffff1673ffffffffffffffffffffffffffffffffffffffff168152602001908152602001600020600001549050600081111515610a7d57600080fd5b6000600560003373ffffffffffffffffffffffffffffffffffffffff1673ffffffffffffffffffffffffffffffffffffffff168152602001908152602001600020600001819055507f4ce7033d118120e254016dccf195288400b28fc8936425acd5f17ce2df3ab7083382604051808373ffffffffffffffffffffffffffffffffffffffff1673ffffffffffffffffffffffffffffffffffffffff1681526020018281526020019250505060405180910390a13373ffffffffffffffffffffffffffffffffffffffff166108fc829081150290604051600060405180830381858888f193505050501515610b7057600080fd5b3373ffffffffffffffffffffffffffffffffffffffff166108fc829081150290604051600060405180830381858888f193505050501515610bb057600080fd5b600191505090565b6000809054906101000a900473ffffffffffffffffffffffffffffffffffffffff1673ffffffffffffffffffffffffffffffffffffffff163373ffffffffffffffffffffffffffffffffffffffff16141515610c1357600080fd5b6001600060146101000a81548160ff0219169083151502179055507f9022f48034574f88d5dde439a5da7ebc25082f77761e9d1db4915cea52ade9dc33604051808273ffffffffffffffffffffffffffffffffffffffff1673ffffffffffffffffffffffffffffffffffffffff16815260200191505060405180910390a1565b6000809054906101000a900473ffffffffffffffffffffffffffffffffffffffff1673ffffffffffffffffffffffffffffffffffffffff163373ffffffffffffffffffffffffffffffffffffffff16141515610cee57600080fd5b60008060146101000a81548160ff0219169083151502179055507fa8ddc33bcc81d4475dfdcb2c883e97be008d608cc0c8a48aa5a8d1076b99654433604051808273ffffffffffffffffffffffffffffffffffffffff1673ffffffffffffffffffffffffffffffffffffffff16815260200191505060405180910390a1565b60008160405180826003811115610d8057fe5b60ff167f010000000000000000000000000000000000000000000000000000000000000002815260010191505060405180910390209050919050565b60008060009054906101000a900473ffffffffffffffffffffffffffffffffffffffff16905090565b6000600560008373ffffffffffffffffffffffffffffffffffffffff1673ffffffffffffffffffffffffffffffffffffffff16815260200190815260200160002060010160009054906101000a900460ff169050919050565b6000809054906101000a900473ffffffffffffffffffffffffffffffffffffffff1681565b60008060149054906101000a900460ff16905090565b600260009054906101000a900473ffffffffffffffffffffffffffffffffffffffff1681565b6000600480549050905090565b60056020528060005260406000206000915090508060000154908060010160009054906101000a900460ff16905082565b60015481565b600080600060149054906101000a900460ff16151515610f0257600080fd5b3373ffffffffffffffffffffffffffffffffffffffff16600260009054906101000a900473ffffffffffffffffffffffffffffffffffffffff1673ffffffffffffffffffffffffffffffffffffffff161480610fab57503373ffffffffffffffffffffffffffffffffffffffff16600360009054906101000a900473ffffffffffffffffffffffffffffffffffffffff1673ffffffffffffffffffffffffffffffffffffffff16145b1515610fb657600080fd5b600260009054906101000a900473ffffffffffffffffffffffffffffffffffffffff1673ffffffffffffffffffffffffffffffffffffffff163373ffffffffffffffffffffffffffffffffffffffff1614156110975782600681600019169055507fef00e24b0063e7a3434b9669ae0150f5f1f9ea3f13a646757ea02edaf539da6933600185604051808473ffffffffffffffffffffffffffffffffffffffff1673ffffffffffffffffffffffffffffffffffffffff1681526020018360ff1681526020018260001916600019168152602001935050505060405180910390a15b600360009054906101000a900473ffffffffffffffffffffffffffffffffffffffff1673ffffffffffffffffffffffffffffffffffffffff163373ffffffffffffffffffffffffffffffffffffffff1614156111785782600781600019169055507fef00e24b0063e7a3434b9669ae0150f5f1f9ea3f13a646757ea02edaf539da6933600285604051808473ffffffffffffffffffffffffffffffffffffffff1673ffffffffffffffffffffffffffffffffffffffff1681526020018360ff1681526020018260001916600019168152602001935050505060405180910390a15b60086000600654600019166000191681526020019081526020016000206000600754600019166000191681526020019081526020016000205490507f54db0faaf6a59da989e3d48b779ea67741c77ef33c8f5f88036181f2012af32933600260009054906101000a900473ffffffffffffffffffffffffffffffffffffffff16600654600360009054906101000a900473ffffffffffffffffffffffffffffffffffffffff1660075486604051808773ffffffffffffffffffffffffffffffffffffffff1673ffffffffffffffffffffffffffffffffffffffff1681526020018673ffffffffffffffffffffffffffffffffffffffff1673ffffffffffffffffffffffffffffffffffffffff16815260200185600019166000191681526020018473ffffffffffffffffffffffffffffffffffffffff1673ffffffffffffffffffffffffffffffffffffffff1681526020018360001916600019168152602001828152602001965050505050505060405180910390a180915050919050565b6000809054906101000a900473ffffffffffffffffffffffffffffffffffffffff1673ffffffffffffffffffffffffffffffffffffffff163373ffffffffffffffffffffffffffffffffffffffff1614151561135257600080fd5b60008173ffffffffffffffffffffffffffffffffffffffff161415151561137857600080fd5b3373ffffffffffffffffffffffffffffffffffffffff168173ffffffffffffffffffffffffffffffffffffffff16141515156113b357600080fd5b806000806101000a81548173ffffffffffffffffffffffffffffffffffffffff021916908373ffffffffffffffffffffffffffffffffffffffff16021790555050565b81548183558181151161141d5781836000526020600020918201910161141c9190611422565b5b505050565b61144491905b80821115611440576000816000905550600101611428565b5090565b905600a165627a7a723058200dda88d7ab8b0fff5d6637bdb7fe748443b8a5ecd28861ac97773e7162a745bd0029",
  "source": "pragma solidity ^0.4.18;\n\nimport '../contractLibrary/contractModifiers/Pausable.sol';\n\ncontract RockPaperScissors is Pausable {\n\n  enum Choices { None, Rock, Paper, Scissors }\n\n  struct RecipientStruct {\n    uint balance;\n    bool exists;\n  }  \n\n  uint public correctDepositAmount;\n\n  address public playerOne;\n  address public playerTwo;\n\n  address[] private recipients;\n  mapping(address => RecipientStruct) public recipientStructs;\n\n  bytes32 private playerOneChoice = keccak256(Choices.None);\n  bytes32 private playerTwoChoice = keccak256(Choices.None);\n\n  mapping (bytes32 => mapping(bytes32 => uint)) playerChoices;\n\n  event LogRegistration(address sender, uint8 player, uint balance,  uint deposit);\n  event LogPlayerChoice(address sender, uint8 player, bytes32 keccakChoice);\n  event LogOutcome(address sender, address playerOne, bytes32 playerOneChoice, address playerTwo, bytes32 playerTwoChoice, uint result);\n  event LogWithdraw(address sender, uint amount);\n\n  function RockPaperScissors(uint depositAmount) \n    public \n  {\n    correctDepositAmount = depositAmount;\n\n    playerChoices[keccak256(Choices.Rock)][keccak256(Choices.Rock)] = 0;\n    playerChoices[keccak256(Choices.Rock)][keccak256(Choices.Paper)] = 2;\n    playerChoices[keccak256(Choices.Rock)][keccak256(Choices.Scissors)] = 1;\n    playerChoices[keccak256(Choices.Paper)][keccak256(Choices.Paper)] = 0;\n    playerChoices[keccak256(Choices.Paper)][keccak256(Choices.Rock)] = 1;\n    playerChoices[keccak256(Choices.Paper)][keccak256(Choices.Scissors)] = 2;\n    playerChoices[keccak256(Choices.Scissors)][keccak256(Choices.Scissors)] = 0;\n    playerChoices[keccak256(Choices.Scissors)][keccak256(Choices.Rock)] = 2;\n    playerChoices[keccak256(Choices.Scissors)][keccak256(Choices.Paper)] = 1;\n  }\n\n  modifier notRegisteredYet() {\n    if((playerOne == msg.sender) || (playerTwo == msg.sender)) {\n      revert();\n    } else {\n      _;\n    }\n  }\n\n  function register()\n    public\n    payable\n    notRegisteredYet\n    isActive\n    returns (bool success)\n  {\n    require(msg.value == correctDepositAmount);\n    require(!isRecipient(msg.sender));\n\n    recipients.push(msg.sender);\n    recipientStructs[msg.sender].exists = true;\n\n    if(playerOne == 0) {\n      playerOne = msg.sender;\n      LogRegistration(msg.sender, 1, recipientStructs[msg.sender].balance, msg.value);\n      recipientStructs[msg.sender].balance += msg.value;\n      return true;\n    }\n    if((playerTwo == 0) && (playerOne != msg.sender)) {\n      playerTwo = msg.sender;\n      LogRegistration(msg.sender, 2, recipientStructs[msg.sender].balance,  msg.value);\n      recipientStructs[msg.sender].balance += msg.value;\n      return true;\n    }\n\n    return false;\n  }\n\n  function playerChoice(bytes32 keccakChoice)\n    public\n    isActive\n    returns(uint winner)\n  {\n    require(playerOne == msg.sender || playerTwo == msg.sender);\n\n    if(msg.sender == playerOne) {\n      playerOneChoice = keccakChoice;\n      LogPlayerChoice(msg.sender, 1, keccakChoice);\n    }\n    if(msg.sender == playerTwo) {\n      playerTwoChoice = keccakChoice;\n      LogPlayerChoice(msg.sender, 2, keccakChoice);\n    }\n\n    uint result = playerChoices[playerOneChoice][playerTwoChoice];\n    LogOutcome(msg.sender, playerOne, playerOneChoice, playerTwo, playerTwoChoice, result);\n\n    return result;    \n  }\n\n  function withdraw() \n    public\n    isActive\n    returns(bool success)\n  {\n    uint payment = recipientStructs[msg.sender].balance;\n    require(payment > 0);\n\n    recipientStructs[msg.sender].balance = 0;\n    LogWithdraw(msg.sender, payment);\n\n    msg.sender.transfer(payment);\n\n    if(!msg.sender.send(payment)) {\n      revert();\n    }\n\n    return true;\n  }\n\n  function getChoiceBytes32(Choices choice)\n    public\n    pure\n    returns(bytes32 choiceBytes32)\n  {\n    return keccak256(choice);\n  }\n\n  function isRecipient(address recipient) \n    public \n    constant \n    returns(bool isIndeed)\n  {\n    return recipientStructs[recipient].exists;\n  }\n\n  function getAddressCount() \n    public\n    constant \n    returns(uint count) \n  { \n    return recipients.length; \n  }\n\n}\n",
  "sourcePath": "/home/whittlem/B9lab-ETH-17-Projects/Module_4-RockPaperScissors/contracts/RockPaperScissors.sol",
  "compiler": {
    "name": "solc",
    "version": "0.4.18+commit.9cf6e910.Emscripten.clang"
  },
  "schemaVersion": "1.0.1",
  "updatedAt": "2017-11-19T11:11:52.212Z"
}